{
	"FundMe.sol": {
		"FundMe": {
			"abi": [
				{
					"inputs": [],
					"stateMutability": "nonpayable",
					"type": "constructor"
				},
				{
					"inputs": [],
					"name": "fund",
					"outputs": [],
					"stateMutability": "payable",
					"type": "function"
				},
				{
					"inputs": [
						{
							"internalType": "address",
							"name": "",
							"type": "address"
						}
					],
					"name": "fundersToAmount",
					"outputs": [
						{
							"internalType": "uint256",
							"name": "",
							"type": "uint256"
						}
					],
					"stateMutability": "view",
					"type": "function"
				},
				{
					"inputs": [],
					"name": "getChainlinkDataFeedLatestAnswer",
					"outputs": [
						{
							"internalType": "int256",
							"name": "",
							"type": "int256"
						}
					],
					"stateMutability": "view",
					"type": "function"
				},
				{
					"inputs": [],
					"name": "getFund",
					"outputs": [],
					"stateMutability": "nonpayable",
					"type": "function"
				},
				{
					"inputs": [
						{
							"internalType": "address",
							"name": "newOwner",
							"type": "address"
						}
					],
					"name": "transferOwnership",
					"outputs": [],
					"stateMutability": "nonpayable",
					"type": "function"
				}
			],
			"devdoc": {
				"kind": "dev",
				"methods": {},
				"version": 1
			},
			"evm": {
				"assembly": "    /* \"FundMe.sol\":376:2343  contract FundMe {... */\n  mstore(0x40, 0x80)\n    /* \"FundMe.sol\":644:751  constructor() {... */\n  callvalue\n  dup1\n  iszero\n  tag_1\n  jumpi\n  revert(0x00, 0x00)\ntag_1:\n  pop\n    /* \"FundMe.sol\":701:743  0x694AA1769357215DE4FAC081bf1f309aDC325306 */\n  0x694aa1769357215de4fac081bf1f309adc325306\n    /* \"FundMe.sol\":668:676  dataFeed */\n  0x01\n  0x00\n    /* \"FundMe.sol\":668:744  dataFeed = AggregatorV3Interface(0x694AA1769357215DE4FAC081bf1f309aDC325306) */\n  0x0100\n  exp\n  dup2\n  sload\n  dup2\n  0xffffffffffffffffffffffffffffffffffffffff\n  mul\n  not\n  and\n  swap1\n  dup4\n  0xffffffffffffffffffffffffffffffffffffffff\n  and\n  mul\n  or\n  swap1\n  sstore\n  pop\n    /* \"FundMe.sol\":376:2343  contract FundMe {... */\n  dataSize(sub_0)\n  dup1\n  dataOffset(sub_0)\n  0x00\n  codecopy\n  0x00\n  return\nstop\n\nsub_0: assembly {\n        /* \"FundMe.sol\":376:2343  contract FundMe {... */\n      mstore(0x40, 0x80)\n      jumpi(tag_1, lt(calldatasize, 0x04))\n      shr(0xe0, calldataload(0x00))\n      dup1\n      0x8edd6eb6\n      eq\n      tag_2\n      jumpi\n      dup1\n      0x9f883a05\n      eq\n      tag_3\n      jumpi\n      dup1\n      0xb60d4288\n      eq\n      tag_4\n      jumpi\n      dup1\n      0xbea4dfb5\n      eq\n      tag_5\n      jumpi\n      dup1\n      0xf2fde38b\n      eq\n      tag_6\n      jumpi\n    tag_1:\n      revert(0x00, 0x00)\n        /* \"FundMe.sol\":1841:2341  function getFund() external {... */\n    tag_2:\n      callvalue\n      dup1\n      iszero\n      tag_7\n      jumpi\n      revert(0x00, 0x00)\n    tag_7:\n      pop\n      tag_8\n      tag_9\n      jump\t// in\n    tag_8:\n      stop\n        /* \"FundMe.sol\":398:448  mapping(address => uint256) public fundersToAmount */\n    tag_3:\n      callvalue\n      dup1\n      iszero\n      tag_10\n      jumpi\n      revert(0x00, 0x00)\n    tag_10:\n      pop\n      tag_11\n      0x04\n      dup1\n      calldatasize\n      sub\n      dup2\n      add\n      swap1\n      tag_12\n      swap2\n      swap1\n      tag_13\n      jump\t// in\n    tag_12:\n      tag_14\n      jump\t// in\n    tag_11:\n      mload(0x40)\n      tag_15\n      swap2\n      swap1\n      tag_16\n      jump\t// in\n    tag_15:\n      mload(0x40)\n      dup1\n      swap2\n      sub\n      swap1\n      return\n        /* \"FundMe.sol\":941:1109  function fund() external payable {... */\n    tag_4:\n      tag_17\n      tag_18\n      jump\t// in\n    tag_17:\n      stop\n        /* \"FundMe.sol\":1115:1453  function getChainlinkDataFeedLatestAnswer() public view returns (int) {... */\n    tag_5:\n      callvalue\n      dup1\n      iszero\n      tag_19\n      jumpi\n      revert(0x00, 0x00)\n    tag_19:\n      pop\n      tag_20\n      tag_21\n      jump\t// in\n    tag_20:\n      mload(0x40)\n      tag_22\n      swap2\n      swap1\n      tag_23\n      jump\t// in\n    tag_22:\n      mload(0x40)\n      dup1\n      swap2\n      sub\n      swap1\n      return\n        /* \"FundMe.sol\":1667:1835  function transferOwnership(address newOwner) public {... */\n    tag_6:\n      callvalue\n      dup1\n      iszero\n      tag_24\n      jumpi\n      revert(0x00, 0x00)\n    tag_24:\n      pop\n      tag_25\n      0x04\n      dup1\n      calldatasize\n      sub\n      dup2\n      add\n      swap1\n      tag_26\n      swap2\n      swap1\n      tag_13\n      jump\t// in\n    tag_26:\n      tag_27\n      jump\t// in\n    tag_25:\n      stop\n        /* \"FundMe.sol\":1841:2341  function getFund() external {... */\n    tag_9:\n        /* \"FundMe.sol\":591:606  1000 * 10 ** 18 */\n      0x3635c9adc5dea00000\n        /* \"FundMe.sol\":1887:1925  convertEthToUsd(address(this).balance) */\n      tag_29\n        /* \"FundMe.sol\":1903:1924  address(this).balance */\n      selfbalance\n        /* \"FundMe.sol\":1887:1902  convertEthToUsd */\n      tag_30\n        /* \"FundMe.sol\":1887:1925  convertEthToUsd(address(this).balance) */\n      jump\t// in\n    tag_29:\n        /* \"FundMe.sol\":1887:1935  convertEthToUsd(address(this).balance) >= TARGET */\n      lt\n      iszero\n        /* \"FundMe.sol\":1879:1961  require(convertEthToUsd(address(this).balance) >= TARGET, \"Target is not reached\") */\n      tag_31\n      jumpi\n      mload(0x40)\n      0x08c379a000000000000000000000000000000000000000000000000000000000\n      dup2\n      mstore\n      0x04\n      add\n      tag_32\n      swap1\n      tag_33\n      jump\t// in\n    tag_32:\n      mload(0x40)\n      dup1\n      swap2\n      sub\n      swap1\n      revert\n    tag_31:\n        /* \"FundMe.sol\":1993:1998  owner */\n      0x02\n      0x00\n      swap1\n      sload\n      swap1\n      0x0100\n      exp\n      swap1\n      div\n      0xffffffffffffffffffffffffffffffffffffffff\n      and\n        /* \"FundMe.sol\":1979:1998  msg.sender == owner */\n      0xffffffffffffffffffffffffffffffffffffffff\n      and\n        /* \"FundMe.sol\":1979:1989  msg.sender */\n      caller\n        /* \"FundMe.sol\":1979:1998  msg.sender == owner */\n      0xffffffffffffffffffffffffffffffffffffffff\n      and\n      eq\n        /* \"FundMe.sol\":1971:2043  require(msg.sender == owner, \"this functin can only be called by owner\") */\n      tag_34\n      jumpi\n      mload(0x40)\n      0x08c379a000000000000000000000000000000000000000000000000000000000\n      dup2\n      mstore\n      0x04\n      add\n      tag_35\n      swap1\n      tag_36\n      jump\t// in\n    tag_35:\n      mload(0x40)\n      dup1\n      swap2\n      sub\n      swap1\n      revert\n    tag_34:\n        /* \"FundMe.sol\":2179:2191  bool success */\n      0x00\n        /* \"FundMe.sol\":2205:2215  msg.sender */\n      caller\n        /* \"FundMe.sol\":2197:2221  payable(msg.sender).call */\n      0xffffffffffffffffffffffffffffffffffffffff\n      and\n        /* \"FundMe.sol\":2229:2250  address(this).balance */\n      selfbalance\n        /* \"FundMe.sol\":2197:2255  payable(msg.sender).call{value: address(this).balance}(\"\") */\n      mload(0x40)\n      tag_37\n      swap1\n      tag_38\n      jump\t// in\n    tag_37:\n      0x00\n      mload(0x40)\n      dup1\n      dup4\n      sub\n      dup2\n      dup6\n      dup8\n      gas\n      call\n      swap3\n      pop\n      pop\n      pop\n      returndatasize\n      dup1\n      0x00\n      dup2\n      eq\n      tag_41\n      jumpi\n      mload(0x40)\n      swap2\n      pop\n      and(add(returndatasize, 0x3f), not(0x1f))\n      dup3\n      add\n      0x40\n      mstore\n      returndatasize\n      dup3\n      mstore\n      returndatasize\n      0x00\n      0x20\n      dup5\n      add\n      returndatacopy\n      jump(tag_40)\n    tag_41:\n      0x60\n      swap2\n      pop\n    tag_40:\n      pop\n        /* \"FundMe.sol\":2178:2255  (bool success, ) = payable(msg.sender).call{value: address(this).balance}(\"\") */\n      pop\n      swap1\n      pop\n        /* \"FundMe.sol\":2274:2281  success */\n      dup1\n        /* \"FundMe.sol\":2266:2301  require(success, \"Transfer failed\") */\n      tag_42\n      jumpi\n      mload(0x40)\n      0x08c379a000000000000000000000000000000000000000000000000000000000\n      dup2\n      mstore\n      0x04\n      add\n      tag_43\n      swap1\n      tag_44\n      jump\t// in\n    tag_43:\n      mload(0x40)\n      dup1\n      swap2\n      sub\n      swap1\n      revert\n    tag_42:\n        /* \"FundMe.sol\":1869:2341  {... */\n      pop\n        /* \"FundMe.sol\":1841:2341  function getFund() external {... */\n      jump\t// out\n        /* \"FundMe.sol\":398:448  mapping(address => uint256) public fundersToAmount */\n    tag_14:\n      mstore(0x20, 0x00)\n      dup1\n      0x00\n      mstore\n      keccak256(0x00, 0x40)\n      0x00\n      swap2\n      pop\n      swap1\n      pop\n      sload\n      dup2\n      jump\t// out\n        /* \"FundMe.sol\":941:1109  function fund() external payable {... */\n    tag_18:\n        /* \"FundMe.sol\":488:502  100 * 10 ** 18 */\n      0x056bc75e2d63100000\n        /* \"FundMe.sol\":992:1018  convertEthToUsd(msg.value) */\n      tag_46\n        /* \"FundMe.sol\":1008:1017  msg.value */\n      callvalue\n        /* \"FundMe.sol\":992:1007  convertEthToUsd */\n      tag_30\n        /* \"FundMe.sol\":992:1018  convertEthToUsd(msg.value) */\n      jump\t// in\n    tag_46:\n        /* \"FundMe.sol\":992:1035  convertEthToUsd(msg.value) >= MINIMUM_VALUE */\n      lt\n      iszero\n        /* \"FundMe.sol\":984:1053  require(convertEthToUsd(msg.value) >= MINIMUM_VALUE, \"Send more ETH\") */\n      tag_47\n      jumpi\n      mload(0x40)\n      0x08c379a000000000000000000000000000000000000000000000000000000000\n      dup2\n      mstore\n      0x04\n      add\n      tag_48\n      swap1\n      tag_49\n      jump\t// in\n    tag_48:\n      mload(0x40)\n      dup1\n      swap2\n      sub\n      swap1\n      revert\n    tag_47:\n        /* \"FundMe.sol\":1093:1102  msg.value */\n      callvalue\n        /* \"FundMe.sol\":1063:1078  fundersToAmount */\n      0x00\n        /* \"FundMe.sol\":1063:1090  fundersToAmount[msg.sender] */\n      0x00\n        /* \"FundMe.sol\":1079:1089  msg.sender */\n      caller\n        /* \"FundMe.sol\":1063:1090  fundersToAmount[msg.sender] */\n      0xffffffffffffffffffffffffffffffffffffffff\n      and\n      0xffffffffffffffffffffffffffffffffffffffff\n      and\n      dup2\n      mstore\n      0x20\n      add\n      swap1\n      dup2\n      mstore\n      0x20\n      add\n      0x00\n      keccak256\n        /* \"FundMe.sol\":1063:1102  fundersToAmount[msg.sender] = msg.value */\n      dup2\n      swap1\n      sstore\n      pop\n        /* \"FundMe.sol\":941:1109  function fund() external payable {... */\n      jump\t// out\n        /* \"FundMe.sol\":1115:1453  function getChainlinkDataFeedLatestAnswer() public view returns (int) {... */\n    tag_21:\n        /* \"FundMe.sol\":1180:1183  int */\n      0x00\n        /* \"FundMe.sol\":1270:1280  int answer */\n      0x00\n        /* \"FundMe.sol\":1397:1405  dataFeed */\n      0x01\n      0x00\n      swap1\n      sload\n      swap1\n      0x0100\n      exp\n      swap1\n      div\n      0xffffffffffffffffffffffffffffffffffffffff\n      and\n        /* \"FundMe.sol\":1397:1421  dataFeed.latestRoundData */\n      0xffffffffffffffffffffffffffffffffffffffff\n      and\n      0xfeaf968c\n        /* \"FundMe.sol\":1397:1423  dataFeed.latestRoundData() */\n      mload(0x40)\n      dup2\n      0xffffffff\n      and\n      0xe0\n      shl\n      dup2\n      mstore\n      0x04\n      add\n      0xa0\n      mload(0x40)\n      dup1\n      dup4\n      sub\n      dup2\n      dup7\n      gas\n      staticcall\n      iszero\n      dup1\n      iszero\n      tag_52\n      jumpi\n      returndatacopy(0x00, 0x00, returndatasize)\n      revert(0x00, returndatasize)\n    tag_52:\n      pop\n      pop\n      pop\n      pop\n      mload(0x40)\n      returndatasize\n      not(0x1f)\n      0x1f\n      dup3\n      add\n      and\n      dup3\n      add\n      dup1\n      0x40\n      mstore\n      pop\n      dup2\n      add\n      swap1\n      tag_53\n      swap2\n      swap1\n      tag_54\n      jump\t// in\n    tag_53:\n        /* \"FundMe.sol\":1222:1423  (... */\n      pop\n      pop\n      pop\n      swap2\n      pop\n      pop\n        /* \"FundMe.sol\":1440:1446  answer */\n      dup1\n        /* \"FundMe.sol\":1433:1446  return answer */\n      swap2\n      pop\n      pop\n        /* \"FundMe.sol\":1115:1453  function getChainlinkDataFeedLatestAnswer() public view returns (int) {... */\n      swap1\n      jump\t// out\n        /* \"FundMe.sol\":1667:1835  function transferOwnership(address newOwner) public {... */\n    tag_27:\n        /* \"FundMe.sol\":1751:1756  owner */\n      0x02\n      0x00\n      swap1\n      sload\n      swap1\n      0x0100\n      exp\n      swap1\n      div\n      0xffffffffffffffffffffffffffffffffffffffff\n      and\n        /* \"FundMe.sol\":1737:1756  msg.sender == owner */\n      0xffffffffffffffffffffffffffffffffffffffff\n      and\n        /* \"FundMe.sol\":1737:1747  msg.sender */\n      caller\n        /* \"FundMe.sol\":1737:1756  msg.sender == owner */\n      0xffffffffffffffffffffffffffffffffffffffff\n      and\n      eq\n        /* \"FundMe.sol\":1729:1802  require(msg.sender == owner, \"this function can only be called by owner\") */\n      tag_56\n      jumpi\n      mload(0x40)\n      0x08c379a000000000000000000000000000000000000000000000000000000000\n      dup2\n      mstore\n      0x04\n      add\n      tag_57\n      swap1\n      tag_58\n      jump\t// in\n    tag_57:\n      mload(0x40)\n      dup1\n      swap2\n      sub\n      swap1\n      revert\n    tag_56:\n        /* \"FundMe.sol\":1820:1828  newOwner */\n      dup1\n        /* \"FundMe.sol\":1812:1817  owner */\n      0x02\n      0x00\n        /* \"FundMe.sol\":1812:1828  owner = newOwner */\n      0x0100\n      exp\n      dup2\n      sload\n      dup2\n      0xffffffffffffffffffffffffffffffffffffffff\n      mul\n      not\n      and\n      swap1\n      dup4\n      0xffffffffffffffffffffffffffffffffffffffff\n      and\n      mul\n      or\n      swap1\n      sstore\n      pop\n        /* \"FundMe.sol\":1667:1835  function transferOwnership(address newOwner) public {... */\n      pop\n      jump\t// out\n        /* \"FundMe.sol\":1459:1661  function convertEthToUsd(uint256 ethAmount) internal view returns(uint256){... */\n    tag_30:\n        /* \"FundMe.sol\":1525:1532  uint256 */\n      0x00\n        /* \"FundMe.sol\":1543:1559  uint256 ethPrice */\n      0x00\n        /* \"FundMe.sol\":1570:1604  getChainlinkDataFeedLatestAnswer() */\n      tag_60\n        /* \"FundMe.sol\":1570:1602  getChainlinkDataFeedLatestAnswer */\n      tag_21\n        /* \"FundMe.sol\":1570:1604  getChainlinkDataFeedLatestAnswer() */\n      jump\t// in\n    tag_60:\n        /* \"FundMe.sol\":1543:1605  uint256 ethPrice = uint256(getChainlinkDataFeedLatestAnswer()) */\n      swap1\n      pop\n        /* \"FundMe.sol\":1646:1653  10 ** 8 */\n      0x05f5e100\n        /* \"FundMe.sol\":1634:1642  ethPrice */\n      dup2\n        /* \"FundMe.sol\":1622:1631  ethAmount */\n      dup5\n        /* \"FundMe.sol\":1622:1642  ethAmount * ethPrice */\n      tag_61\n      swap2\n      swap1\n      tag_62\n      jump\t// in\n    tag_61:\n        /* \"FundMe.sol\":1622:1654  ethAmount * ethPrice / (10 ** 8) */\n      tag_63\n      swap2\n      swap1\n      tag_64\n      jump\t// in\n    tag_63:\n        /* \"FundMe.sol\":1615:1654  return ethAmount * ethPrice / (10 ** 8) */\n      swap2\n      pop\n      pop\n        /* \"FundMe.sol\":1459:1661  function convertEthToUsd(uint256 ethAmount) internal view returns(uint256){... */\n      swap2\n      swap1\n      pop\n      jump\t// out\n        /* \"#utility.yul\":88:205   */\n    tag_66:\n        /* \"#utility.yul\":197:198   */\n      0x00\n        /* \"#utility.yul\":194:195   */\n      0x00\n        /* \"#utility.yul\":187:199   */\n      revert\n        /* \"#utility.yul\":334:460   */\n    tag_68:\n        /* \"#utility.yul\":371:378   */\n      0x00\n        /* \"#utility.yul\":411:453   */\n      0xffffffffffffffffffffffffffffffffffffffff\n        /* \"#utility.yul\":404:409   */\n      dup3\n        /* \"#utility.yul\":400:454   */\n      and\n        /* \"#utility.yul\":389:454   */\n      swap1\n      pop\n        /* \"#utility.yul\":334:460   */\n      swap2\n      swap1\n      pop\n      jump\t// out\n        /* \"#utility.yul\":466:562   */\n    tag_69:\n        /* \"#utility.yul\":503:510   */\n      0x00\n        /* \"#utility.yul\":532:556   */\n      tag_105\n        /* \"#utility.yul\":550:555   */\n      dup3\n        /* \"#utility.yul\":532:556   */\n      tag_68\n      jump\t// in\n    tag_105:\n        /* \"#utility.yul\":521:556   */\n      swap1\n      pop\n        /* \"#utility.yul\":466:562   */\n      swap2\n      swap1\n      pop\n      jump\t// out\n        /* \"#utility.yul\":568:690   */\n    tag_70:\n        /* \"#utility.yul\":641:665   */\n      tag_107\n        /* \"#utility.yul\":659:664   */\n      dup2\n        /* \"#utility.yul\":641:665   */\n      tag_69\n      jump\t// in\n    tag_107:\n        /* \"#utility.yul\":634:639   */\n      dup2\n        /* \"#utility.yul\":631:666   */\n      eq\n        /* \"#utility.yul\":621:684   */\n      tag_108\n      jumpi\n        /* \"#utility.yul\":680:681   */\n      0x00\n        /* \"#utility.yul\":677:678   */\n      0x00\n        /* \"#utility.yul\":670:682   */\n      revert\n        /* \"#utility.yul\":621:684   */\n    tag_108:\n        /* \"#utility.yul\":568:690   */\n      pop\n      jump\t// out\n        /* \"#utility.yul\":696:835   */\n    tag_71:\n        /* \"#utility.yul\":742:747   */\n      0x00\n        /* \"#utility.yul\":780:786   */\n      dup2\n        /* \"#utility.yul\":767:787   */\n      calldataload\n        /* \"#utility.yul\":758:787   */\n      swap1\n      pop\n        /* \"#utility.yul\":796:829   */\n      tag_110\n        /* \"#utility.yul\":823:828   */\n      dup2\n        /* \"#utility.yul\":796:829   */\n      tag_70\n      jump\t// in\n    tag_110:\n        /* \"#utility.yul\":696:835   */\n      swap3\n      swap2\n      pop\n      pop\n      jump\t// out\n        /* \"#utility.yul\":841:1170   */\n    tag_13:\n        /* \"#utility.yul\":900:906   */\n      0x00\n        /* \"#utility.yul\":949:951   */\n      0x20\n        /* \"#utility.yul\":937:946   */\n      dup3\n        /* \"#utility.yul\":928:935   */\n      dup5\n        /* \"#utility.yul\":924:947   */\n      sub\n        /* \"#utility.yul\":920:952   */\n      slt\n        /* \"#utility.yul\":917:1036   */\n      iszero\n      tag_112\n      jumpi\n        /* \"#utility.yul\":955:1034   */\n      tag_113\n      tag_66\n      jump\t// in\n    tag_113:\n        /* \"#utility.yul\":917:1036   */\n    tag_112:\n        /* \"#utility.yul\":1075:1076   */\n      0x00\n        /* \"#utility.yul\":1100:1153   */\n      tag_114\n        /* \"#utility.yul\":1145:1152   */\n      dup5\n        /* \"#utility.yul\":1136:1142   */\n      dup3\n        /* \"#utility.yul\":1125:1134   */\n      dup6\n        /* \"#utility.yul\":1121:1143   */\n      add\n        /* \"#utility.yul\":1100:1153   */\n      tag_71\n      jump\t// in\n    tag_114:\n        /* \"#utility.yul\":1090:1153   */\n      swap2\n      pop\n        /* \"#utility.yul\":1046:1163   */\n      pop\n        /* \"#utility.yul\":841:1170   */\n      swap3\n      swap2\n      pop\n      pop\n      jump\t// out\n        /* \"#utility.yul\":1176:1253   */\n    tag_72:\n        /* \"#utility.yul\":1213:1220   */\n      0x00\n        /* \"#utility.yul\":1242:1247   */\n      dup2\n        /* \"#utility.yul\":1231:1247   */\n      swap1\n      pop\n        /* \"#utility.yul\":1176:1253   */\n      swap2\n      swap1\n      pop\n      jump\t// out\n        /* \"#utility.yul\":1259:1377   */\n    tag_73:\n        /* \"#utility.yul\":1346:1370   */\n      tag_117\n        /* \"#utility.yul\":1364:1369   */\n      dup2\n        /* \"#utility.yul\":1346:1370   */\n      tag_72\n      jump\t// in\n    tag_117:\n        /* \"#utility.yul\":1341:1344   */\n      dup3\n        /* \"#utility.yul\":1334:1371   */\n      mstore\n        /* \"#utility.yul\":1259:1377   */\n      pop\n      pop\n      jump\t// out\n        /* \"#utility.yul\":1383:1605   */\n    tag_16:\n        /* \"#utility.yul\":1476:1480   */\n      0x00\n        /* \"#utility.yul\":1514:1516   */\n      0x20\n        /* \"#utility.yul\":1503:1512   */\n      dup3\n        /* \"#utility.yul\":1499:1517   */\n      add\n        /* \"#utility.yul\":1491:1517   */\n      swap1\n      pop\n        /* \"#utility.yul\":1527:1598   */\n      tag_119\n        /* \"#utility.yul\":1595:1596   */\n      0x00\n        /* \"#utility.yul\":1584:1593   */\n      dup4\n        /* \"#utility.yul\":1580:1597   */\n      add\n        /* \"#utility.yul\":1571:1577   */\n      dup5\n        /* \"#utility.yul\":1527:1598   */\n      tag_73\n      jump\t// in\n    tag_119:\n        /* \"#utility.yul\":1383:1605   */\n      swap3\n      swap2\n      pop\n      pop\n      jump\t// out\n        /* \"#utility.yul\":1611:1687   */\n    tag_74:\n        /* \"#utility.yul\":1647:1654   */\n      0x00\n        /* \"#utility.yul\":1676:1681   */\n      dup2\n        /* \"#utility.yul\":1665:1681   */\n      swap1\n      pop\n        /* \"#utility.yul\":1611:1687   */\n      swap2\n      swap1\n      pop\n      jump\t// out\n        /* \"#utility.yul\":1693:1808   */\n    tag_75:\n        /* \"#utility.yul\":1778:1801   */\n      tag_122\n        /* \"#utility.yul\":1795:1800   */\n      dup2\n        /* \"#utility.yul\":1778:1801   */\n      tag_74\n      jump\t// in\n    tag_122:\n        /* \"#utility.yul\":1773:1776   */\n      dup3\n        /* \"#utility.yul\":1766:1802   */\n      mstore\n        /* \"#utility.yul\":1693:1808   */\n      pop\n      pop\n      jump\t// out\n        /* \"#utility.yul\":1814:2032   */\n    tag_23:\n        /* \"#utility.yul\":1905:1909   */\n      0x00\n        /* \"#utility.yul\":1943:1945   */\n      0x20\n        /* \"#utility.yul\":1932:1941   */\n      dup3\n        /* \"#utility.yul\":1928:1946   */\n      add\n        /* \"#utility.yul\":1920:1946   */\n      swap1\n      pop\n        /* \"#utility.yul\":1956:2025   */\n      tag_124\n        /* \"#utility.yul\":2022:2023   */\n      0x00\n        /* \"#utility.yul\":2011:2020   */\n      dup4\n        /* \"#utility.yul\":2007:2024   */\n      add\n        /* \"#utility.yul\":1998:2004   */\n      dup5\n        /* \"#utility.yul\":1956:2025   */\n      tag_75\n      jump\t// in\n    tag_124:\n        /* \"#utility.yul\":1814:2032   */\n      swap3\n      swap2\n      pop\n      pop\n      jump\t// out\n        /* \"#utility.yul\":2038:2207   */\n    tag_76:\n        /* \"#utility.yul\":2122:2133   */\n      0x00\n        /* \"#utility.yul\":2156:2162   */\n      dup3\n        /* \"#utility.yul\":2151:2154   */\n      dup3\n        /* \"#utility.yul\":2144:2163   */\n      mstore\n        /* \"#utility.yul\":2196:2200   */\n      0x20\n        /* \"#utility.yul\":2191:2194   */\n      dup3\n        /* \"#utility.yul\":2187:2201   */\n      add\n        /* \"#utility.yul\":2172:2201   */\n      swap1\n      pop\n        /* \"#utility.yul\":2038:2207   */\n      swap3\n      swap2\n      pop\n      pop\n      jump\t// out\n        /* \"#utility.yul\":2213:2384   */\n    tag_77:\n        /* \"#utility.yul\":2353:2376   */\n      0x546172676574206973206e6f7420726561636865640000000000000000000000\n        /* \"#utility.yul\":2349:2350   */\n      0x00\n        /* \"#utility.yul\":2341:2347   */\n      dup3\n        /* \"#utility.yul\":2337:2351   */\n      add\n        /* \"#utility.yul\":2330:2377   */\n      mstore\n        /* \"#utility.yul\":2213:2384   */\n      pop\n      jump\t// out\n        /* \"#utility.yul\":2390:2756   */\n    tag_78:\n        /* \"#utility.yul\":2532:2535   */\n      0x00\n        /* \"#utility.yul\":2553:2620   */\n      tag_128\n        /* \"#utility.yul\":2617:2619   */\n      0x15\n        /* \"#utility.yul\":2612:2615   */\n      dup4\n        /* \"#utility.yul\":2553:2620   */\n      tag_76\n      jump\t// in\n    tag_128:\n        /* \"#utility.yul\":2546:2620   */\n      swap2\n      pop\n        /* \"#utility.yul\":2629:2722   */\n      tag_129\n        /* \"#utility.yul\":2718:2721   */\n      dup3\n        /* \"#utility.yul\":2629:2722   */\n      tag_77\n      jump\t// in\n    tag_129:\n        /* \"#utility.yul\":2747:2749   */\n      0x20\n        /* \"#utility.yul\":2742:2745   */\n      dup3\n        /* \"#utility.yul\":2738:2750   */\n      add\n        /* \"#utility.yul\":2731:2750   */\n      swap1\n      pop\n        /* \"#utility.yul\":2390:2756   */\n      swap2\n      swap1\n      pop\n      jump\t// out\n        /* \"#utility.yul\":2762:3181   */\n    tag_33:\n        /* \"#utility.yul\":2928:2932   */\n      0x00\n        /* \"#utility.yul\":2966:2968   */\n      0x20\n        /* \"#utility.yul\":2955:2964   */\n      dup3\n        /* \"#utility.yul\":2951:2969   */\n      add\n        /* \"#utility.yul\":2943:2969   */\n      swap1\n      pop\n        /* \"#utility.yul\":3015:3024   */\n      dup2\n        /* \"#utility.yul\":3009:3013   */\n      dup2\n        /* \"#utility.yul\":3005:3025   */\n      sub\n        /* \"#utility.yul\":3001:3002   */\n      0x00\n        /* \"#utility.yul\":2990:2999   */\n      dup4\n        /* \"#utility.yul\":2986:3003   */\n      add\n        /* \"#utility.yul\":2979:3026   */\n      mstore\n        /* \"#utility.yul\":3043:3174   */\n      tag_131\n        /* \"#utility.yul\":3169:3173   */\n      dup2\n        /* \"#utility.yul\":3043:3174   */\n      tag_78\n      jump\t// in\n    tag_131:\n        /* \"#utility.yul\":3035:3174   */\n      swap1\n      pop\n        /* \"#utility.yul\":2762:3181   */\n      swap2\n      swap1\n      pop\n      jump\t// out\n        /* \"#utility.yul\":3187:3414   */\n    tag_79:\n        /* \"#utility.yul\":3327:3361   */\n      0x746869732066756e6374696e2063616e206f6e6c792062652063616c6c656420\n        /* \"#utility.yul\":3323:3324   */\n      0x00\n        /* \"#utility.yul\":3315:3321   */\n      dup3\n        /* \"#utility.yul\":3311:3325   */\n      add\n        /* \"#utility.yul\":3304:3362   */\n      mstore\n        /* \"#utility.yul\":3396:3406   */\n      0x6279206f776e6572000000000000000000000000000000000000000000000000\n        /* \"#utility.yul\":3391:3393   */\n      0x20\n        /* \"#utility.yul\":3383:3389   */\n      dup3\n        /* \"#utility.yul\":3379:3394   */\n      add\n        /* \"#utility.yul\":3372:3407   */\n      mstore\n        /* \"#utility.yul\":3187:3414   */\n      pop\n      jump\t// out\n        /* \"#utility.yul\":3420:3786   */\n    tag_80:\n        /* \"#utility.yul\":3562:3565   */\n      0x00\n        /* \"#utility.yul\":3583:3650   */\n      tag_134\n        /* \"#utility.yul\":3647:3649   */\n      0x28\n        /* \"#utility.yul\":3642:3645   */\n      dup4\n        /* \"#utility.yul\":3583:3650   */\n      tag_76\n      jump\t// in\n    tag_134:\n        /* \"#utility.yul\":3576:3650   */\n      swap2\n      pop\n        /* \"#utility.yul\":3659:3752   */\n      tag_135\n        /* \"#utility.yul\":3748:3751   */\n      dup3\n        /* \"#utility.yul\":3659:3752   */\n      tag_79\n      jump\t// in\n    tag_135:\n        /* \"#utility.yul\":3777:3779   */\n      0x40\n        /* \"#utility.yul\":3772:3775   */\n      dup3\n        /* \"#utility.yul\":3768:3780   */\n      add\n        /* \"#utility.yul\":3761:3780   */\n      swap1\n      pop\n        /* \"#utility.yul\":3420:3786   */\n      swap2\n      swap1\n      pop\n      jump\t// out\n        /* \"#utility.yul\":3792:4211   */\n    tag_36:\n        /* \"#utility.yul\":3958:3962   */\n      0x00\n        /* \"#utility.yul\":3996:3998   */\n      0x20\n        /* \"#utility.yul\":3985:3994   */\n      dup3\n        /* \"#utility.yul\":3981:3999   */\n      add\n        /* \"#utility.yul\":3973:3999   */\n      swap1\n      pop\n        /* \"#utility.yul\":4045:4054   */\n      dup2\n        /* \"#utility.yul\":4039:4043   */\n      dup2\n        /* \"#utility.yul\":4035:4055   */\n      sub\n        /* \"#utility.yul\":4031:4032   */\n      0x00\n        /* \"#utility.yul\":4020:4029   */\n      dup4\n        /* \"#utility.yul\":4016:4033   */\n      add\n        /* \"#utility.yul\":4009:4056   */\n      mstore\n        /* \"#utility.yul\":4073:4204   */\n      tag_137\n        /* \"#utility.yul\":4199:4203   */\n      dup2\n        /* \"#utility.yul\":4073:4204   */\n      tag_80\n      jump\t// in\n    tag_137:\n        /* \"#utility.yul\":4065:4204   */\n      swap1\n      pop\n        /* \"#utility.yul\":3792:4211   */\n      swap2\n      swap1\n      pop\n      jump\t// out\n        /* \"#utility.yul\":4217:4364   */\n    tag_81:\n        /* \"#utility.yul\":4318:4329   */\n      0x00\n        /* \"#utility.yul\":4355:4358   */\n      dup2\n        /* \"#utility.yul\":4340:4358   */\n      swap1\n      pop\n        /* \"#utility.yul\":4217:4364   */\n      swap3\n      swap2\n      pop\n      pop\n      jump\t// out\n        /* \"#utility.yul\":4370:4484   */\n    tag_82:\n      pop\n      jump\t// out\n        /* \"#utility.yul\":4490:4888   */\n    tag_83:\n        /* \"#utility.yul\":4649:4652   */\n      0x00\n        /* \"#utility.yul\":4670:4753   */\n      tag_141\n        /* \"#utility.yul\":4751:4752   */\n      0x00\n        /* \"#utility.yul\":4746:4749   */\n      dup4\n        /* \"#utility.yul\":4670:4753   */\n      tag_81\n      jump\t// in\n    tag_141:\n        /* \"#utility.yul\":4663:4753   */\n      swap2\n      pop\n        /* \"#utility.yul\":4762:4855   */\n      tag_142\n        /* \"#utility.yul\":4851:4854   */\n      dup3\n        /* \"#utility.yul\":4762:4855   */\n      tag_82\n      jump\t// in\n    tag_142:\n        /* \"#utility.yul\":4880:4881   */\n      0x00\n        /* \"#utility.yul\":4875:4878   */\n      dup3\n        /* \"#utility.yul\":4871:4882   */\n      add\n        /* \"#utility.yul\":4864:4882   */\n      swap1\n      pop\n        /* \"#utility.yul\":4490:4888   */\n      swap2\n      swap1\n      pop\n      jump\t// out\n        /* \"#utility.yul\":4894:5273   */\n    tag_38:\n        /* \"#utility.yul\":5078:5081   */\n      0x00\n        /* \"#utility.yul\":5100:5247   */\n      tag_144\n        /* \"#utility.yul\":5243:5246   */\n      dup3\n        /* \"#utility.yul\":5100:5247   */\n      tag_83\n      jump\t// in\n    tag_144:\n        /* \"#utility.yul\":5093:5247   */\n      swap2\n      pop\n        /* \"#utility.yul\":5264:5267   */\n      dup2\n        /* \"#utility.yul\":5257:5267   */\n      swap1\n      pop\n        /* \"#utility.yul\":4894:5273   */\n      swap2\n      swap1\n      pop\n      jump\t// out\n        /* \"#utility.yul\":5279:5444   */\n    tag_84:\n        /* \"#utility.yul\":5419:5436   */\n      0x5472616e73666572206661696c65640000000000000000000000000000000000\n        /* \"#utility.yul\":5415:5416   */\n      0x00\n        /* \"#utility.yul\":5407:5413   */\n      dup3\n        /* \"#utility.yul\":5403:5417   */\n      add\n        /* \"#utility.yul\":5396:5437   */\n      mstore\n        /* \"#utility.yul\":5279:5444   */\n      pop\n      jump\t// out\n        /* \"#utility.yul\":5450:5816   */\n    tag_85:\n        /* \"#utility.yul\":5592:5595   */\n      0x00\n        /* \"#utility.yul\":5613:5680   */\n      tag_147\n        /* \"#utility.yul\":5677:5679   */\n      0x0f\n        /* \"#utility.yul\":5672:5675   */\n      dup4\n        /* \"#utility.yul\":5613:5680   */\n      tag_76\n      jump\t// in\n    tag_147:\n        /* \"#utility.yul\":5606:5680   */\n      swap2\n      pop\n        /* \"#utility.yul\":5689:5782   */\n      tag_148\n        /* \"#utility.yul\":5778:5781   */\n      dup3\n        /* \"#utility.yul\":5689:5782   */\n      tag_84\n      jump\t// in\n    tag_148:\n        /* \"#utility.yul\":5807:5809   */\n      0x20\n        /* \"#utility.yul\":5802:5805   */\n      dup3\n        /* \"#utility.yul\":5798:5810   */\n      add\n        /* \"#utility.yul\":5791:5810   */\n      swap1\n      pop\n        /* \"#utility.yul\":5450:5816   */\n      swap2\n      swap1\n      pop\n      jump\t// out\n        /* \"#utility.yul\":5822:6241   */\n    tag_44:\n        /* \"#utility.yul\":5988:5992   */\n      0x00\n        /* \"#utility.yul\":6026:6028   */\n      0x20\n        /* \"#utility.yul\":6015:6024   */\n      dup3\n        /* \"#utility.yul\":6011:6029   */\n      add\n        /* \"#utility.yul\":6003:6029   */\n      swap1\n      pop\n        /* \"#utility.yul\":6075:6084   */\n      dup2\n        /* \"#utility.yul\":6069:6073   */\n      dup2\n        /* \"#utility.yul\":6065:6085   */\n      sub\n        /* \"#utility.yul\":6061:6062   */\n      0x00\n        /* \"#utility.yul\":6050:6059   */\n      dup4\n        /* \"#utility.yul\":6046:6063   */\n      add\n        /* \"#utility.yul\":6039:6086   */\n      mstore\n        /* \"#utility.yul\":6103:6234   */\n      tag_150\n        /* \"#utility.yul\":6229:6233   */\n      dup2\n        /* \"#utility.yul\":6103:6234   */\n      tag_85\n      jump\t// in\n    tag_150:\n        /* \"#utility.yul\":6095:6234   */\n      swap1\n      pop\n        /* \"#utility.yul\":5822:6241   */\n      swap2\n      swap1\n      pop\n      jump\t// out\n        /* \"#utility.yul\":6247:6410   */\n    tag_86:\n        /* \"#utility.yul\":6387:6402   */\n      0x53656e64206d6f72652045544800000000000000000000000000000000000000\n        /* \"#utility.yul\":6383:6384   */\n      0x00\n        /* \"#utility.yul\":6375:6381   */\n      dup3\n        /* \"#utility.yul\":6371:6385   */\n      add\n        /* \"#utility.yul\":6364:6403   */\n      mstore\n        /* \"#utility.yul\":6247:6410   */\n      pop\n      jump\t// out\n        /* \"#utility.yul\":6416:6782   */\n    tag_87:\n        /* \"#utility.yul\":6558:6561   */\n      0x00\n        /* \"#utility.yul\":6579:6646   */\n      tag_153\n        /* \"#utility.yul\":6643:6645   */\n      0x0d\n        /* \"#utility.yul\":6638:6641   */\n      dup4\n        /* \"#utility.yul\":6579:6646   */\n      tag_76\n      jump\t// in\n    tag_153:\n        /* \"#utility.yul\":6572:6646   */\n      swap2\n      pop\n        /* \"#utility.yul\":6655:6748   */\n      tag_154\n        /* \"#utility.yul\":6744:6747   */\n      dup3\n        /* \"#utility.yul\":6655:6748   */\n      tag_86\n      jump\t// in\n    tag_154:\n        /* \"#utility.yul\":6773:6775   */\n      0x20\n        /* \"#utility.yul\":6768:6771   */\n      dup3\n        /* \"#utility.yul\":6764:6776   */\n      add\n        /* \"#utility.yul\":6757:6776   */\n      swap1\n      pop\n        /* \"#utility.yul\":6416:6782   */\n      swap2\n      swap1\n      pop\n      jump\t// out\n        /* \"#utility.yul\":6788:7207   */\n    tag_49:\n        /* \"#utility.yul\":6954:6958   */\n      0x00\n        /* \"#utility.yul\":6992:6994   */\n      0x20\n        /* \"#utility.yul\":6981:6990   */\n      dup3\n        /* \"#utility.yul\":6977:6995   */\n      add\n        /* \"#utility.yul\":6969:6995   */\n      swap1\n      pop\n        /* \"#utility.yul\":7041:7050   */\n      dup2\n        /* \"#utility.yul\":7035:7039   */\n      dup2\n        /* \"#utility.yul\":7031:7051   */\n      sub\n        /* \"#utility.yul\":7027:7028   */\n      0x00\n        /* \"#utility.yul\":7016:7025   */\n      dup4\n        /* \"#utility.yul\":7012:7029   */\n      add\n        /* \"#utility.yul\":7005:7052   */\n      mstore\n        /* \"#utility.yul\":7069:7200   */\n      tag_156\n        /* \"#utility.yul\":7195:7199   */\n      dup2\n        /* \"#utility.yul\":7069:7200   */\n      tag_87\n      jump\t// in\n    tag_156:\n        /* \"#utility.yul\":7061:7200   */\n      swap1\n      pop\n        /* \"#utility.yul\":6788:7207   */\n      swap2\n      swap1\n      pop\n      jump\t// out\n        /* \"#utility.yul\":7213:7318   */\n    tag_88:\n        /* \"#utility.yul\":7249:7256   */\n      0x00\n        /* \"#utility.yul\":7289:7311   */\n      0xffffffffffffffffffff\n        /* \"#utility.yul\":7282:7287   */\n      dup3\n        /* \"#utility.yul\":7278:7312   */\n      and\n        /* \"#utility.yul\":7267:7312   */\n      swap1\n      pop\n        /* \"#utility.yul\":7213:7318   */\n      swap2\n      swap1\n      pop\n      jump\t// out\n        /* \"#utility.yul\":7324:7444   */\n    tag_89:\n        /* \"#utility.yul\":7396:7419   */\n      tag_159\n        /* \"#utility.yul\":7413:7418   */\n      dup2\n        /* \"#utility.yul\":7396:7419   */\n      tag_88\n      jump\t// in\n    tag_159:\n        /* \"#utility.yul\":7389:7394   */\n      dup2\n        /* \"#utility.yul\":7386:7420   */\n      eq\n        /* \"#utility.yul\":7376:7438   */\n      tag_160\n      jumpi\n        /* \"#utility.yul\":7434:7435   */\n      0x00\n        /* \"#utility.yul\":7431:7432   */\n      0x00\n        /* \"#utility.yul\":7424:7436   */\n      revert\n        /* \"#utility.yul\":7376:7438   */\n    tag_160:\n        /* \"#utility.yul\":7324:7444   */\n      pop\n      jump\t// out\n        /* \"#utility.yul\":7450:7591   */\n    tag_90:\n        /* \"#utility.yul\":7506:7511   */\n      0x00\n        /* \"#utility.yul\":7537:7543   */\n      dup2\n        /* \"#utility.yul\":7531:7544   */\n      mload\n        /* \"#utility.yul\":7522:7544   */\n      swap1\n      pop\n        /* \"#utility.yul\":7553:7585   */\n      tag_162\n        /* \"#utility.yul\":7579:7584   */\n      dup2\n        /* \"#utility.yul\":7553:7585   */\n      tag_89\n      jump\t// in\n    tag_162:\n        /* \"#utility.yul\":7450:7591   */\n      swap3\n      swap2\n      pop\n      pop\n      jump\t// out\n        /* \"#utility.yul\":7597:7717   */\n    tag_91:\n        /* \"#utility.yul\":7669:7692   */\n      tag_164\n        /* \"#utility.yul\":7686:7691   */\n      dup2\n        /* \"#utility.yul\":7669:7692   */\n      tag_74\n      jump\t// in\n    tag_164:\n        /* \"#utility.yul\":7662:7667   */\n      dup2\n        /* \"#utility.yul\":7659:7693   */\n      eq\n        /* \"#utility.yul\":7649:7711   */\n      tag_165\n      jumpi\n        /* \"#utility.yul\":7707:7708   */\n      0x00\n        /* \"#utility.yul\":7704:7705   */\n      0x00\n        /* \"#utility.yul\":7697:7709   */\n      revert\n        /* \"#utility.yul\":7649:7711   */\n    tag_165:\n        /* \"#utility.yul\":7597:7717   */\n      pop\n      jump\t// out\n        /* \"#utility.yul\":7723:7864   */\n    tag_92:\n        /* \"#utility.yul\":7779:7784   */\n      0x00\n        /* \"#utility.yul\":7810:7816   */\n      dup2\n        /* \"#utility.yul\":7804:7817   */\n      mload\n        /* \"#utility.yul\":7795:7817   */\n      swap1\n      pop\n        /* \"#utility.yul\":7826:7858   */\n      tag_167\n        /* \"#utility.yul\":7852:7857   */\n      dup2\n        /* \"#utility.yul\":7826:7858   */\n      tag_91\n      jump\t// in\n    tag_167:\n        /* \"#utility.yul\":7723:7864   */\n      swap3\n      swap2\n      pop\n      pop\n      jump\t// out\n        /* \"#utility.yul\":7870:7992   */\n    tag_93:\n        /* \"#utility.yul\":7943:7967   */\n      tag_169\n        /* \"#utility.yul\":7961:7966   */\n      dup2\n        /* \"#utility.yul\":7943:7967   */\n      tag_72\n      jump\t// in\n    tag_169:\n        /* \"#utility.yul\":7936:7941   */\n      dup2\n        /* \"#utility.yul\":7933:7968   */\n      eq\n        /* \"#utility.yul\":7923:7986   */\n      tag_170\n      jumpi\n        /* \"#utility.yul\":7982:7983   */\n      0x00\n        /* \"#utility.yul\":7979:7980   */\n      0x00\n        /* \"#utility.yul\":7972:7984   */\n      revert\n        /* \"#utility.yul\":7923:7986   */\n    tag_170:\n        /* \"#utility.yul\":7870:7992   */\n      pop\n      jump\t// out\n        /* \"#utility.yul\":7998:8141   */\n    tag_94:\n        /* \"#utility.yul\":8055:8060   */\n      0x00\n        /* \"#utility.yul\":8086:8092   */\n      dup2\n        /* \"#utility.yul\":8080:8093   */\n      mload\n        /* \"#utility.yul\":8071:8093   */\n      swap1\n      pop\n        /* \"#utility.yul\":8102:8135   */\n      tag_172\n        /* \"#utility.yul\":8129:8134   */\n      dup2\n        /* \"#utility.yul\":8102:8135   */\n      tag_93\n      jump\t// in\n    tag_172:\n        /* \"#utility.yul\":7998:8141   */\n      swap3\n      swap2\n      pop\n      pop\n      jump\t// out\n        /* \"#utility.yul\":8147:9118   */\n    tag_54:\n        /* \"#utility.yul\":8250:8256   */\n      0x00\n        /* \"#utility.yul\":8258:8264   */\n      0x00\n        /* \"#utility.yul\":8266:8272   */\n      0x00\n        /* \"#utility.yul\":8274:8280   */\n      0x00\n        /* \"#utility.yul\":8282:8288   */\n      0x00\n        /* \"#utility.yul\":8331:8334   */\n      0xa0\n        /* \"#utility.yul\":8319:8328   */\n      dup7\n        /* \"#utility.yul\":8310:8317   */\n      dup9\n        /* \"#utility.yul\":8306:8329   */\n      sub\n        /* \"#utility.yul\":8302:8335   */\n      slt\n        /* \"#utility.yul\":8299:8419   */\n      iszero\n      tag_174\n      jumpi\n        /* \"#utility.yul\":8338:8417   */\n      tag_175\n      tag_66\n      jump\t// in\n    tag_175:\n        /* \"#utility.yul\":8299:8419   */\n    tag_174:\n        /* \"#utility.yul\":8458:8459   */\n      0x00\n        /* \"#utility.yul\":8483:8546   */\n      tag_176\n        /* \"#utility.yul\":8538:8545   */\n      dup9\n        /* \"#utility.yul\":8529:8535   */\n      dup3\n        /* \"#utility.yul\":8518:8527   */\n      dup10\n        /* \"#utility.yul\":8514:8536   */\n      add\n        /* \"#utility.yul\":8483:8546   */\n      tag_90\n      jump\t// in\n    tag_176:\n        /* \"#utility.yul\":8473:8546   */\n      swap6\n      pop\n        /* \"#utility.yul\":8429:8556   */\n      pop\n        /* \"#utility.yul\":8595:8597   */\n      0x20\n        /* \"#utility.yul\":8621:8684   */\n      tag_177\n        /* \"#utility.yul\":8676:8683   */\n      dup9\n        /* \"#utility.yul\":8667:8673   */\n      dup3\n        /* \"#utility.yul\":8656:8665   */\n      dup10\n        /* \"#utility.yul\":8652:8674   */\n      add\n        /* \"#utility.yul\":8621:8684   */\n      tag_92\n      jump\t// in\n    tag_177:\n        /* \"#utility.yul\":8611:8684   */\n      swap5\n      pop\n        /* \"#utility.yul\":8566:8694   */\n      pop\n        /* \"#utility.yul\":8733:8735   */\n      0x40\n        /* \"#utility.yul\":8759:8823   */\n      tag_178\n        /* \"#utility.yul\":8815:8822   */\n      dup9\n        /* \"#utility.yul\":8806:8812   */\n      dup3\n        /* \"#utility.yul\":8795:8804   */\n      dup10\n        /* \"#utility.yul\":8791:8813   */\n      add\n        /* \"#utility.yul\":8759:8823   */\n      tag_94\n      jump\t// in\n    tag_178:\n        /* \"#utility.yul\":8749:8823   */\n      swap4\n      pop\n        /* \"#utility.yul\":8704:8833   */\n      pop\n        /* \"#utility.yul\":8872:8874   */\n      0x60\n        /* \"#utility.yul\":8898:8962   */\n      tag_179\n        /* \"#utility.yul\":8954:8961   */\n      dup9\n        /* \"#utility.yul\":8945:8951   */\n      dup3\n        /* \"#utility.yul\":8934:8943   */\n      dup10\n        /* \"#utility.yul\":8930:8952   */\n      add\n        /* \"#utility.yul\":8898:8962   */\n      tag_94\n      jump\t// in\n    tag_179:\n        /* \"#utility.yul\":8888:8962   */\n      swap3\n      pop\n        /* \"#utility.yul\":8843:8972   */\n      pop\n        /* \"#utility.yul\":9011:9014   */\n      0x80\n        /* \"#utility.yul\":9038:9101   */\n      tag_180\n        /* \"#utility.yul\":9093:9100   */\n      dup9\n        /* \"#utility.yul\":9084:9090   */\n      dup3\n        /* \"#utility.yul\":9073:9082   */\n      dup10\n        /* \"#utility.yul\":9069:9091   */\n      add\n        /* \"#utility.yul\":9038:9101   */\n      tag_90\n      jump\t// in\n    tag_180:\n        /* \"#utility.yul\":9028:9101   */\n      swap2\n      pop\n        /* \"#utility.yul\":8982:9111   */\n      pop\n        /* \"#utility.yul\":8147:9118   */\n      swap3\n      swap6\n      pop\n      swap3\n      swap6\n      swap1\n      swap4\n      pop\n      jump\t// out\n        /* \"#utility.yul\":9124:9352   */\n    tag_95:\n        /* \"#utility.yul\":9264:9298   */\n      0x746869732066756e6374696f6e2063616e206f6e6c792062652063616c6c6564\n        /* \"#utility.yul\":9260:9261   */\n      0x00\n        /* \"#utility.yul\":9252:9258   */\n      dup3\n        /* \"#utility.yul\":9248:9262   */\n      add\n        /* \"#utility.yul\":9241:9299   */\n      mstore\n        /* \"#utility.yul\":9333:9344   */\n      0x206279206f776e65720000000000000000000000000000000000000000000000\n        /* \"#utility.yul\":9328:9330   */\n      0x20\n        /* \"#utility.yul\":9320:9326   */\n      dup3\n        /* \"#utility.yul\":9316:9331   */\n      add\n        /* \"#utility.yul\":9309:9345   */\n      mstore\n        /* \"#utility.yul\":9124:9352   */\n      pop\n      jump\t// out\n        /* \"#utility.yul\":9358:9724   */\n    tag_96:\n        /* \"#utility.yul\":9500:9503   */\n      0x00\n        /* \"#utility.yul\":9521:9588   */\n      tag_183\n        /* \"#utility.yul\":9585:9587   */\n      0x29\n        /* \"#utility.yul\":9580:9583   */\n      dup4\n        /* \"#utility.yul\":9521:9588   */\n      tag_76\n      jump\t// in\n    tag_183:\n        /* \"#utility.yul\":9514:9588   */\n      swap2\n      pop\n        /* \"#utility.yul\":9597:9690   */\n      tag_184\n        /* \"#utility.yul\":9686:9689   */\n      dup3\n        /* \"#utility.yul\":9597:9690   */\n      tag_95\n      jump\t// in\n    tag_184:\n        /* \"#utility.yul\":9715:9717   */\n      0x40\n        /* \"#utility.yul\":9710:9713   */\n      dup3\n        /* \"#utility.yul\":9706:9718   */\n      add\n        /* \"#utility.yul\":9699:9718   */\n      swap1\n      pop\n        /* \"#utility.yul\":9358:9724   */\n      swap2\n      swap1\n      pop\n      jump\t// out\n        /* \"#utility.yul\":9730:10149   */\n    tag_58:\n        /* \"#utility.yul\":9896:9900   */\n      0x00\n        /* \"#utility.yul\":9934:9936   */\n      0x20\n        /* \"#utility.yul\":9923:9932   */\n      dup3\n        /* \"#utility.yul\":9919:9937   */\n      add\n        /* \"#utility.yul\":9911:9937   */\n      swap1\n      pop\n        /* \"#utility.yul\":9983:9992   */\n      dup2\n        /* \"#utility.yul\":9977:9981   */\n      dup2\n        /* \"#utility.yul\":9973:9993   */\n      sub\n        /* \"#utility.yul\":9969:9970   */\n      0x00\n        /* \"#utility.yul\":9958:9967   */\n      dup4\n        /* \"#utility.yul\":9954:9971   */\n      add\n        /* \"#utility.yul\":9947:9994   */\n      mstore\n        /* \"#utility.yul\":10011:10142   */\n      tag_186\n        /* \"#utility.yul\":10137:10141   */\n      dup2\n        /* \"#utility.yul\":10011:10142   */\n      tag_96\n      jump\t// in\n    tag_186:\n        /* \"#utility.yul\":10003:10142   */\n      swap1\n      pop\n        /* \"#utility.yul\":9730:10149   */\n      swap2\n      swap1\n      pop\n      jump\t// out\n        /* \"#utility.yul\":10155:10335   */\n    tag_97:\n        /* \"#utility.yul\":10203:10280   */\n      0x4e487b7100000000000000000000000000000000000000000000000000000000\n        /* \"#utility.yul\":10200:10201   */\n      0x00\n        /* \"#utility.yul\":10193:10281   */\n      mstore\n        /* \"#utility.yul\":10300:10304   */\n      0x11\n        /* \"#utility.yul\":10297:10298   */\n      0x04\n        /* \"#utility.yul\":10290:10305   */\n      mstore\n        /* \"#utility.yul\":10324:10328   */\n      0x24\n        /* \"#utility.yul\":10321:10322   */\n      0x00\n        /* \"#utility.yul\":10314:10329   */\n      revert\n        /* \"#utility.yul\":10341:10751   */\n    tag_62:\n        /* \"#utility.yul\":10381:10388   */\n      0x00\n        /* \"#utility.yul\":10404:10424   */\n      tag_189\n        /* \"#utility.yul\":10422:10423   */\n      dup3\n        /* \"#utility.yul\":10404:10424   */\n      tag_72\n      jump\t// in\n    tag_189:\n        /* \"#utility.yul\":10399:10424   */\n      swap2\n      pop\n        /* \"#utility.yul\":10438:10458   */\n      tag_190\n        /* \"#utility.yul\":10456:10457   */\n      dup4\n        /* \"#utility.yul\":10438:10458   */\n      tag_72\n      jump\t// in\n    tag_190:\n        /* \"#utility.yul\":10433:10458   */\n      swap3\n      pop\n        /* \"#utility.yul\":10493:10494   */\n      dup3\n        /* \"#utility.yul\":10490:10491   */\n      dup3\n        /* \"#utility.yul\":10486:10495   */\n      mul\n        /* \"#utility.yul\":10515:10545   */\n      tag_191\n        /* \"#utility.yul\":10533:10544   */\n      dup2\n        /* \"#utility.yul\":10515:10545   */\n      tag_72\n      jump\t// in\n    tag_191:\n        /* \"#utility.yul\":10504:10545   */\n      swap2\n      pop\n        /* \"#utility.yul\":10694:10695   */\n      dup3\n        /* \"#utility.yul\":10685:10692   */\n      dup3\n        /* \"#utility.yul\":10681:10696   */\n      div\n        /* \"#utility.yul\":10678:10679   */\n      dup5\n        /* \"#utility.yul\":10675:10697   */\n      eq\n        /* \"#utility.yul\":10655:10656   */\n      dup4\n        /* \"#utility.yul\":10648:10657   */\n      iszero\n        /* \"#utility.yul\":10628:10711   */\n      or\n        /* \"#utility.yul\":10605:10744   */\n      tag_192\n      jumpi\n        /* \"#utility.yul\":10724:10742   */\n      tag_193\n      tag_97\n      jump\t// in\n    tag_193:\n        /* \"#utility.yul\":10605:10744   */\n    tag_192:\n        /* \"#utility.yul\":10389:10751   */\n      pop\n        /* \"#utility.yul\":10341:10751   */\n      swap3\n      swap2\n      pop\n      pop\n      jump\t// out\n        /* \"#utility.yul\":10757:10937   */\n    tag_98:\n        /* \"#utility.yul\":10805:10882   */\n      0x4e487b7100000000000000000000000000000000000000000000000000000000\n        /* \"#utility.yul\":10802:10803   */\n      0x00\n        /* \"#utility.yul\":10795:10883   */\n      mstore\n        /* \"#utility.yul\":10902:10906   */\n      0x12\n        /* \"#utility.yul\":10899:10900   */\n      0x04\n        /* \"#utility.yul\":10892:10907   */\n      mstore\n        /* \"#utility.yul\":10926:10930   */\n      0x24\n        /* \"#utility.yul\":10923:10924   */\n      0x00\n        /* \"#utility.yul\":10916:10931   */\n      revert\n        /* \"#utility.yul\":10943:11128   */\n    tag_64:\n        /* \"#utility.yul\":10983:10984   */\n      0x00\n        /* \"#utility.yul\":11000:11020   */\n      tag_196\n        /* \"#utility.yul\":11018:11019   */\n      dup3\n        /* \"#utility.yul\":11000:11020   */\n      tag_72\n      jump\t// in\n    tag_196:\n        /* \"#utility.yul\":10995:11020   */\n      swap2\n      pop\n        /* \"#utility.yul\":11034:11054   */\n      tag_197\n        /* \"#utility.yul\":11052:11053   */\n      dup4\n        /* \"#utility.yul\":11034:11054   */\n      tag_72\n      jump\t// in\n    tag_197:\n        /* \"#utility.yul\":11029:11054   */\n      swap3\n      pop\n        /* \"#utility.yul\":11073:11074   */\n      dup3\n        /* \"#utility.yul\":11063:11098   */\n      tag_198\n      jumpi\n        /* \"#utility.yul\":11078:11096   */\n      tag_199\n      tag_98\n      jump\t// in\n    tag_199:\n        /* \"#utility.yul\":11063:11098   */\n    tag_198:\n        /* \"#utility.yul\":11120:11121   */\n      dup3\n        /* \"#utility.yul\":11117:11118   */\n      dup3\n        /* \"#utility.yul\":11113:11122   */\n      div\n        /* \"#utility.yul\":11108:11122   */\n      swap1\n      pop\n        /* \"#utility.yul\":10943:11128   */\n      swap3\n      swap2\n      pop\n      pop\n      jump\t// out\n\n    auxdata: 0xa26469706673582212200101fb9dc1ecd76107acbe45fe35e8653dbddf762bc0038a39174708ff30755e64736f6c634300081f0033\n}\n",
				"bytecode": {
					"linkReferences": {},
					"object": "6080604052348015600e575f5ffd5b5073694aa1769357215de4fac081bf1f309adc32530660015f6101000a81548173ffffffffffffffffffffffffffffffffffffffff021916908373ffffffffffffffffffffffffffffffffffffffff160217905550610a6d806100705f395ff3fe608060405260043610610049575f3560e01c80638edd6eb61461004d5780639f883a0514610063578063b60d42881461009f578063bea4dfb5146100a9578063f2fde38b146100d3575b5f5ffd5b348015610058575f5ffd5b506100616100fb565b005b34801561006e575f5ffd5b5061008960048036038101906100849190610530565b610289565b6040516100969190610573565b60405180910390f35b6100a761029d565b005b3480156100b4575f5ffd5b506100bd610334565b6040516100ca91906105a4565b60405180910390f35b3480156100de575f5ffd5b506100f960048036038101906100f49190610530565b6103d1565b005b683635c9adc5dea0000061010e476104a3565b101561014f576040517f08c379a000000000000000000000000000000000000000000000000000000000815260040161014690610617565b60405180910390fd5b60025f9054906101000a900473ffffffffffffffffffffffffffffffffffffffff1673ffffffffffffffffffffffffffffffffffffffff163373ffffffffffffffffffffffffffffffffffffffff16146101de576040517f08c379a00000000000000000000000000000000000000000000000000000000081526004016101d5906106a5565b60405180910390fd5b5f3373ffffffffffffffffffffffffffffffffffffffff1647604051610203906106f0565b5f6040518083038185875af1925050503d805f811461023d576040519150601f19603f3d011682016040523d82523d5f602084013e610242565b606091505b5050905080610286576040517f08c379a000000000000000000000000000000000000000000000000000000000815260040161027d9061074e565b60405180910390fd5b50565b5f602052805f5260405f205f915090505481565b68056bc75e2d631000006102b0346104a3565b10156102f1576040517f08c379a00000000000000000000000000000000000000000000000000000000081526004016102e8906107b6565b60405180910390fd5b345f5f3373ffffffffffffffffffffffffffffffffffffffff1673ffffffffffffffffffffffffffffffffffffffff1681526020019081526020015f2081905550565b5f5f60015f9054906101000a900473ffffffffffffffffffffffffffffffffffffffff1673ffffffffffffffffffffffffffffffffffffffff1663feaf968c6040518163ffffffff1660e01b815260040160a060405180830381865afa1580156103a0573d5f5f3e3d5ffd5b505050506040513d601f19601f820116820180604052508101906103c49190610867565b5050509150508091505090565b60025f9054906101000a900473ffffffffffffffffffffffffffffffffffffffff1673ffffffffffffffffffffffffffffffffffffffff163373ffffffffffffffffffffffffffffffffffffffff1614610460576040517f08c379a00000000000000000000000000000000000000000000000000000000081526004016104579061094e565b60405180910390fd5b8060025f6101000a81548173ffffffffffffffffffffffffffffffffffffffff021916908373ffffffffffffffffffffffffffffffffffffffff16021790555050565b5f5f6104ad610334565b90506305f5e10081846104c09190610999565b6104ca9190610a07565b915050919050565b5f5ffd5b5f73ffffffffffffffffffffffffffffffffffffffff82169050919050565b5f6104ff826104d6565b9050919050565b61050f816104f5565b8114610519575f5ffd5b50565b5f8135905061052a81610506565b92915050565b5f60208284031215610545576105446104d2565b5b5f6105528482850161051c565b91505092915050565b5f819050919050565b61056d8161055b565b82525050565b5f6020820190506105865f830184610564565b92915050565b5f819050919050565b61059e8161058c565b82525050565b5f6020820190506105b75f830184610595565b92915050565b5f82825260208201905092915050565b7f546172676574206973206e6f74207265616368656400000000000000000000005f82015250565b5f6106016015836105bd565b915061060c826105cd565b602082019050919050565b5f6020820190508181035f83015261062e816105f5565b9050919050565b7f746869732066756e6374696e2063616e206f6e6c792062652063616c6c6564205f8201527f6279206f776e6572000000000000000000000000000000000000000000000000602082015250565b5f61068f6028836105bd565b915061069a82610635565b604082019050919050565b5f6020820190508181035f8301526106bc81610683565b9050919050565b5f81905092915050565b50565b5f6106db5f836106c3565b91506106e6826106cd565b5f82019050919050565b5f6106fa826106d0565b9150819050919050565b7f5472616e73666572206661696c656400000000000000000000000000000000005f82015250565b5f610738600f836105bd565b915061074382610704565b602082019050919050565b5f6020820190508181035f8301526107658161072c565b9050919050565b7f53656e64206d6f726520455448000000000000000000000000000000000000005f82015250565b5f6107a0600d836105bd565b91506107ab8261076c565b602082019050919050565b5f6020820190508181035f8301526107cd81610794565b9050919050565b5f69ffffffffffffffffffff82169050919050565b6107f2816107d4565b81146107fc575f5ffd5b50565b5f8151905061080d816107e9565b92915050565b61081c8161058c565b8114610826575f5ffd5b50565b5f8151905061083781610813565b92915050565b6108468161055b565b8114610850575f5ffd5b50565b5f815190506108618161083d565b92915050565b5f5f5f5f5f60a086880312156108805761087f6104d2565b5b5f61088d888289016107ff565b955050602061089e88828901610829565b94505060406108af88828901610853565b93505060606108c088828901610853565b92505060806108d1888289016107ff565b9150509295509295909350565b7f746869732066756e6374696f6e2063616e206f6e6c792062652063616c6c65645f8201527f206279206f776e65720000000000000000000000000000000000000000000000602082015250565b5f6109386029836105bd565b9150610943826108de565b604082019050919050565b5f6020820190508181035f8301526109658161092c565b9050919050565b7f4e487b71000000000000000000000000000000000000000000000000000000005f52601160045260245ffd5b5f6109a38261055b565b91506109ae8361055b565b92508282026109bc8161055b565b915082820484148315176109d3576109d261096c565b5b5092915050565b7f4e487b71000000000000000000000000000000000000000000000000000000005f52601260045260245ffd5b5f610a118261055b565b9150610a1c8361055b565b925082610a2c57610a2b6109da565b5b82820490509291505056fea26469706673582212200101fb9dc1ecd76107acbe45fe35e8653dbddf762bc0038a39174708ff30755e64736f6c634300081f0033",
					"opcodes": "PUSH1 0x80 PUSH1 0x40 MSTORE CALLVALUE DUP1 ISZERO PUSH1 0xE JUMPI PUSH0 PUSH0 REVERT JUMPDEST POP PUSH20 0x694AA1769357215DE4FAC081BF1F309ADC325306 PUSH1 0x1 PUSH0 PUSH2 0x100 EXP DUP2 SLOAD DUP2 PUSH20 0xFFFFFFFFFFFFFFFFFFFFFFFFFFFFFFFFFFFFFFFF MUL NOT AND SWAP1 DUP4 PUSH20 0xFFFFFFFFFFFFFFFFFFFFFFFFFFFFFFFFFFFFFFFF AND MUL OR SWAP1 SSTORE POP PUSH2 0xA6D DUP1 PUSH2 0x70 PUSH0 CODECOPY PUSH0 RETURN INVALID PUSH1 0x80 PUSH1 0x40 MSTORE PUSH1 0x4 CALLDATASIZE LT PUSH2 0x49 JUMPI PUSH0 CALLDATALOAD PUSH1 0xE0 SHR DUP1 PUSH4 0x8EDD6EB6 EQ PUSH2 0x4D JUMPI DUP1 PUSH4 0x9F883A05 EQ PUSH2 0x63 JUMPI DUP1 PUSH4 0xB60D4288 EQ PUSH2 0x9F JUMPI DUP1 PUSH4 0xBEA4DFB5 EQ PUSH2 0xA9 JUMPI DUP1 PUSH4 0xF2FDE38B EQ PUSH2 0xD3 JUMPI JUMPDEST PUSH0 PUSH0 REVERT JUMPDEST CALLVALUE DUP1 ISZERO PUSH2 0x58 JUMPI PUSH0 PUSH0 REVERT JUMPDEST POP PUSH2 0x61 PUSH2 0xFB JUMP JUMPDEST STOP JUMPDEST CALLVALUE DUP1 ISZERO PUSH2 0x6E JUMPI PUSH0 PUSH0 REVERT JUMPDEST POP PUSH2 0x89 PUSH1 0x4 DUP1 CALLDATASIZE SUB DUP2 ADD SWAP1 PUSH2 0x84 SWAP2 SWAP1 PUSH2 0x530 JUMP JUMPDEST PUSH2 0x289 JUMP JUMPDEST PUSH1 0x40 MLOAD PUSH2 0x96 SWAP2 SWAP1 PUSH2 0x573 JUMP JUMPDEST PUSH1 0x40 MLOAD DUP1 SWAP2 SUB SWAP1 RETURN JUMPDEST PUSH2 0xA7 PUSH2 0x29D JUMP JUMPDEST STOP JUMPDEST CALLVALUE DUP1 ISZERO PUSH2 0xB4 JUMPI PUSH0 PUSH0 REVERT JUMPDEST POP PUSH2 0xBD PUSH2 0x334 JUMP JUMPDEST PUSH1 0x40 MLOAD PUSH2 0xCA SWAP2 SWAP1 PUSH2 0x5A4 JUMP JUMPDEST PUSH1 0x40 MLOAD DUP1 SWAP2 SUB SWAP1 RETURN JUMPDEST CALLVALUE DUP1 ISZERO PUSH2 0xDE JUMPI PUSH0 PUSH0 REVERT JUMPDEST POP PUSH2 0xF9 PUSH1 0x4 DUP1 CALLDATASIZE SUB DUP2 ADD SWAP1 PUSH2 0xF4 SWAP2 SWAP1 PUSH2 0x530 JUMP JUMPDEST PUSH2 0x3D1 JUMP JUMPDEST STOP JUMPDEST PUSH9 0x3635C9ADC5DEA00000 PUSH2 0x10E SELFBALANCE PUSH2 0x4A3 JUMP JUMPDEST LT ISZERO PUSH2 0x14F JUMPI PUSH1 0x40 MLOAD PUSH32 0x8C379A000000000000000000000000000000000000000000000000000000000 DUP2 MSTORE PUSH1 0x4 ADD PUSH2 0x146 SWAP1 PUSH2 0x617 JUMP JUMPDEST PUSH1 0x40 MLOAD DUP1 SWAP2 SUB SWAP1 REVERT JUMPDEST PUSH1 0x2 PUSH0 SWAP1 SLOAD SWAP1 PUSH2 0x100 EXP SWAP1 DIV PUSH20 0xFFFFFFFFFFFFFFFFFFFFFFFFFFFFFFFFFFFFFFFF AND PUSH20 0xFFFFFFFFFFFFFFFFFFFFFFFFFFFFFFFFFFFFFFFF AND CALLER PUSH20 0xFFFFFFFFFFFFFFFFFFFFFFFFFFFFFFFFFFFFFFFF AND EQ PUSH2 0x1DE JUMPI PUSH1 0x40 MLOAD PUSH32 0x8C379A000000000000000000000000000000000000000000000000000000000 DUP2 MSTORE PUSH1 0x4 ADD PUSH2 0x1D5 SWAP1 PUSH2 0x6A5 JUMP JUMPDEST PUSH1 0x40 MLOAD DUP1 SWAP2 SUB SWAP1 REVERT JUMPDEST PUSH0 CALLER PUSH20 0xFFFFFFFFFFFFFFFFFFFFFFFFFFFFFFFFFFFFFFFF AND SELFBALANCE PUSH1 0x40 MLOAD PUSH2 0x203 SWAP1 PUSH2 0x6F0 JUMP JUMPDEST PUSH0 PUSH1 0x40 MLOAD DUP1 DUP4 SUB DUP2 DUP6 DUP8 GAS CALL SWAP3 POP POP POP RETURNDATASIZE DUP1 PUSH0 DUP2 EQ PUSH2 0x23D JUMPI PUSH1 0x40 MLOAD SWAP2 POP PUSH1 0x1F NOT PUSH1 0x3F RETURNDATASIZE ADD AND DUP3 ADD PUSH1 0x40 MSTORE RETURNDATASIZE DUP3 MSTORE RETURNDATASIZE PUSH0 PUSH1 0x20 DUP5 ADD RETURNDATACOPY PUSH2 0x242 JUMP JUMPDEST PUSH1 0x60 SWAP2 POP JUMPDEST POP POP SWAP1 POP DUP1 PUSH2 0x286 JUMPI PUSH1 0x40 MLOAD PUSH32 0x8C379A000000000000000000000000000000000000000000000000000000000 DUP2 MSTORE PUSH1 0x4 ADD PUSH2 0x27D SWAP1 PUSH2 0x74E JUMP JUMPDEST PUSH1 0x40 MLOAD DUP1 SWAP2 SUB SWAP1 REVERT JUMPDEST POP JUMP JUMPDEST PUSH0 PUSH1 0x20 MSTORE DUP1 PUSH0 MSTORE PUSH1 0x40 PUSH0 KECCAK256 PUSH0 SWAP2 POP SWAP1 POP SLOAD DUP2 JUMP JUMPDEST PUSH9 0x56BC75E2D63100000 PUSH2 0x2B0 CALLVALUE PUSH2 0x4A3 JUMP JUMPDEST LT ISZERO PUSH2 0x2F1 JUMPI PUSH1 0x40 MLOAD PUSH32 0x8C379A000000000000000000000000000000000000000000000000000000000 DUP2 MSTORE PUSH1 0x4 ADD PUSH2 0x2E8 SWAP1 PUSH2 0x7B6 JUMP JUMPDEST PUSH1 0x40 MLOAD DUP1 SWAP2 SUB SWAP1 REVERT JUMPDEST CALLVALUE PUSH0 PUSH0 CALLER PUSH20 0xFFFFFFFFFFFFFFFFFFFFFFFFFFFFFFFFFFFFFFFF AND PUSH20 0xFFFFFFFFFFFFFFFFFFFFFFFFFFFFFFFFFFFFFFFF AND DUP2 MSTORE PUSH1 0x20 ADD SWAP1 DUP2 MSTORE PUSH1 0x20 ADD PUSH0 KECCAK256 DUP2 SWAP1 SSTORE POP JUMP JUMPDEST PUSH0 PUSH0 PUSH1 0x1 PUSH0 SWAP1 SLOAD SWAP1 PUSH2 0x100 EXP SWAP1 DIV PUSH20 0xFFFFFFFFFFFFFFFFFFFFFFFFFFFFFFFFFFFFFFFF AND PUSH20 0xFFFFFFFFFFFFFFFFFFFFFFFFFFFFFFFFFFFFFFFF AND PUSH4 0xFEAF968C PUSH1 0x40 MLOAD DUP2 PUSH4 0xFFFFFFFF AND PUSH1 0xE0 SHL DUP2 MSTORE PUSH1 0x4 ADD PUSH1 0xA0 PUSH1 0x40 MLOAD DUP1 DUP4 SUB DUP2 DUP7 GAS STATICCALL ISZERO DUP1 ISZERO PUSH2 0x3A0 JUMPI RETURNDATASIZE PUSH0 PUSH0 RETURNDATACOPY RETURNDATASIZE PUSH0 REVERT JUMPDEST POP POP POP POP PUSH1 0x40 MLOAD RETURNDATASIZE PUSH1 0x1F NOT PUSH1 0x1F DUP3 ADD AND DUP3 ADD DUP1 PUSH1 0x40 MSTORE POP DUP2 ADD SWAP1 PUSH2 0x3C4 SWAP2 SWAP1 PUSH2 0x867 JUMP JUMPDEST POP POP POP SWAP2 POP POP DUP1 SWAP2 POP POP SWAP1 JUMP JUMPDEST PUSH1 0x2 PUSH0 SWAP1 SLOAD SWAP1 PUSH2 0x100 EXP SWAP1 DIV PUSH20 0xFFFFFFFFFFFFFFFFFFFFFFFFFFFFFFFFFFFFFFFF AND PUSH20 0xFFFFFFFFFFFFFFFFFFFFFFFFFFFFFFFFFFFFFFFF AND CALLER PUSH20 0xFFFFFFFFFFFFFFFFFFFFFFFFFFFFFFFFFFFFFFFF AND EQ PUSH2 0x460 JUMPI PUSH1 0x40 MLOAD PUSH32 0x8C379A000000000000000000000000000000000000000000000000000000000 DUP2 MSTORE PUSH1 0x4 ADD PUSH2 0x457 SWAP1 PUSH2 0x94E JUMP JUMPDEST PUSH1 0x40 MLOAD DUP1 SWAP2 SUB SWAP1 REVERT JUMPDEST DUP1 PUSH1 0x2 PUSH0 PUSH2 0x100 EXP DUP2 SLOAD DUP2 PUSH20 0xFFFFFFFFFFFFFFFFFFFFFFFFFFFFFFFFFFFFFFFF MUL NOT AND SWAP1 DUP4 PUSH20 0xFFFFFFFFFFFFFFFFFFFFFFFFFFFFFFFFFFFFFFFF AND MUL OR SWAP1 SSTORE POP POP JUMP JUMPDEST PUSH0 PUSH0 PUSH2 0x4AD PUSH2 0x334 JUMP JUMPDEST SWAP1 POP PUSH4 0x5F5E100 DUP2 DUP5 PUSH2 0x4C0 SWAP2 SWAP1 PUSH2 0x999 JUMP JUMPDEST PUSH2 0x4CA SWAP2 SWAP1 PUSH2 0xA07 JUMP JUMPDEST SWAP2 POP POP SWAP2 SWAP1 POP JUMP JUMPDEST PUSH0 PUSH0 REVERT JUMPDEST PUSH0 PUSH20 0xFFFFFFFFFFFFFFFFFFFFFFFFFFFFFFFFFFFFFFFF DUP3 AND SWAP1 POP SWAP2 SWAP1 POP JUMP JUMPDEST PUSH0 PUSH2 0x4FF DUP3 PUSH2 0x4D6 JUMP JUMPDEST SWAP1 POP SWAP2 SWAP1 POP JUMP JUMPDEST PUSH2 0x50F DUP2 PUSH2 0x4F5 JUMP JUMPDEST DUP2 EQ PUSH2 0x519 JUMPI PUSH0 PUSH0 REVERT JUMPDEST POP JUMP JUMPDEST PUSH0 DUP2 CALLDATALOAD SWAP1 POP PUSH2 0x52A DUP2 PUSH2 0x506 JUMP JUMPDEST SWAP3 SWAP2 POP POP JUMP JUMPDEST PUSH0 PUSH1 0x20 DUP3 DUP5 SUB SLT ISZERO PUSH2 0x545 JUMPI PUSH2 0x544 PUSH2 0x4D2 JUMP JUMPDEST JUMPDEST PUSH0 PUSH2 0x552 DUP5 DUP3 DUP6 ADD PUSH2 0x51C JUMP JUMPDEST SWAP2 POP POP SWAP3 SWAP2 POP POP JUMP JUMPDEST PUSH0 DUP2 SWAP1 POP SWAP2 SWAP1 POP JUMP JUMPDEST PUSH2 0x56D DUP2 PUSH2 0x55B JUMP JUMPDEST DUP3 MSTORE POP POP JUMP JUMPDEST PUSH0 PUSH1 0x20 DUP3 ADD SWAP1 POP PUSH2 0x586 PUSH0 DUP4 ADD DUP5 PUSH2 0x564 JUMP JUMPDEST SWAP3 SWAP2 POP POP JUMP JUMPDEST PUSH0 DUP2 SWAP1 POP SWAP2 SWAP1 POP JUMP JUMPDEST PUSH2 0x59E DUP2 PUSH2 0x58C JUMP JUMPDEST DUP3 MSTORE POP POP JUMP JUMPDEST PUSH0 PUSH1 0x20 DUP3 ADD SWAP1 POP PUSH2 0x5B7 PUSH0 DUP4 ADD DUP5 PUSH2 0x595 JUMP JUMPDEST SWAP3 SWAP2 POP POP JUMP JUMPDEST PUSH0 DUP3 DUP3 MSTORE PUSH1 0x20 DUP3 ADD SWAP1 POP SWAP3 SWAP2 POP POP JUMP JUMPDEST PUSH32 0x546172676574206973206E6F7420726561636865640000000000000000000000 PUSH0 DUP3 ADD MSTORE POP JUMP JUMPDEST PUSH0 PUSH2 0x601 PUSH1 0x15 DUP4 PUSH2 0x5BD JUMP JUMPDEST SWAP2 POP PUSH2 0x60C DUP3 PUSH2 0x5CD JUMP JUMPDEST PUSH1 0x20 DUP3 ADD SWAP1 POP SWAP2 SWAP1 POP JUMP JUMPDEST PUSH0 PUSH1 0x20 DUP3 ADD SWAP1 POP DUP2 DUP2 SUB PUSH0 DUP4 ADD MSTORE PUSH2 0x62E DUP2 PUSH2 0x5F5 JUMP JUMPDEST SWAP1 POP SWAP2 SWAP1 POP JUMP JUMPDEST PUSH32 0x746869732066756E6374696E2063616E206F6E6C792062652063616C6C656420 PUSH0 DUP3 ADD MSTORE PUSH32 0x6279206F776E6572000000000000000000000000000000000000000000000000 PUSH1 0x20 DUP3 ADD MSTORE POP JUMP JUMPDEST PUSH0 PUSH2 0x68F PUSH1 0x28 DUP4 PUSH2 0x5BD JUMP JUMPDEST SWAP2 POP PUSH2 0x69A DUP3 PUSH2 0x635 JUMP JUMPDEST PUSH1 0x40 DUP3 ADD SWAP1 POP SWAP2 SWAP1 POP JUMP JUMPDEST PUSH0 PUSH1 0x20 DUP3 ADD SWAP1 POP DUP2 DUP2 SUB PUSH0 DUP4 ADD MSTORE PUSH2 0x6BC DUP2 PUSH2 0x683 JUMP JUMPDEST SWAP1 POP SWAP2 SWAP1 POP JUMP JUMPDEST PUSH0 DUP2 SWAP1 POP SWAP3 SWAP2 POP POP JUMP JUMPDEST POP JUMP JUMPDEST PUSH0 PUSH2 0x6DB PUSH0 DUP4 PUSH2 0x6C3 JUMP JUMPDEST SWAP2 POP PUSH2 0x6E6 DUP3 PUSH2 0x6CD JUMP JUMPDEST PUSH0 DUP3 ADD SWAP1 POP SWAP2 SWAP1 POP JUMP JUMPDEST PUSH0 PUSH2 0x6FA DUP3 PUSH2 0x6D0 JUMP JUMPDEST SWAP2 POP DUP2 SWAP1 POP SWAP2 SWAP1 POP JUMP JUMPDEST PUSH32 0x5472616E73666572206661696C65640000000000000000000000000000000000 PUSH0 DUP3 ADD MSTORE POP JUMP JUMPDEST PUSH0 PUSH2 0x738 PUSH1 0xF DUP4 PUSH2 0x5BD JUMP JUMPDEST SWAP2 POP PUSH2 0x743 DUP3 PUSH2 0x704 JUMP JUMPDEST PUSH1 0x20 DUP3 ADD SWAP1 POP SWAP2 SWAP1 POP JUMP JUMPDEST PUSH0 PUSH1 0x20 DUP3 ADD SWAP1 POP DUP2 DUP2 SUB PUSH0 DUP4 ADD MSTORE PUSH2 0x765 DUP2 PUSH2 0x72C JUMP JUMPDEST SWAP1 POP SWAP2 SWAP1 POP JUMP JUMPDEST PUSH32 0x53656E64206D6F72652045544800000000000000000000000000000000000000 PUSH0 DUP3 ADD MSTORE POP JUMP JUMPDEST PUSH0 PUSH2 0x7A0 PUSH1 0xD DUP4 PUSH2 0x5BD JUMP JUMPDEST SWAP2 POP PUSH2 0x7AB DUP3 PUSH2 0x76C JUMP JUMPDEST PUSH1 0x20 DUP3 ADD SWAP1 POP SWAP2 SWAP1 POP JUMP JUMPDEST PUSH0 PUSH1 0x20 DUP3 ADD SWAP1 POP DUP2 DUP2 SUB PUSH0 DUP4 ADD MSTORE PUSH2 0x7CD DUP2 PUSH2 0x794 JUMP JUMPDEST SWAP1 POP SWAP2 SWAP1 POP JUMP JUMPDEST PUSH0 PUSH10 0xFFFFFFFFFFFFFFFFFFFF DUP3 AND SWAP1 POP SWAP2 SWAP1 POP JUMP JUMPDEST PUSH2 0x7F2 DUP2 PUSH2 0x7D4 JUMP JUMPDEST DUP2 EQ PUSH2 0x7FC JUMPI PUSH0 PUSH0 REVERT JUMPDEST POP JUMP JUMPDEST PUSH0 DUP2 MLOAD SWAP1 POP PUSH2 0x80D DUP2 PUSH2 0x7E9 JUMP JUMPDEST SWAP3 SWAP2 POP POP JUMP JUMPDEST PUSH2 0x81C DUP2 PUSH2 0x58C JUMP JUMPDEST DUP2 EQ PUSH2 0x826 JUMPI PUSH0 PUSH0 REVERT JUMPDEST POP JUMP JUMPDEST PUSH0 DUP2 MLOAD SWAP1 POP PUSH2 0x837 DUP2 PUSH2 0x813 JUMP JUMPDEST SWAP3 SWAP2 POP POP JUMP JUMPDEST PUSH2 0x846 DUP2 PUSH2 0x55B JUMP JUMPDEST DUP2 EQ PUSH2 0x850 JUMPI PUSH0 PUSH0 REVERT JUMPDEST POP JUMP JUMPDEST PUSH0 DUP2 MLOAD SWAP1 POP PUSH2 0x861 DUP2 PUSH2 0x83D JUMP JUMPDEST SWAP3 SWAP2 POP POP JUMP JUMPDEST PUSH0 PUSH0 PUSH0 PUSH0 PUSH0 PUSH1 0xA0 DUP7 DUP9 SUB SLT ISZERO PUSH2 0x880 JUMPI PUSH2 0x87F PUSH2 0x4D2 JUMP JUMPDEST JUMPDEST PUSH0 PUSH2 0x88D DUP9 DUP3 DUP10 ADD PUSH2 0x7FF JUMP JUMPDEST SWAP6 POP POP PUSH1 0x20 PUSH2 0x89E DUP9 DUP3 DUP10 ADD PUSH2 0x829 JUMP JUMPDEST SWAP5 POP POP PUSH1 0x40 PUSH2 0x8AF DUP9 DUP3 DUP10 ADD PUSH2 0x853 JUMP JUMPDEST SWAP4 POP POP PUSH1 0x60 PUSH2 0x8C0 DUP9 DUP3 DUP10 ADD PUSH2 0x853 JUMP JUMPDEST SWAP3 POP POP PUSH1 0x80 PUSH2 0x8D1 DUP9 DUP3 DUP10 ADD PUSH2 0x7FF JUMP JUMPDEST SWAP2 POP POP SWAP3 SWAP6 POP SWAP3 SWAP6 SWAP1 SWAP4 POP JUMP JUMPDEST PUSH32 0x746869732066756E6374696F6E2063616E206F6E6C792062652063616C6C6564 PUSH0 DUP3 ADD MSTORE PUSH32 0x206279206F776E65720000000000000000000000000000000000000000000000 PUSH1 0x20 DUP3 ADD MSTORE POP JUMP JUMPDEST PUSH0 PUSH2 0x938 PUSH1 0x29 DUP4 PUSH2 0x5BD JUMP JUMPDEST SWAP2 POP PUSH2 0x943 DUP3 PUSH2 0x8DE JUMP JUMPDEST PUSH1 0x40 DUP3 ADD SWAP1 POP SWAP2 SWAP1 POP JUMP JUMPDEST PUSH0 PUSH1 0x20 DUP3 ADD SWAP1 POP DUP2 DUP2 SUB PUSH0 DUP4 ADD MSTORE PUSH2 0x965 DUP2 PUSH2 0x92C JUMP JUMPDEST SWAP1 POP SWAP2 SWAP1 POP JUMP JUMPDEST PUSH32 0x4E487B7100000000000000000000000000000000000000000000000000000000 PUSH0 MSTORE PUSH1 0x11 PUSH1 0x4 MSTORE PUSH1 0x24 PUSH0 REVERT JUMPDEST PUSH0 PUSH2 0x9A3 DUP3 PUSH2 0x55B JUMP JUMPDEST SWAP2 POP PUSH2 0x9AE DUP4 PUSH2 0x55B JUMP JUMPDEST SWAP3 POP DUP3 DUP3 MUL PUSH2 0x9BC DUP2 PUSH2 0x55B JUMP JUMPDEST SWAP2 POP DUP3 DUP3 DIV DUP5 EQ DUP4 ISZERO OR PUSH2 0x9D3 JUMPI PUSH2 0x9D2 PUSH2 0x96C JUMP JUMPDEST JUMPDEST POP SWAP3 SWAP2 POP POP JUMP JUMPDEST PUSH32 0x4E487B7100000000000000000000000000000000000000000000000000000000 PUSH0 MSTORE PUSH1 0x12 PUSH1 0x4 MSTORE PUSH1 0x24 PUSH0 REVERT JUMPDEST PUSH0 PUSH2 0xA11 DUP3 PUSH2 0x55B JUMP JUMPDEST SWAP2 POP PUSH2 0xA1C DUP4 PUSH2 0x55B JUMP JUMPDEST SWAP3 POP DUP3 PUSH2 0xA2C JUMPI PUSH2 0xA2B PUSH2 0x9DA JUMP JUMPDEST JUMPDEST DUP3 DUP3 DIV SWAP1 POP SWAP3 SWAP2 POP POP JUMP INVALID LOG2 PUSH5 0x6970667358 0x22 SLT KECCAK256 ADD ADD EXTSTATICCALL SWAP14 0xC1 EOFCREATE 0xD7 PUSH2 0x7AC 0xBE GASLIMIT INVALID CALLDATALOAD 0xE8 PUSH6 0x3DBDDF762BC0 SUB DUP11 CODECOPY OR SELFBALANCE ADDMOD SELFDESTRUCT ADDRESS PUSH22 0x5E64736F6C634300081F003300000000000000000000 "
				},
				"gasEstimates": {
					"creation": {
						"codeDepositCost": "533800",
						"executionCost": "24832",
						"totalCost": "558632"
					},
					"external": {
						"fund()": "infinite",
						"fundersToAmount(address)": "2801",
						"getChainlinkDataFeedLatestAnswer()": "infinite",
						"getFund()": "infinite",
						"transferOwnership(address)": "26950"
					},
					"internal": {
						"convertEthToUsd(uint256)": "infinite"
					}
				},
				"methodIdentifiers": {
					"fund()": "b60d4288",
					"fundersToAmount(address)": "9f883a05",
					"getChainlinkDataFeedLatestAnswer()": "bea4dfb5",
					"getFund()": "8edd6eb6",
					"transferOwnership(address)": "f2fde38b"
				}
			},
			"storageLayout": {
				"storage": [
					{
						"astId": 53,
						"contract": "FundMe.sol:FundMe",
						"label": "fundersToAmount",
						"offset": 0,
						"slot": "0",
						"type": "t_mapping(t_address,t_uint256)"
					},
					{
						"astId": 63,
						"contract": "FundMe.sol:FundMe",
						"label": "dataFeed",
						"offset": 0,
						"slot": "1",
						"type": "t_contract(AggregatorV3Interface)45"
					},
					{
						"astId": 72,
						"contract": "FundMe.sol:FundMe",
						"label": "owner",
						"offset": 0,
						"slot": "2",
						"type": "t_address"
					}
				],
				"types": {
					"t_address": {
						"encoding": "inplace",
						"label": "address",
						"numberOfBytes": "20"
					},
					"t_contract(AggregatorV3Interface)45": {
						"encoding": "inplace",
						"label": "contract AggregatorV3Interface",
						"numberOfBytes": "20"
					},
					"t_mapping(t_address,t_uint256)": {
						"encoding": "mapping",
						"key": "t_address",
						"label": "mapping(address => uint256)",
						"numberOfBytes": "32",
						"value": "t_uint256"
					},
					"t_uint256": {
						"encoding": "inplace",
						"label": "uint256",
						"numberOfBytes": "32"
					}
				}
			},
			"userdoc": {
				"kind": "user",
				"methods": {},
				"version": 1
			}
		}
	}
}