{
	"FundMe.sol": {
		"FundMe": {
			"abi": [
				{
					"inputs": [
						{
							"internalType": "uint256",
							"name": "lock_time",
							"type": "uint256"
						}
					],
					"stateMutability": "nonpayable",
					"type": "constructor"
				},
				{
					"inputs": [],
					"name": "fund",
					"outputs": [],
					"stateMutability": "payable",
					"type": "function"
				},
				{
					"inputs": [
						{
							"internalType": "address",
							"name": "",
							"type": "address"
						}
					],
					"name": "fundersToAmount",
					"outputs": [
						{
							"internalType": "uint256",
							"name": "",
							"type": "uint256"
						}
					],
					"stateMutability": "view",
					"type": "function"
				},
				{
					"inputs": [],
					"name": "getChainlinkDataFeedLatestAnswer",
					"outputs": [
						{
							"internalType": "int256",
							"name": "",
							"type": "int256"
						}
					],
					"stateMutability": "view",
					"type": "function"
				},
				{
					"inputs": [],
					"name": "getFund",
					"outputs": [],
					"stateMutability": "nonpayable",
					"type": "function"
				},
				{
					"inputs": [],
					"name": "owner",
					"outputs": [
						{
							"internalType": "address",
							"name": "",
							"type": "address"
						}
					],
					"stateMutability": "view",
					"type": "function"
				},
				{
					"inputs": [],
					"name": "refund",
					"outputs": [],
					"stateMutability": "nonpayable",
					"type": "function"
				},
				{
					"inputs": [
						{
							"internalType": "address",
							"name": "newOwner",
							"type": "address"
						}
					],
					"name": "transferOwnership",
					"outputs": [],
					"stateMutability": "nonpayable",
					"type": "function"
				}
			],
			"devdoc": {
				"kind": "dev",
				"methods": {},
				"version": 1
			},
			"evm": {
				"assembly": "    /* \"FundMe.sol\":376:3369  contract FundMe {... */\n  mstore(0x40, 0x80)\n    /* \"FundMe.sol\":707:936  constructor(uint256 lock_time) {... */\n  callvalue\n  dup1\n  iszero\n  tag_1\n  jumpi\n  revert(0x00, 0x00)\ntag_1:\n  pop\n  mload(0x40)\n  sub(codesize, bytecodeSize)\n  dup1\n  bytecodeSize\n  dup4\n  codecopy\n  dup2\n  dup2\n  add\n  0x40\n  mstore\n  dup2\n  add\n  swap1\n  tag_2\n  swap2\n  swap1\n  tag_3\n  jump\t// in\ntag_2:\n    /* \"FundMe.sol\":781:823  0x694AA1769357215DE4FAC081bf1f309aDC325306 */\n  0x694aa1769357215de4fac081bf1f309adc325306\n    /* \"FundMe.sol\":748:756  dataFeed */\n  0x01\n  0x00\n    /* \"FundMe.sol\":748:824  dataFeed = AggregatorV3Interface(0x694AA1769357215DE4FAC081bf1f309aDC325306) */\n  0x0100\n  exp\n  dup2\n  sload\n  dup2\n  0xffffffffffffffffffffffffffffffffffffffff\n  mul\n  not\n  and\n  swap1\n  dup4\n  0xffffffffffffffffffffffffffffffffffffffff\n  and\n  mul\n  or\n  swap1\n  sstore\n  pop\n    /* \"FundMe.sol\":842:852  msg.sender */\n  caller\n    /* \"FundMe.sol\":834:839  owner */\n  0x02\n  0x00\n    /* \"FundMe.sol\":834:852  owner = msg.sender */\n  0x0100\n  exp\n  dup2\n  sload\n  dup2\n  0xffffffffffffffffffffffffffffffffffffffff\n  mul\n  not\n  and\n  swap1\n  dup4\n  0xffffffffffffffffffffffffffffffffffffffff\n  and\n  mul\n  or\n  swap1\n  sstore\n  pop\n    /* \"FundMe.sol\":884:899  block.timestamp */\n  timestamp\n    /* \"FundMe.sol\":862:881  deploymentTimestamp */\n  0x03\n    /* \"FundMe.sol\":862:899  deploymentTimestamp = block.timestamp */\n  dup2\n  swap1\n  sstore\n  pop\n    /* \"FundMe.sol\":920:929  lock_time */\n  dup1\n    /* \"FundMe.sol\":909:917  lockTime */\n  0x04\n    /* \"FundMe.sol\":909:929  lockTime = lock_time */\n  dup2\n  swap1\n  sstore\n  pop\n    /* \"FundMe.sol\":707:936  constructor(uint256 lock_time) {... */\n  pop\n    /* \"FundMe.sol\":376:3369  contract FundMe {... */\n  jump(tag_6)\n    /* \"#utility.yul\":88:205   */\ntag_8:\n    /* \"#utility.yul\":197:198   */\n  0x00\n    /* \"#utility.yul\":194:195   */\n  0x00\n    /* \"#utility.yul\":187:199   */\n  revert\n    /* \"#utility.yul\":334:411   */\ntag_10:\n    /* \"#utility.yul\":371:378   */\n  0x00\n    /* \"#utility.yul\":400:405   */\n  dup2\n    /* \"#utility.yul\":389:405   */\n  swap1\n  pop\n    /* \"#utility.yul\":334:411   */\n  swap2\n  swap1\n  pop\n  jump\t// out\n    /* \"#utility.yul\":417:539   */\ntag_11:\n    /* \"#utility.yul\":490:514   */\n  tag_19\n    /* \"#utility.yul\":508:513   */\n  dup2\n    /* \"#utility.yul\":490:514   */\n  tag_10\n  jump\t// in\ntag_19:\n    /* \"#utility.yul\":483:488   */\n  dup2\n    /* \"#utility.yul\":480:515   */\n  eq\n    /* \"#utility.yul\":470:533   */\n  tag_20\n  jumpi\n    /* \"#utility.yul\":529:530   */\n  0x00\n    /* \"#utility.yul\":526:527   */\n  0x00\n    /* \"#utility.yul\":519:531   */\n  revert\n    /* \"#utility.yul\":470:533   */\ntag_20:\n    /* \"#utility.yul\":417:539   */\n  pop\n  jump\t// out\n    /* \"#utility.yul\":545:688   */\ntag_12:\n    /* \"#utility.yul\":602:607   */\n  0x00\n    /* \"#utility.yul\":633:639   */\n  dup2\n    /* \"#utility.yul\":627:640   */\n  mload\n    /* \"#utility.yul\":618:640   */\n  swap1\n  pop\n    /* \"#utility.yul\":649:682   */\n  tag_22\n    /* \"#utility.yul\":676:681   */\n  dup2\n    /* \"#utility.yul\":649:682   */\n  tag_11\n  jump\t// in\ntag_22:\n    /* \"#utility.yul\":545:688   */\n  swap3\n  swap2\n  pop\n  pop\n  jump\t// out\n    /* \"#utility.yul\":694:1045   */\ntag_3:\n    /* \"#utility.yul\":764:770   */\n  0x00\n    /* \"#utility.yul\":813:815   */\n  0x20\n    /* \"#utility.yul\":801:810   */\n  dup3\n    /* \"#utility.yul\":792:799   */\n  dup5\n    /* \"#utility.yul\":788:811   */\n  sub\n    /* \"#utility.yul\":784:816   */\n  slt\n    /* \"#utility.yul\":781:900   */\n  iszero\n  tag_24\n  jumpi\n    /* \"#utility.yul\":819:898   */\n  tag_25\n  tag_8\n  jump\t// in\ntag_25:\n    /* \"#utility.yul\":781:900   */\ntag_24:\n    /* \"#utility.yul\":939:940   */\n  0x00\n    /* \"#utility.yul\":964:1028   */\n  tag_26\n    /* \"#utility.yul\":1020:1027   */\n  dup5\n    /* \"#utility.yul\":1011:1017   */\n  dup3\n    /* \"#utility.yul\":1000:1009   */\n  dup6\n    /* \"#utility.yul\":996:1018   */\n  add\n    /* \"#utility.yul\":964:1028   */\n  tag_12\n  jump\t// in\ntag_26:\n    /* \"#utility.yul\":954:1028   */\n  swap2\n  pop\n    /* \"#utility.yul\":910:1038   */\n  pop\n    /* \"#utility.yul\":694:1045   */\n  swap3\n  swap2\n  pop\n  pop\n  jump\t// out\n    /* \"FundMe.sol\":376:3369  contract FundMe {... */\ntag_6:\n  dataSize(sub_0)\n  dup1\n  dataOffset(sub_0)\n  0x00\n  codecopy\n  0x00\n  return\nstop\n\nsub_0: assembly {\n        /* \"FundMe.sol\":376:3369  contract FundMe {... */\n      mstore(0x40, 0x80)\n      jumpi(tag_1, lt(calldatasize, 0x04))\n      shr(0xe0, calldataload(0x00))\n      dup1\n      0x9f883a05\n      gt\n      tag_9\n      jumpi\n      dup1\n      0x9f883a05\n      eq\n      tag_5\n      jumpi\n      dup1\n      0xb60d4288\n      eq\n      tag_6\n      jumpi\n      dup1\n      0xbea4dfb5\n      eq\n      tag_7\n      jumpi\n      dup1\n      0xf2fde38b\n      eq\n      tag_8\n      jumpi\n      jump(tag_1)\n    tag_9:\n      dup1\n      0x590e1ae3\n      eq\n      tag_2\n      jumpi\n      dup1\n      0x8da5cb5b\n      eq\n      tag_3\n      jumpi\n      dup1\n      0x8edd6eb6\n      eq\n      tag_4\n      jumpi\n    tag_1:\n      revert(0x00, 0x00)\n        /* \"FundMe.sol\":2701:3103  function refund() external windowClose{... */\n    tag_2:\n      callvalue\n      dup1\n      iszero\n      tag_10\n      jumpi\n      revert(0x00, 0x00)\n    tag_10:\n      pop\n      tag_11\n      tag_12\n      jump\t// in\n    tag_11:\n      stop\n        /* \"FundMe.sol\":623:643  address public owner */\n    tag_3:\n      callvalue\n      dup1\n      iszero\n      tag_13\n      jumpi\n      revert(0x00, 0x00)\n    tag_13:\n      pop\n      tag_14\n      tag_15\n      jump\t// in\n    tag_14:\n      mload(0x40)\n      tag_16\n      swap2\n      swap1\n      tag_17\n      jump\t// in\n    tag_16:\n      mload(0x40)\n      dup1\n      swap2\n      sub\n      swap1\n      return\n        /* \"FundMe.sol\":2040:2694  function getFund() external windowClose onlyOwner{... */\n    tag_4:\n      callvalue\n      dup1\n      iszero\n      tag_18\n      jumpi\n      revert(0x00, 0x00)\n    tag_18:\n      pop\n      tag_19\n      tag_20\n      jump\t// in\n    tag_19:\n      stop\n        /* \"FundMe.sol\":398:448  mapping(address => uint256) public fundersToAmount */\n    tag_5:\n      callvalue\n      dup1\n      iszero\n      tag_21\n      jumpi\n      revert(0x00, 0x00)\n    tag_21:\n      pop\n      tag_22\n      0x04\n      dup1\n      calldatasize\n      sub\n      dup2\n      add\n      swap1\n      tag_23\n      swap2\n      swap1\n      tag_24\n      jump\t// in\n    tag_23:\n      tag_25\n      jump\t// in\n    tag_22:\n      mload(0x40)\n      tag_26\n      swap2\n      swap1\n      tag_27\n      jump\t// in\n    tag_26:\n      mload(0x40)\n      dup1\n      swap2\n      sub\n      swap1\n      return\n        /* \"FundMe.sol\":1126:1381  function fund() external payable {... */\n    tag_6:\n      tag_28\n      tag_29\n      jump\t// in\n    tag_28:\n      stop\n        /* \"FundMe.sol\":1387:1725  function getChainlinkDataFeedLatestAnswer() public view returns (int) {... */\n    tag_7:\n      callvalue\n      dup1\n      iszero\n      tag_30\n      jumpi\n      revert(0x00, 0x00)\n    tag_30:\n      pop\n      tag_31\n      tag_32\n      jump\t// in\n    tag_31:\n      mload(0x40)\n      tag_33\n      swap2\n      swap1\n      tag_34\n      jump\t// in\n    tag_33:\n      mload(0x40)\n      dup1\n      swap2\n      sub\n      swap1\n      return\n        /* \"FundMe.sol\":1939:2034  function transferOwnership(address newOwner) public onlyOwner {... */\n    tag_8:\n      callvalue\n      dup1\n      iszero\n      tag_35\n      jumpi\n      revert(0x00, 0x00)\n    tag_35:\n      pop\n      tag_36\n      0x04\n      dup1\n      calldatasize\n      sub\n      dup2\n      add\n      swap1\n      tag_37\n      swap2\n      swap1\n      tag_24\n      jump\t// in\n    tag_37:\n      tag_38\n      jump\t// in\n    tag_36:\n      stop\n        /* \"FundMe.sol\":2701:3103  function refund() external windowClose{... */\n    tag_12:\n        /* \"FundMe.sol\":3192:3200  lockTime */\n      sload(0x04)\n        /* \"FundMe.sol\":3170:3189  deploymentTimestamp */\n      sload(0x03)\n        /* \"FundMe.sol\":3170:3200  deploymentTimestamp + lockTime */\n      tag_40\n      swap2\n      swap1\n      tag_41\n      jump\t// in\n    tag_40:\n        /* \"FundMe.sol\":3151:3166  block.timestamp */\n      timestamp\n        /* \"FundMe.sol\":3151:3200  block.timestamp >= deploymentTimestamp + lockTime */\n      lt\n      iszero\n        /* \"FundMe.sol\":3143:3221  require(block.timestamp >= deploymentTimestamp + lockTime, \"window is closed\") */\n      tag_42\n      jumpi\n      mload(0x40)\n      0x08c379a000000000000000000000000000000000000000000000000000000000\n      dup2\n      mstore\n      0x04\n      add\n      tag_43\n      swap1\n      tag_44\n      jump\t// in\n    tag_43:\n      mload(0x40)\n      dup1\n      swap2\n      sub\n      swap1\n      revert\n    tag_42:\n        /* \"FundMe.sol\":591:606  1000 * 10 ** 18 */\n      0x3635c9adc5dea00000\n        /* \"FundMe.sol\":2757:2795  convertEthToUsd(address(this).balance) */\n      tag_46\n        /* \"FundMe.sol\":2773:2794  address(this).balance */\n      selfbalance\n        /* \"FundMe.sol\":2757:2772  convertEthToUsd */\n      tag_47\n        /* \"FundMe.sol\":2757:2795  convertEthToUsd(address(this).balance) */\n      jump\t// in\n    tag_46:\n        /* \"FundMe.sol\":2757:2804  convertEthToUsd(address(this).balance) < TARGET */\n      lt\n        /* \"FundMe.sol\":2749:2826  require(convertEthToUsd(address(this).balance) < TARGET, \"Target is reached\") */\n      tag_48\n      jumpi\n      mload(0x40)\n      0x08c379a000000000000000000000000000000000000000000000000000000000\n      dup2\n      mstore\n      0x04\n      add\n      tag_49\n      swap1\n      tag_50\n      jump\t// in\n    tag_49:\n      mload(0x40)\n      dup1\n      swap2\n      sub\n      swap1\n      revert\n    tag_48:\n        /* \"FundMe.sol\":2875:2876  0 */\n      0x00\n        /* \"FundMe.sol\":2844:2859  fundersToAmount */\n      0x00\n        /* \"FundMe.sol\":2844:2871  fundersToAmount[msg.sender] */\n      0x00\n        /* \"FundMe.sol\":2860:2870  msg.sender */\n      caller\n        /* \"FundMe.sol\":2844:2871  fundersToAmount[msg.sender] */\n      0xffffffffffffffffffffffffffffffffffffffff\n      and\n      0xffffffffffffffffffffffffffffffffffffffff\n      and\n      dup2\n      mstore\n      0x20\n      add\n      swap1\n      dup2\n      mstore\n      0x20\n      add\n      0x00\n      keccak256\n      sload\n        /* \"FundMe.sol\":2844:2876  fundersToAmount[msg.sender] != 0 */\n      sub\n        /* \"FundMe.sol\":2836:2905  require(fundersToAmount[msg.sender] != 0, \"there is no fund for you\") */\n      tag_51\n      jumpi\n      mload(0x40)\n      0x08c379a000000000000000000000000000000000000000000000000000000000\n      dup2\n      mstore\n      0x04\n      add\n      tag_52\n      swap1\n      tag_53\n      jump\t// in\n    tag_52:\n      mload(0x40)\n      dup1\n      swap2\n      sub\n      swap1\n      revert\n    tag_51:\n        /* \"FundMe.sol\":2924:2936  bool success */\n      0x00\n        /* \"FundMe.sol\":2950:2960  msg.sender */\n      caller\n        /* \"FundMe.sol\":2941:2966  payable (msg.sender).call */\n      0xffffffffffffffffffffffffffffffffffffffff\n      and\n        /* \"FundMe.sol\":2974:2989  fundersToAmount */\n      0x00\n        /* \"FundMe.sol\":2974:3001  fundersToAmount[msg.sender] */\n      0x00\n        /* \"FundMe.sol\":2990:3000  msg.sender */\n      caller\n        /* \"FundMe.sol\":2974:3001  fundersToAmount[msg.sender] */\n      0xffffffffffffffffffffffffffffffffffffffff\n      and\n      0xffffffffffffffffffffffffffffffffffffffff\n      and\n      dup2\n      mstore\n      0x20\n      add\n      swap1\n      dup2\n      mstore\n      0x20\n      add\n      0x00\n      keccak256\n      sload\n        /* \"FundMe.sol\":2941:3006  payable (msg.sender).call{value: fundersToAmount[msg.sender]}(\"\") */\n      mload(0x40)\n      tag_54\n      swap1\n      tag_55\n      jump\t// in\n    tag_54:\n      0x00\n      mload(0x40)\n      dup1\n      dup4\n      sub\n      dup2\n      dup6\n      dup8\n      gas\n      call\n      swap3\n      pop\n      pop\n      pop\n      returndatasize\n      dup1\n      0x00\n      dup2\n      eq\n      tag_58\n      jumpi\n      mload(0x40)\n      swap2\n      pop\n      and(add(returndatasize, 0x3f), not(0x1f))\n      dup3\n      add\n      0x40\n      mstore\n      returndatasize\n      dup3\n      mstore\n      returndatasize\n      0x00\n      0x20\n      dup5\n      add\n      returndatacopy\n      jump(tag_57)\n    tag_58:\n      0x60\n      swap2\n      pop\n    tag_57:\n      pop\n        /* \"FundMe.sol\":2923:3006  (bool success,) = payable (msg.sender).call{value: fundersToAmount[msg.sender]}(\"\") */\n      pop\n      swap1\n      pop\n        /* \"FundMe.sol\":3024:3031  success */\n      dup1\n        /* \"FundMe.sol\":3016:3054  require(success, \"Transfer tx failed\") */\n      tag_59\n      jumpi\n      mload(0x40)\n      0x08c379a000000000000000000000000000000000000000000000000000000000\n      dup2\n      mstore\n      0x04\n      add\n      tag_60\n      swap1\n      tag_61\n      jump\t// in\n    tag_60:\n      mload(0x40)\n      dup1\n      swap2\n      sub\n      swap1\n      revert\n    tag_59:\n        /* \"FundMe.sol\":3095:3096  0 */\n      0x00\n        /* \"FundMe.sol\":3065:3080  fundersToAmount */\n      0x00\n        /* \"FundMe.sol\":3065:3092  fundersToAmount[msg.sender] */\n      0x00\n        /* \"FundMe.sol\":3081:3091  msg.sender */\n      caller\n        /* \"FundMe.sol\":3065:3092  fundersToAmount[msg.sender] */\n      0xffffffffffffffffffffffffffffffffffffffff\n      and\n      0xffffffffffffffffffffffffffffffffffffffff\n      and\n      dup2\n      mstore\n      0x20\n      add\n      swap1\n      dup2\n      mstore\n      0x20\n      add\n      0x00\n      keccak256\n        /* \"FundMe.sol\":3065:3096  fundersToAmount[msg.sender] = 0 */\n      dup2\n      swap1\n      sstore\n      pop\n        /* \"FundMe.sol\":2739:3103  {... */\n      pop\n        /* \"FundMe.sol\":2701:3103  function refund() external windowClose{... */\n      jump\t// out\n        /* \"FundMe.sol\":623:643  address public owner */\n    tag_15:\n      0x02\n      0x00\n      swap1\n      sload\n      swap1\n      0x0100\n      exp\n      swap1\n      div\n      0xffffffffffffffffffffffffffffffffffffffff\n      and\n      dup2\n      jump\t// out\n        /* \"FundMe.sol\":2040:2694  function getFund() external windowClose onlyOwner{... */\n    tag_20:\n        /* \"FundMe.sol\":3192:3200  lockTime */\n      sload(0x04)\n        /* \"FundMe.sol\":3170:3189  deploymentTimestamp */\n      sload(0x03)\n        /* \"FundMe.sol\":3170:3200  deploymentTimestamp + lockTime */\n      tag_63\n      swap2\n      swap1\n      tag_41\n      jump\t// in\n    tag_63:\n        /* \"FundMe.sol\":3151:3166  block.timestamp */\n      timestamp\n        /* \"FundMe.sol\":3151:3200  block.timestamp >= deploymentTimestamp + lockTime */\n      lt\n      iszero\n        /* \"FundMe.sol\":3143:3221  require(block.timestamp >= deploymentTimestamp + lockTime, \"window is closed\") */\n      tag_64\n      jumpi\n      mload(0x40)\n      0x08c379a000000000000000000000000000000000000000000000000000000000\n      dup2\n      mstore\n      0x04\n      add\n      tag_65\n      swap1\n      tag_44\n      jump\t// in\n    tag_65:\n      mload(0x40)\n      dup1\n      swap2\n      sub\n      swap1\n      revert\n    tag_64:\n        /* \"FundMe.sol\":3299:3304  owner */\n      0x02\n      0x00\n      swap1\n      sload\n      swap1\n      0x0100\n      exp\n      swap1\n      div\n      0xffffffffffffffffffffffffffffffffffffffff\n      and\n        /* \"FundMe.sol\":3285:3304  msg.sender == owner */\n      0xffffffffffffffffffffffffffffffffffffffff\n      and\n        /* \"FundMe.sol\":3285:3295  msg.sender */\n      caller\n        /* \"FundMe.sol\":3285:3304  msg.sender == owner */\n      0xffffffffffffffffffffffffffffffffffffffff\n      and\n      eq\n        /* \"FundMe.sol\":3277:3349  require(msg.sender == owner, \"this functin can only be called by owner\") */\n      tag_67\n      jumpi\n      mload(0x40)\n      0x08c379a000000000000000000000000000000000000000000000000000000000\n      dup2\n      mstore\n      0x04\n      add\n      tag_68\n      swap1\n      tag_69\n      jump\t// in\n    tag_68:\n      mload(0x40)\n      dup1\n      swap2\n      sub\n      swap1\n      revert\n    tag_67:\n        /* \"FundMe.sol\":591:606  1000 * 10 ** 18 */\n      0x3635c9adc5dea00000\n        /* \"FundMe.sol\":2107:2145  convertEthToUsd(address(this).balance) */\n      tag_71\n        /* \"FundMe.sol\":2123:2144  address(this).balance */\n      selfbalance\n        /* \"FundMe.sol\":2107:2122  convertEthToUsd */\n      tag_47\n        /* \"FundMe.sol\":2107:2145  convertEthToUsd(address(this).balance) */\n      jump\t// in\n    tag_71:\n        /* \"FundMe.sol\":2107:2155  convertEthToUsd(address(this).balance) >= TARGET */\n      lt\n      iszero\n        /* \"FundMe.sol\":2099:2181  require(convertEthToUsd(address(this).balance) >= TARGET, \"Target is not reached\") */\n      tag_72\n      jumpi\n      mload(0x40)\n      0x08c379a000000000000000000000000000000000000000000000000000000000\n      dup2\n      mstore\n      0x04\n      add\n      tag_73\n      swap1\n      tag_74\n      jump\t// in\n    tag_73:\n      mload(0x40)\n      dup1\n      swap2\n      sub\n      swap1\n      revert\n    tag_72:\n        /* \"FundMe.sol\":2521:2533  bool success */\n      0x00\n        /* \"FundMe.sol\":2547:2557  msg.sender */\n      caller\n        /* \"FundMe.sol\":2539:2563  payable(msg.sender).call */\n      0xffffffffffffffffffffffffffffffffffffffff\n      and\n        /* \"FundMe.sol\":2571:2592  address(this).balance */\n      selfbalance\n        /* \"FundMe.sol\":2539:2597  payable(msg.sender).call{value: address(this).balance}(\"\") */\n      mload(0x40)\n      tag_75\n      swap1\n      tag_55\n      jump\t// in\n    tag_75:\n      0x00\n      mload(0x40)\n      dup1\n      dup4\n      sub\n      dup2\n      dup6\n      dup8\n      gas\n      call\n      swap3\n      pop\n      pop\n      pop\n      returndatasize\n      dup1\n      0x00\n      dup2\n      eq\n      tag_78\n      jumpi\n      mload(0x40)\n      swap2\n      pop\n      and(add(returndatasize, 0x3f), not(0x1f))\n      dup3\n      add\n      0x40\n      mstore\n      returndatasize\n      dup3\n      mstore\n      returndatasize\n      0x00\n      0x20\n      dup5\n      add\n      returndatacopy\n      jump(tag_77)\n    tag_78:\n      0x60\n      swap2\n      pop\n    tag_77:\n      pop\n        /* \"FundMe.sol\":2520:2597  (bool success, ) = payable(msg.sender).call{value: address(this).balance}(\"\") */\n      pop\n      swap1\n      pop\n        /* \"FundMe.sol\":2615:2622  success */\n      dup1\n        /* \"FundMe.sol\":2607:2645  require(success, \"Transfer tx failed\") */\n      tag_79\n      jumpi\n      mload(0x40)\n      0x08c379a000000000000000000000000000000000000000000000000000000000\n      dup2\n      mstore\n      0x04\n      add\n      tag_80\n      swap1\n      tag_61\n      jump\t// in\n    tag_80:\n      mload(0x40)\n      dup1\n      swap2\n      sub\n      swap1\n      revert\n    tag_79:\n        /* \"FundMe.sol\":2686:2687  0 */\n      0x00\n        /* \"FundMe.sol\":2656:2671  fundersToAmount */\n      0x00\n        /* \"FundMe.sol\":2656:2683  fundersToAmount[msg.sender] */\n      0x00\n        /* \"FundMe.sol\":2672:2682  msg.sender */\n      caller\n        /* \"FundMe.sol\":2656:2683  fundersToAmount[msg.sender] */\n      0xffffffffffffffffffffffffffffffffffffffff\n      and\n      0xffffffffffffffffffffffffffffffffffffffff\n      and\n      dup2\n      mstore\n      0x20\n      add\n      swap1\n      dup2\n      mstore\n      0x20\n      add\n      0x00\n      keccak256\n        /* \"FundMe.sol\":2656:2687  fundersToAmount[msg.sender] = 0 */\n      dup2\n      swap1\n      sstore\n      pop\n        /* \"FundMe.sol\":2089:2694  {... */\n      pop\n        /* \"FundMe.sol\":2040:2694  function getFund() external windowClose onlyOwner{... */\n      jump\t// out\n        /* \"FundMe.sol\":398:448  mapping(address => uint256) public fundersToAmount */\n    tag_25:\n      mstore(0x20, 0x00)\n      dup1\n      0x00\n      mstore\n      keccak256(0x00, 0x40)\n      0x00\n      swap2\n      pop\n      swap1\n      pop\n      sload\n      dup2\n      jump\t// out\n        /* \"FundMe.sol\":1126:1381  function fund() external payable {... */\n    tag_29:\n        /* \"FundMe.sol\":488:502  100 * 10 ** 18 */\n      0x056bc75e2d63100000\n        /* \"FundMe.sol\":1177:1203  convertEthToUsd(msg.value) */\n      tag_82\n        /* \"FundMe.sol\":1193:1202  msg.value */\n      callvalue\n        /* \"FundMe.sol\":1177:1192  convertEthToUsd */\n      tag_47\n        /* \"FundMe.sol\":1177:1203  convertEthToUsd(msg.value) */\n      jump\t// in\n    tag_82:\n        /* \"FundMe.sol\":1177:1220  convertEthToUsd(msg.value) >= MINIMUM_VALUE */\n      lt\n      iszero\n        /* \"FundMe.sol\":1169:1238  require(convertEthToUsd(msg.value) >= MINIMUM_VALUE, \"Send more ETH\") */\n      tag_83\n      jumpi\n      mload(0x40)\n      0x08c379a000000000000000000000000000000000000000000000000000000000\n      dup2\n      mstore\n      0x04\n      add\n      tag_84\n      swap1\n      tag_85\n      jump\t// in\n    tag_84:\n      mload(0x40)\n      dup1\n      swap2\n      sub\n      swap1\n      revert\n    tag_83:\n        /* \"FundMe.sol\":1296:1304  lockTime */\n      sload(0x04)\n        /* \"FundMe.sol\":1274:1293  deploymentTimestamp */\n      sload(0x03)\n        /* \"FundMe.sol\":1274:1304  deploymentTimestamp + lockTime */\n      tag_86\n      swap2\n      swap1\n      tag_41\n      jump\t// in\n    tag_86:\n        /* \"FundMe.sol\":1256:1271  block.timestamp */\n      timestamp\n        /* \"FundMe.sol\":1256:1304  block.timestamp < deploymentTimestamp + lockTime */\n      lt\n        /* \"FundMe.sol\":1248:1325  require(block.timestamp < deploymentTimestamp + lockTime, \"window is closed\") */\n      tag_87\n      jumpi\n      mload(0x40)\n      0x08c379a000000000000000000000000000000000000000000000000000000000\n      dup2\n      mstore\n      0x04\n      add\n      tag_88\n      swap1\n      tag_44\n      jump\t// in\n    tag_88:\n      mload(0x40)\n      dup1\n      swap2\n      sub\n      swap1\n      revert\n    tag_87:\n        /* \"FundMe.sol\":1365:1374  msg.value */\n      callvalue\n        /* \"FundMe.sol\":1335:1350  fundersToAmount */\n      0x00\n        /* \"FundMe.sol\":1335:1362  fundersToAmount[msg.sender] */\n      0x00\n        /* \"FundMe.sol\":1351:1361  msg.sender */\n      caller\n        /* \"FundMe.sol\":1335:1362  fundersToAmount[msg.sender] */\n      0xffffffffffffffffffffffffffffffffffffffff\n      and\n      0xffffffffffffffffffffffffffffffffffffffff\n      and\n      dup2\n      mstore\n      0x20\n      add\n      swap1\n      dup2\n      mstore\n      0x20\n      add\n      0x00\n      keccak256\n        /* \"FundMe.sol\":1335:1374  fundersToAmount[msg.sender] = msg.value */\n      dup2\n      swap1\n      sstore\n      pop\n        /* \"FundMe.sol\":1126:1381  function fund() external payable {... */\n      jump\t// out\n        /* \"FundMe.sol\":1387:1725  function getChainlinkDataFeedLatestAnswer() public view returns (int) {... */\n    tag_32:\n        /* \"FundMe.sol\":1452:1455  int */\n      0x00\n        /* \"FundMe.sol\":1542:1552  int answer */\n      0x00\n        /* \"FundMe.sol\":1669:1677  dataFeed */\n      0x01\n      0x00\n      swap1\n      sload\n      swap1\n      0x0100\n      exp\n      swap1\n      div\n      0xffffffffffffffffffffffffffffffffffffffff\n      and\n        /* \"FundMe.sol\":1669:1693  dataFeed.latestRoundData */\n      0xffffffffffffffffffffffffffffffffffffffff\n      and\n      0xfeaf968c\n        /* \"FundMe.sol\":1669:1695  dataFeed.latestRoundData() */\n      mload(0x40)\n      dup2\n      0xffffffff\n      and\n      0xe0\n      shl\n      dup2\n      mstore\n      0x04\n      add\n      0xa0\n      mload(0x40)\n      dup1\n      dup4\n      sub\n      dup2\n      dup7\n      gas\n      staticcall\n      iszero\n      dup1\n      iszero\n      tag_91\n      jumpi\n      returndatacopy(0x00, 0x00, returndatasize)\n      revert(0x00, returndatasize)\n    tag_91:\n      pop\n      pop\n      pop\n      pop\n      mload(0x40)\n      returndatasize\n      not(0x1f)\n      0x1f\n      dup3\n      add\n      and\n      dup3\n      add\n      dup1\n      0x40\n      mstore\n      pop\n      dup2\n      add\n      swap1\n      tag_92\n      swap2\n      swap1\n      tag_93\n      jump\t// in\n    tag_92:\n        /* \"FundMe.sol\":1494:1695  (... */\n      pop\n      pop\n      pop\n      swap2\n      pop\n      pop\n        /* \"FundMe.sol\":1712:1718  answer */\n      dup1\n        /* \"FundMe.sol\":1705:1718  return answer */\n      swap2\n      pop\n      pop\n        /* \"FundMe.sol\":1387:1725  function getChainlinkDataFeedLatestAnswer() public view returns (int) {... */\n      swap1\n      jump\t// out\n        /* \"FundMe.sol\":1939:2034  function transferOwnership(address newOwner) public onlyOwner {... */\n    tag_38:\n        /* \"FundMe.sol\":3299:3304  owner */\n      0x02\n      0x00\n      swap1\n      sload\n      swap1\n      0x0100\n      exp\n      swap1\n      div\n      0xffffffffffffffffffffffffffffffffffffffff\n      and\n        /* \"FundMe.sol\":3285:3304  msg.sender == owner */\n      0xffffffffffffffffffffffffffffffffffffffff\n      and\n        /* \"FundMe.sol\":3285:3295  msg.sender */\n      caller\n        /* \"FundMe.sol\":3285:3304  msg.sender == owner */\n      0xffffffffffffffffffffffffffffffffffffffff\n      and\n      eq\n        /* \"FundMe.sol\":3277:3349  require(msg.sender == owner, \"this functin can only be called by owner\") */\n      tag_95\n      jumpi\n      mload(0x40)\n      0x08c379a000000000000000000000000000000000000000000000000000000000\n      dup2\n      mstore\n      0x04\n      add\n      tag_96\n      swap1\n      tag_69\n      jump\t// in\n    tag_96:\n      mload(0x40)\n      dup1\n      swap2\n      sub\n      swap1\n      revert\n    tag_95:\n        /* \"FundMe.sol\":2019:2027  newOwner */\n      dup1\n        /* \"FundMe.sol\":2011:2016  owner */\n      0x02\n      0x00\n        /* \"FundMe.sol\":2011:2027  owner = newOwner */\n      0x0100\n      exp\n      dup2\n      sload\n      dup2\n      0xffffffffffffffffffffffffffffffffffffffff\n      mul\n      not\n      and\n      swap1\n      dup4\n      0xffffffffffffffffffffffffffffffffffffffff\n      and\n      mul\n      or\n      swap1\n      sstore\n      pop\n        /* \"FundMe.sol\":1939:2034  function transferOwnership(address newOwner) public onlyOwner {... */\n      pop\n      jump\t// out\n        /* \"FundMe.sol\":1731:1933  function convertEthToUsd(uint256 ethAmount) internal view returns(uint256){... */\n    tag_47:\n        /* \"FundMe.sol\":1797:1804  uint256 */\n      0x00\n        /* \"FundMe.sol\":1815:1831  uint256 ethPrice */\n      0x00\n        /* \"FundMe.sol\":1842:1876  getChainlinkDataFeedLatestAnswer() */\n      tag_99\n        /* \"FundMe.sol\":1842:1874  getChainlinkDataFeedLatestAnswer */\n      tag_32\n        /* \"FundMe.sol\":1842:1876  getChainlinkDataFeedLatestAnswer() */\n      jump\t// in\n    tag_99:\n        /* \"FundMe.sol\":1815:1877  uint256 ethPrice = uint256(getChainlinkDataFeedLatestAnswer()) */\n      swap1\n      pop\n        /* \"FundMe.sol\":1918:1925  10 ** 8 */\n      0x05f5e100\n        /* \"FundMe.sol\":1906:1914  ethPrice */\n      dup2\n        /* \"FundMe.sol\":1894:1903  ethAmount */\n      dup5\n        /* \"FundMe.sol\":1894:1914  ethAmount * ethPrice */\n      tag_100\n      swap2\n      swap1\n      tag_101\n      jump\t// in\n    tag_100:\n        /* \"FundMe.sol\":1894:1926  ethAmount * ethPrice / (10 ** 8) */\n      tag_102\n      swap2\n      swap1\n      tag_103\n      jump\t// in\n    tag_102:\n        /* \"FundMe.sol\":1887:1926  return ethAmount * ethPrice / (10 ** 8) */\n      swap2\n      pop\n      pop\n        /* \"FundMe.sol\":1731:1933  function convertEthToUsd(uint256 ethAmount) internal view returns(uint256){... */\n      swap2\n      swap1\n      pop\n      jump\t// out\n        /* \"#utility.yul\":7:133   */\n    tag_104:\n        /* \"#utility.yul\":44:51   */\n      0x00\n        /* \"#utility.yul\":84:126   */\n      0xffffffffffffffffffffffffffffffffffffffff\n        /* \"#utility.yul\":77:82   */\n      dup3\n        /* \"#utility.yul\":73:127   */\n      and\n        /* \"#utility.yul\":62:127   */\n      swap1\n      pop\n        /* \"#utility.yul\":7:133   */\n      swap2\n      swap1\n      pop\n      jump\t// out\n        /* \"#utility.yul\":139:235   */\n    tag_105:\n        /* \"#utility.yul\":176:183   */\n      0x00\n        /* \"#utility.yul\":205:229   */\n      tag_146\n        /* \"#utility.yul\":223:228   */\n      dup3\n        /* \"#utility.yul\":205:229   */\n      tag_104\n      jump\t// in\n    tag_146:\n        /* \"#utility.yul\":194:229   */\n      swap1\n      pop\n        /* \"#utility.yul\":139:235   */\n      swap2\n      swap1\n      pop\n      jump\t// out\n        /* \"#utility.yul\":241:359   */\n    tag_106:\n        /* \"#utility.yul\":328:352   */\n      tag_148\n        /* \"#utility.yul\":346:351   */\n      dup2\n        /* \"#utility.yul\":328:352   */\n      tag_105\n      jump\t// in\n    tag_148:\n        /* \"#utility.yul\":323:326   */\n      dup3\n        /* \"#utility.yul\":316:353   */\n      mstore\n        /* \"#utility.yul\":241:359   */\n      pop\n      pop\n      jump\t// out\n        /* \"#utility.yul\":365:587   */\n    tag_17:\n        /* \"#utility.yul\":458:462   */\n      0x00\n        /* \"#utility.yul\":496:498   */\n      0x20\n        /* \"#utility.yul\":485:494   */\n      dup3\n        /* \"#utility.yul\":481:499   */\n      add\n        /* \"#utility.yul\":473:499   */\n      swap1\n      pop\n        /* \"#utility.yul\":509:580   */\n      tag_150\n        /* \"#utility.yul\":577:578   */\n      0x00\n        /* \"#utility.yul\":566:575   */\n      dup4\n        /* \"#utility.yul\":562:579   */\n      add\n        /* \"#utility.yul\":553:559   */\n      dup5\n        /* \"#utility.yul\":509:580   */\n      tag_106\n      jump\t// in\n    tag_150:\n        /* \"#utility.yul\":365:587   */\n      swap3\n      swap2\n      pop\n      pop\n      jump\t// out\n        /* \"#utility.yul\":674:791   */\n    tag_108:\n        /* \"#utility.yul\":783:784   */\n      0x00\n        /* \"#utility.yul\":780:781   */\n      0x00\n        /* \"#utility.yul\":773:785   */\n      revert\n        /* \"#utility.yul\":920:1042   */\n    tag_110:\n        /* \"#utility.yul\":993:1017   */\n      tag_155\n        /* \"#utility.yul\":1011:1016   */\n      dup2\n        /* \"#utility.yul\":993:1017   */\n      tag_105\n      jump\t// in\n    tag_155:\n        /* \"#utility.yul\":986:991   */\n      dup2\n        /* \"#utility.yul\":983:1018   */\n      eq\n        /* \"#utility.yul\":973:1036   */\n      tag_156\n      jumpi\n        /* \"#utility.yul\":1032:1033   */\n      0x00\n        /* \"#utility.yul\":1029:1030   */\n      0x00\n        /* \"#utility.yul\":1022:1034   */\n      revert\n        /* \"#utility.yul\":973:1036   */\n    tag_156:\n        /* \"#utility.yul\":920:1042   */\n      pop\n      jump\t// out\n        /* \"#utility.yul\":1048:1187   */\n    tag_111:\n        /* \"#utility.yul\":1094:1099   */\n      0x00\n        /* \"#utility.yul\":1132:1138   */\n      dup2\n        /* \"#utility.yul\":1119:1139   */\n      calldataload\n        /* \"#utility.yul\":1110:1139   */\n      swap1\n      pop\n        /* \"#utility.yul\":1148:1181   */\n      tag_158\n        /* \"#utility.yul\":1175:1180   */\n      dup2\n        /* \"#utility.yul\":1148:1181   */\n      tag_110\n      jump\t// in\n    tag_158:\n        /* \"#utility.yul\":1048:1187   */\n      swap3\n      swap2\n      pop\n      pop\n      jump\t// out\n        /* \"#utility.yul\":1193:1522   */\n    tag_24:\n        /* \"#utility.yul\":1252:1258   */\n      0x00\n        /* \"#utility.yul\":1301:1303   */\n      0x20\n        /* \"#utility.yul\":1289:1298   */\n      dup3\n        /* \"#utility.yul\":1280:1287   */\n      dup5\n        /* \"#utility.yul\":1276:1299   */\n      sub\n        /* \"#utility.yul\":1272:1304   */\n      slt\n        /* \"#utility.yul\":1269:1388   */\n      iszero\n      tag_160\n      jumpi\n        /* \"#utility.yul\":1307:1386   */\n      tag_161\n      tag_108\n      jump\t// in\n    tag_161:\n        /* \"#utility.yul\":1269:1388   */\n    tag_160:\n        /* \"#utility.yul\":1427:1428   */\n      0x00\n        /* \"#utility.yul\":1452:1505   */\n      tag_162\n        /* \"#utility.yul\":1497:1504   */\n      dup5\n        /* \"#utility.yul\":1488:1494   */\n      dup3\n        /* \"#utility.yul\":1477:1486   */\n      dup6\n        /* \"#utility.yul\":1473:1495   */\n      add\n        /* \"#utility.yul\":1452:1505   */\n      tag_111\n      jump\t// in\n    tag_162:\n        /* \"#utility.yul\":1442:1505   */\n      swap2\n      pop\n        /* \"#utility.yul\":1398:1515   */\n      pop\n        /* \"#utility.yul\":1193:1522   */\n      swap3\n      swap2\n      pop\n      pop\n      jump\t// out\n        /* \"#utility.yul\":1528:1605   */\n    tag_112:\n        /* \"#utility.yul\":1565:1572   */\n      0x00\n        /* \"#utility.yul\":1594:1599   */\n      dup2\n        /* \"#utility.yul\":1583:1599   */\n      swap1\n      pop\n        /* \"#utility.yul\":1528:1605   */\n      swap2\n      swap1\n      pop\n      jump\t// out\n        /* \"#utility.yul\":1611:1729   */\n    tag_113:\n        /* \"#utility.yul\":1698:1722   */\n      tag_165\n        /* \"#utility.yul\":1716:1721   */\n      dup2\n        /* \"#utility.yul\":1698:1722   */\n      tag_112\n      jump\t// in\n    tag_165:\n        /* \"#utility.yul\":1693:1696   */\n      dup3\n        /* \"#utility.yul\":1686:1723   */\n      mstore\n        /* \"#utility.yul\":1611:1729   */\n      pop\n      pop\n      jump\t// out\n        /* \"#utility.yul\":1735:1957   */\n    tag_27:\n        /* \"#utility.yul\":1828:1832   */\n      0x00\n        /* \"#utility.yul\":1866:1868   */\n      0x20\n        /* \"#utility.yul\":1855:1864   */\n      dup3\n        /* \"#utility.yul\":1851:1869   */\n      add\n        /* \"#utility.yul\":1843:1869   */\n      swap1\n      pop\n        /* \"#utility.yul\":1879:1950   */\n      tag_167\n        /* \"#utility.yul\":1947:1948   */\n      0x00\n        /* \"#utility.yul\":1936:1945   */\n      dup4\n        /* \"#utility.yul\":1932:1949   */\n      add\n        /* \"#utility.yul\":1923:1929   */\n      dup5\n        /* \"#utility.yul\":1879:1950   */\n      tag_113\n      jump\t// in\n    tag_167:\n        /* \"#utility.yul\":1735:1957   */\n      swap3\n      swap2\n      pop\n      pop\n      jump\t// out\n        /* \"#utility.yul\":1963:2039   */\n    tag_114:\n        /* \"#utility.yul\":1999:2006   */\n      0x00\n        /* \"#utility.yul\":2028:2033   */\n      dup2\n        /* \"#utility.yul\":2017:2033   */\n      swap1\n      pop\n        /* \"#utility.yul\":1963:2039   */\n      swap2\n      swap1\n      pop\n      jump\t// out\n        /* \"#utility.yul\":2045:2160   */\n    tag_115:\n        /* \"#utility.yul\":2130:2153   */\n      tag_170\n        /* \"#utility.yul\":2147:2152   */\n      dup2\n        /* \"#utility.yul\":2130:2153   */\n      tag_114\n      jump\t// in\n    tag_170:\n        /* \"#utility.yul\":2125:2128   */\n      dup3\n        /* \"#utility.yul\":2118:2154   */\n      mstore\n        /* \"#utility.yul\":2045:2160   */\n      pop\n      pop\n      jump\t// out\n        /* \"#utility.yul\":2166:2384   */\n    tag_34:\n        /* \"#utility.yul\":2257:2261   */\n      0x00\n        /* \"#utility.yul\":2295:2297   */\n      0x20\n        /* \"#utility.yul\":2284:2293   */\n      dup3\n        /* \"#utility.yul\":2280:2298   */\n      add\n        /* \"#utility.yul\":2272:2298   */\n      swap1\n      pop\n        /* \"#utility.yul\":2308:2377   */\n      tag_172\n        /* \"#utility.yul\":2374:2375   */\n      0x00\n        /* \"#utility.yul\":2363:2372   */\n      dup4\n        /* \"#utility.yul\":2359:2376   */\n      add\n        /* \"#utility.yul\":2350:2356   */\n      dup5\n        /* \"#utility.yul\":2308:2377   */\n      tag_115\n      jump\t// in\n    tag_172:\n        /* \"#utility.yul\":2166:2384   */\n      swap3\n      swap2\n      pop\n      pop\n      jump\t// out\n        /* \"#utility.yul\":2390:2570   */\n    tag_116:\n        /* \"#utility.yul\":2438:2515   */\n      0x4e487b7100000000000000000000000000000000000000000000000000000000\n        /* \"#utility.yul\":2435:2436   */\n      0x00\n        /* \"#utility.yul\":2428:2516   */\n      mstore\n        /* \"#utility.yul\":2535:2539   */\n      0x11\n        /* \"#utility.yul\":2532:2533   */\n      0x04\n        /* \"#utility.yul\":2525:2540   */\n      mstore\n        /* \"#utility.yul\":2559:2563   */\n      0x24\n        /* \"#utility.yul\":2556:2557   */\n      0x00\n        /* \"#utility.yul\":2549:2564   */\n      revert\n        /* \"#utility.yul\":2576:2767   */\n    tag_41:\n        /* \"#utility.yul\":2616:2619   */\n      0x00\n        /* \"#utility.yul\":2635:2655   */\n      tag_175\n        /* \"#utility.yul\":2653:2654   */\n      dup3\n        /* \"#utility.yul\":2635:2655   */\n      tag_112\n      jump\t// in\n    tag_175:\n        /* \"#utility.yul\":2630:2655   */\n      swap2\n      pop\n        /* \"#utility.yul\":2669:2689   */\n      tag_176\n        /* \"#utility.yul\":2687:2688   */\n      dup4\n        /* \"#utility.yul\":2669:2689   */\n      tag_112\n      jump\t// in\n    tag_176:\n        /* \"#utility.yul\":2664:2689   */\n      swap3\n      pop\n        /* \"#utility.yul\":2712:2713   */\n      dup3\n        /* \"#utility.yul\":2709:2710   */\n      dup3\n        /* \"#utility.yul\":2705:2714   */\n      add\n        /* \"#utility.yul\":2698:2714   */\n      swap1\n      pop\n        /* \"#utility.yul\":2733:2736   */\n      dup1\n        /* \"#utility.yul\":2730:2731   */\n      dup3\n        /* \"#utility.yul\":2727:2737   */\n      gt\n        /* \"#utility.yul\":2724:2760   */\n      iszero\n      tag_177\n      jumpi\n        /* \"#utility.yul\":2740:2758   */\n      tag_178\n      tag_116\n      jump\t// in\n    tag_178:\n        /* \"#utility.yul\":2724:2760   */\n    tag_177:\n        /* \"#utility.yul\":2576:2767   */\n      swap3\n      swap2\n      pop\n      pop\n      jump\t// out\n        /* \"#utility.yul\":2773:2942   */\n    tag_117:\n        /* \"#utility.yul\":2857:2868   */\n      0x00\n        /* \"#utility.yul\":2891:2897   */\n      dup3\n        /* \"#utility.yul\":2886:2889   */\n      dup3\n        /* \"#utility.yul\":2879:2898   */\n      mstore\n        /* \"#utility.yul\":2931:2935   */\n      0x20\n        /* \"#utility.yul\":2926:2929   */\n      dup3\n        /* \"#utility.yul\":2922:2936   */\n      add\n        /* \"#utility.yul\":2907:2936   */\n      swap1\n      pop\n        /* \"#utility.yul\":2773:2942   */\n      swap3\n      swap2\n      pop\n      pop\n      jump\t// out\n        /* \"#utility.yul\":2948:3114   */\n    tag_118:\n        /* \"#utility.yul\":3088:3106   */\n      0x77696e646f7720697320636c6f73656400000000000000000000000000000000\n        /* \"#utility.yul\":3084:3085   */\n      0x00\n        /* \"#utility.yul\":3076:3082   */\n      dup3\n        /* \"#utility.yul\":3072:3086   */\n      add\n        /* \"#utility.yul\":3065:3107   */\n      mstore\n        /* \"#utility.yul\":2948:3114   */\n      pop\n      jump\t// out\n        /* \"#utility.yul\":3120:3486   */\n    tag_119:\n        /* \"#utility.yul\":3262:3265   */\n      0x00\n        /* \"#utility.yul\":3283:3350   */\n      tag_182\n        /* \"#utility.yul\":3347:3349   */\n      0x10\n        /* \"#utility.yul\":3342:3345   */\n      dup4\n        /* \"#utility.yul\":3283:3350   */\n      tag_117\n      jump\t// in\n    tag_182:\n        /* \"#utility.yul\":3276:3350   */\n      swap2\n      pop\n        /* \"#utility.yul\":3359:3452   */\n      tag_183\n        /* \"#utility.yul\":3448:3451   */\n      dup3\n        /* \"#utility.yul\":3359:3452   */\n      tag_118\n      jump\t// in\n    tag_183:\n        /* \"#utility.yul\":3477:3479   */\n      0x20\n        /* \"#utility.yul\":3472:3475   */\n      dup3\n        /* \"#utility.yul\":3468:3480   */\n      add\n        /* \"#utility.yul\":3461:3480   */\n      swap1\n      pop\n        /* \"#utility.yul\":3120:3486   */\n      swap2\n      swap1\n      pop\n      jump\t// out\n        /* \"#utility.yul\":3492:3911   */\n    tag_44:\n        /* \"#utility.yul\":3658:3662   */\n      0x00\n        /* \"#utility.yul\":3696:3698   */\n      0x20\n        /* \"#utility.yul\":3685:3694   */\n      dup3\n        /* \"#utility.yul\":3681:3699   */\n      add\n        /* \"#utility.yul\":3673:3699   */\n      swap1\n      pop\n        /* \"#utility.yul\":3745:3754   */\n      dup2\n        /* \"#utility.yul\":3739:3743   */\n      dup2\n        /* \"#utility.yul\":3735:3755   */\n      sub\n        /* \"#utility.yul\":3731:3732   */\n      0x00\n        /* \"#utility.yul\":3720:3729   */\n      dup4\n        /* \"#utility.yul\":3716:3733   */\n      add\n        /* \"#utility.yul\":3709:3756   */\n      mstore\n        /* \"#utility.yul\":3773:3904   */\n      tag_185\n        /* \"#utility.yul\":3899:3903   */\n      dup2\n        /* \"#utility.yul\":3773:3904   */\n      tag_119\n      jump\t// in\n    tag_185:\n        /* \"#utility.yul\":3765:3904   */\n      swap1\n      pop\n        /* \"#utility.yul\":3492:3911   */\n      swap2\n      swap1\n      pop\n      jump\t// out\n        /* \"#utility.yul\":3917:4084   */\n    tag_120:\n        /* \"#utility.yul\":4057:4076   */\n      0x5461726765742069732072656163686564000000000000000000000000000000\n        /* \"#utility.yul\":4053:4054   */\n      0x00\n        /* \"#utility.yul\":4045:4051   */\n      dup3\n        /* \"#utility.yul\":4041:4055   */\n      add\n        /* \"#utility.yul\":4034:4077   */\n      mstore\n        /* \"#utility.yul\":3917:4084   */\n      pop\n      jump\t// out\n        /* \"#utility.yul\":4090:4456   */\n    tag_121:\n        /* \"#utility.yul\":4232:4235   */\n      0x00\n        /* \"#utility.yul\":4253:4320   */\n      tag_188\n        /* \"#utility.yul\":4317:4319   */\n      0x11\n        /* \"#utility.yul\":4312:4315   */\n      dup4\n        /* \"#utility.yul\":4253:4320   */\n      tag_117\n      jump\t// in\n    tag_188:\n        /* \"#utility.yul\":4246:4320   */\n      swap2\n      pop\n        /* \"#utility.yul\":4329:4422   */\n      tag_189\n        /* \"#utility.yul\":4418:4421   */\n      dup3\n        /* \"#utility.yul\":4329:4422   */\n      tag_120\n      jump\t// in\n    tag_189:\n        /* \"#utility.yul\":4447:4449   */\n      0x20\n        /* \"#utility.yul\":4442:4445   */\n      dup3\n        /* \"#utility.yul\":4438:4450   */\n      add\n        /* \"#utility.yul\":4431:4450   */\n      swap1\n      pop\n        /* \"#utility.yul\":4090:4456   */\n      swap2\n      swap1\n      pop\n      jump\t// out\n        /* \"#utility.yul\":4462:4881   */\n    tag_50:\n        /* \"#utility.yul\":4628:4632   */\n      0x00\n        /* \"#utility.yul\":4666:4668   */\n      0x20\n        /* \"#utility.yul\":4655:4664   */\n      dup3\n        /* \"#utility.yul\":4651:4669   */\n      add\n        /* \"#utility.yul\":4643:4669   */\n      swap1\n      pop\n        /* \"#utility.yul\":4715:4724   */\n      dup2\n        /* \"#utility.yul\":4709:4713   */\n      dup2\n        /* \"#utility.yul\":4705:4725   */\n      sub\n        /* \"#utility.yul\":4701:4702   */\n      0x00\n        /* \"#utility.yul\":4690:4699   */\n      dup4\n        /* \"#utility.yul\":4686:4703   */\n      add\n        /* \"#utility.yul\":4679:4726   */\n      mstore\n        /* \"#utility.yul\":4743:4874   */\n      tag_191\n        /* \"#utility.yul\":4869:4873   */\n      dup2\n        /* \"#utility.yul\":4743:4874   */\n      tag_121\n      jump\t// in\n    tag_191:\n        /* \"#utility.yul\":4735:4874   */\n      swap1\n      pop\n        /* \"#utility.yul\":4462:4881   */\n      swap2\n      swap1\n      pop\n      jump\t// out\n        /* \"#utility.yul\":4887:5061   */\n    tag_122:\n        /* \"#utility.yul\":5027:5053   */\n      0x7468657265206973206e6f2066756e6420666f7220796f750000000000000000\n        /* \"#utility.yul\":5023:5024   */\n      0x00\n        /* \"#utility.yul\":5015:5021   */\n      dup3\n        /* \"#utility.yul\":5011:5025   */\n      add\n        /* \"#utility.yul\":5004:5054   */\n      mstore\n        /* \"#utility.yul\":4887:5061   */\n      pop\n      jump\t// out\n        /* \"#utility.yul\":5067:5433   */\n    tag_123:\n        /* \"#utility.yul\":5209:5212   */\n      0x00\n        /* \"#utility.yul\":5230:5297   */\n      tag_194\n        /* \"#utility.yul\":5294:5296   */\n      0x18\n        /* \"#utility.yul\":5289:5292   */\n      dup4\n        /* \"#utility.yul\":5230:5297   */\n      tag_117\n      jump\t// in\n    tag_194:\n        /* \"#utility.yul\":5223:5297   */\n      swap2\n      pop\n        /* \"#utility.yul\":5306:5399   */\n      tag_195\n        /* \"#utility.yul\":5395:5398   */\n      dup3\n        /* \"#utility.yul\":5306:5399   */\n      tag_122\n      jump\t// in\n    tag_195:\n        /* \"#utility.yul\":5424:5426   */\n      0x20\n        /* \"#utility.yul\":5419:5422   */\n      dup3\n        /* \"#utility.yul\":5415:5427   */\n      add\n        /* \"#utility.yul\":5408:5427   */\n      swap1\n      pop\n        /* \"#utility.yul\":5067:5433   */\n      swap2\n      swap1\n      pop\n      jump\t// out\n        /* \"#utility.yul\":5439:5858   */\n    tag_53:\n        /* \"#utility.yul\":5605:5609   */\n      0x00\n        /* \"#utility.yul\":5643:5645   */\n      0x20\n        /* \"#utility.yul\":5632:5641   */\n      dup3\n        /* \"#utility.yul\":5628:5646   */\n      add\n        /* \"#utility.yul\":5620:5646   */\n      swap1\n      pop\n        /* \"#utility.yul\":5692:5701   */\n      dup2\n        /* \"#utility.yul\":5686:5690   */\n      dup2\n        /* \"#utility.yul\":5682:5702   */\n      sub\n        /* \"#utility.yul\":5678:5679   */\n      0x00\n        /* \"#utility.yul\":5667:5676   */\n      dup4\n        /* \"#utility.yul\":5663:5680   */\n      add\n        /* \"#utility.yul\":5656:5703   */\n      mstore\n        /* \"#utility.yul\":5720:5851   */\n      tag_197\n        /* \"#utility.yul\":5846:5850   */\n      dup2\n        /* \"#utility.yul\":5720:5851   */\n      tag_123\n      jump\t// in\n    tag_197:\n        /* \"#utility.yul\":5712:5851   */\n      swap1\n      pop\n        /* \"#utility.yul\":5439:5858   */\n      swap2\n      swap1\n      pop\n      jump\t// out\n        /* \"#utility.yul\":5864:6011   */\n    tag_124:\n        /* \"#utility.yul\":5965:5976   */\n      0x00\n        /* \"#utility.yul\":6002:6005   */\n      dup2\n        /* \"#utility.yul\":5987:6005   */\n      swap1\n      pop\n        /* \"#utility.yul\":5864:6011   */\n      swap3\n      swap2\n      pop\n      pop\n      jump\t// out\n        /* \"#utility.yul\":6017:6131   */\n    tag_125:\n      pop\n      jump\t// out\n        /* \"#utility.yul\":6137:6535   */\n    tag_126:\n        /* \"#utility.yul\":6296:6299   */\n      0x00\n        /* \"#utility.yul\":6317:6400   */\n      tag_201\n        /* \"#utility.yul\":6398:6399   */\n      0x00\n        /* \"#utility.yul\":6393:6396   */\n      dup4\n        /* \"#utility.yul\":6317:6400   */\n      tag_124\n      jump\t// in\n    tag_201:\n        /* \"#utility.yul\":6310:6400   */\n      swap2\n      pop\n        /* \"#utility.yul\":6409:6502   */\n      tag_202\n        /* \"#utility.yul\":6498:6501   */\n      dup3\n        /* \"#utility.yul\":6409:6502   */\n      tag_125\n      jump\t// in\n    tag_202:\n        /* \"#utility.yul\":6527:6528   */\n      0x00\n        /* \"#utility.yul\":6522:6525   */\n      dup3\n        /* \"#utility.yul\":6518:6529   */\n      add\n        /* \"#utility.yul\":6511:6529   */\n      swap1\n      pop\n        /* \"#utility.yul\":6137:6535   */\n      swap2\n      swap1\n      pop\n      jump\t// out\n        /* \"#utility.yul\":6541:6920   */\n    tag_55:\n        /* \"#utility.yul\":6725:6728   */\n      0x00\n        /* \"#utility.yul\":6747:6894   */\n      tag_204\n        /* \"#utility.yul\":6890:6893   */\n      dup3\n        /* \"#utility.yul\":6747:6894   */\n      tag_126\n      jump\t// in\n    tag_204:\n        /* \"#utility.yul\":6740:6894   */\n      swap2\n      pop\n        /* \"#utility.yul\":6911:6914   */\n      dup2\n        /* \"#utility.yul\":6904:6914   */\n      swap1\n      pop\n        /* \"#utility.yul\":6541:6920   */\n      swap2\n      swap1\n      pop\n      jump\t// out\n        /* \"#utility.yul\":6926:7094   */\n    tag_127:\n        /* \"#utility.yul\":7066:7086   */\n      0x5472616e73666572207478206661696c65640000000000000000000000000000\n        /* \"#utility.yul\":7062:7063   */\n      0x00\n        /* \"#utility.yul\":7054:7060   */\n      dup3\n        /* \"#utility.yul\":7050:7064   */\n      add\n        /* \"#utility.yul\":7043:7087   */\n      mstore\n        /* \"#utility.yul\":6926:7094   */\n      pop\n      jump\t// out\n        /* \"#utility.yul\":7100:7466   */\n    tag_128:\n        /* \"#utility.yul\":7242:7245   */\n      0x00\n        /* \"#utility.yul\":7263:7330   */\n      tag_207\n        /* \"#utility.yul\":7327:7329   */\n      0x12\n        /* \"#utility.yul\":7322:7325   */\n      dup4\n        /* \"#utility.yul\":7263:7330   */\n      tag_117\n      jump\t// in\n    tag_207:\n        /* \"#utility.yul\":7256:7330   */\n      swap2\n      pop\n        /* \"#utility.yul\":7339:7432   */\n      tag_208\n        /* \"#utility.yul\":7428:7431   */\n      dup3\n        /* \"#utility.yul\":7339:7432   */\n      tag_127\n      jump\t// in\n    tag_208:\n        /* \"#utility.yul\":7457:7459   */\n      0x20\n        /* \"#utility.yul\":7452:7455   */\n      dup3\n        /* \"#utility.yul\":7448:7460   */\n      add\n        /* \"#utility.yul\":7441:7460   */\n      swap1\n      pop\n        /* \"#utility.yul\":7100:7466   */\n      swap2\n      swap1\n      pop\n      jump\t// out\n        /* \"#utility.yul\":7472:7891   */\n    tag_61:\n        /* \"#utility.yul\":7638:7642   */\n      0x00\n        /* \"#utility.yul\":7676:7678   */\n      0x20\n        /* \"#utility.yul\":7665:7674   */\n      dup3\n        /* \"#utility.yul\":7661:7679   */\n      add\n        /* \"#utility.yul\":7653:7679   */\n      swap1\n      pop\n        /* \"#utility.yul\":7725:7734   */\n      dup2\n        /* \"#utility.yul\":7719:7723   */\n      dup2\n        /* \"#utility.yul\":7715:7735   */\n      sub\n        /* \"#utility.yul\":7711:7712   */\n      0x00\n        /* \"#utility.yul\":7700:7709   */\n      dup4\n        /* \"#utility.yul\":7696:7713   */\n      add\n        /* \"#utility.yul\":7689:7736   */\n      mstore\n        /* \"#utility.yul\":7753:7884   */\n      tag_210\n        /* \"#utility.yul\":7879:7883   */\n      dup2\n        /* \"#utility.yul\":7753:7884   */\n      tag_128\n      jump\t// in\n    tag_210:\n        /* \"#utility.yul\":7745:7884   */\n      swap1\n      pop\n        /* \"#utility.yul\":7472:7891   */\n      swap2\n      swap1\n      pop\n      jump\t// out\n        /* \"#utility.yul\":7897:8124   */\n    tag_129:\n        /* \"#utility.yul\":8037:8071   */\n      0x746869732066756e6374696e2063616e206f6e6c792062652063616c6c656420\n        /* \"#utility.yul\":8033:8034   */\n      0x00\n        /* \"#utility.yul\":8025:8031   */\n      dup3\n        /* \"#utility.yul\":8021:8035   */\n      add\n        /* \"#utility.yul\":8014:8072   */\n      mstore\n        /* \"#utility.yul\":8106:8116   */\n      0x6279206f776e6572000000000000000000000000000000000000000000000000\n        /* \"#utility.yul\":8101:8103   */\n      0x20\n        /* \"#utility.yul\":8093:8099   */\n      dup3\n        /* \"#utility.yul\":8089:8104   */\n      add\n        /* \"#utility.yul\":8082:8117   */\n      mstore\n        /* \"#utility.yul\":7897:8124   */\n      pop\n      jump\t// out\n        /* \"#utility.yul\":8130:8496   */\n    tag_130:\n        /* \"#utility.yul\":8272:8275   */\n      0x00\n        /* \"#utility.yul\":8293:8360   */\n      tag_213\n        /* \"#utility.yul\":8357:8359   */\n      0x28\n        /* \"#utility.yul\":8352:8355   */\n      dup4\n        /* \"#utility.yul\":8293:8360   */\n      tag_117\n      jump\t// in\n    tag_213:\n        /* \"#utility.yul\":8286:8360   */\n      swap2\n      pop\n        /* \"#utility.yul\":8369:8462   */\n      tag_214\n        /* \"#utility.yul\":8458:8461   */\n      dup3\n        /* \"#utility.yul\":8369:8462   */\n      tag_129\n      jump\t// in\n    tag_214:\n        /* \"#utility.yul\":8487:8489   */\n      0x40\n        /* \"#utility.yul\":8482:8485   */\n      dup3\n        /* \"#utility.yul\":8478:8490   */\n      add\n        /* \"#utility.yul\":8471:8490   */\n      swap1\n      pop\n        /* \"#utility.yul\":8130:8496   */\n      swap2\n      swap1\n      pop\n      jump\t// out\n        /* \"#utility.yul\":8502:8921   */\n    tag_69:\n        /* \"#utility.yul\":8668:8672   */\n      0x00\n        /* \"#utility.yul\":8706:8708   */\n      0x20\n        /* \"#utility.yul\":8695:8704   */\n      dup3\n        /* \"#utility.yul\":8691:8709   */\n      add\n        /* \"#utility.yul\":8683:8709   */\n      swap1\n      pop\n        /* \"#utility.yul\":8755:8764   */\n      dup2\n        /* \"#utility.yul\":8749:8753   */\n      dup2\n        /* \"#utility.yul\":8745:8765   */\n      sub\n        /* \"#utility.yul\":8741:8742   */\n      0x00\n        /* \"#utility.yul\":8730:8739   */\n      dup4\n        /* \"#utility.yul\":8726:8743   */\n      add\n        /* \"#utility.yul\":8719:8766   */\n      mstore\n        /* \"#utility.yul\":8783:8914   */\n      tag_216\n        /* \"#utility.yul\":8909:8913   */\n      dup2\n        /* \"#utility.yul\":8783:8914   */\n      tag_130\n      jump\t// in\n    tag_216:\n        /* \"#utility.yul\":8775:8914   */\n      swap1\n      pop\n        /* \"#utility.yul\":8502:8921   */\n      swap2\n      swap1\n      pop\n      jump\t// out\n        /* \"#utility.yul\":8927:9098   */\n    tag_131:\n        /* \"#utility.yul\":9067:9090   */\n      0x546172676574206973206e6f7420726561636865640000000000000000000000\n        /* \"#utility.yul\":9063:9064   */\n      0x00\n        /* \"#utility.yul\":9055:9061   */\n      dup3\n        /* \"#utility.yul\":9051:9065   */\n      add\n        /* \"#utility.yul\":9044:9091   */\n      mstore\n        /* \"#utility.yul\":8927:9098   */\n      pop\n      jump\t// out\n        /* \"#utility.yul\":9104:9470   */\n    tag_132:\n        /* \"#utility.yul\":9246:9249   */\n      0x00\n        /* \"#utility.yul\":9267:9334   */\n      tag_219\n        /* \"#utility.yul\":9331:9333   */\n      0x15\n        /* \"#utility.yul\":9326:9329   */\n      dup4\n        /* \"#utility.yul\":9267:9334   */\n      tag_117\n      jump\t// in\n    tag_219:\n        /* \"#utility.yul\":9260:9334   */\n      swap2\n      pop\n        /* \"#utility.yul\":9343:9436   */\n      tag_220\n        /* \"#utility.yul\":9432:9435   */\n      dup3\n        /* \"#utility.yul\":9343:9436   */\n      tag_131\n      jump\t// in\n    tag_220:\n        /* \"#utility.yul\":9461:9463   */\n      0x20\n        /* \"#utility.yul\":9456:9459   */\n      dup3\n        /* \"#utility.yul\":9452:9464   */\n      add\n        /* \"#utility.yul\":9445:9464   */\n      swap1\n      pop\n        /* \"#utility.yul\":9104:9470   */\n      swap2\n      swap1\n      pop\n      jump\t// out\n        /* \"#utility.yul\":9476:9895   */\n    tag_74:\n        /* \"#utility.yul\":9642:9646   */\n      0x00\n        /* \"#utility.yul\":9680:9682   */\n      0x20\n        /* \"#utility.yul\":9669:9678   */\n      dup3\n        /* \"#utility.yul\":9665:9683   */\n      add\n        /* \"#utility.yul\":9657:9683   */\n      swap1\n      pop\n        /* \"#utility.yul\":9729:9738   */\n      dup2\n        /* \"#utility.yul\":9723:9727   */\n      dup2\n        /* \"#utility.yul\":9719:9739   */\n      sub\n        /* \"#utility.yul\":9715:9716   */\n      0x00\n        /* \"#utility.yul\":9704:9713   */\n      dup4\n        /* \"#utility.yul\":9700:9717   */\n      add\n        /* \"#utility.yul\":9693:9740   */\n      mstore\n        /* \"#utility.yul\":9757:9888   */\n      tag_222\n        /* \"#utility.yul\":9883:9887   */\n      dup2\n        /* \"#utility.yul\":9757:9888   */\n      tag_132\n      jump\t// in\n    tag_222:\n        /* \"#utility.yul\":9749:9888   */\n      swap1\n      pop\n        /* \"#utility.yul\":9476:9895   */\n      swap2\n      swap1\n      pop\n      jump\t// out\n        /* \"#utility.yul\":9901:10064   */\n    tag_133:\n        /* \"#utility.yul\":10041:10056   */\n      0x53656e64206d6f72652045544800000000000000000000000000000000000000\n        /* \"#utility.yul\":10037:10038   */\n      0x00\n        /* \"#utility.yul\":10029:10035   */\n      dup3\n        /* \"#utility.yul\":10025:10039   */\n      add\n        /* \"#utility.yul\":10018:10057   */\n      mstore\n        /* \"#utility.yul\":9901:10064   */\n      pop\n      jump\t// out\n        /* \"#utility.yul\":10070:10436   */\n    tag_134:\n        /* \"#utility.yul\":10212:10215   */\n      0x00\n        /* \"#utility.yul\":10233:10300   */\n      tag_225\n        /* \"#utility.yul\":10297:10299   */\n      0x0d\n        /* \"#utility.yul\":10292:10295   */\n      dup4\n        /* \"#utility.yul\":10233:10300   */\n      tag_117\n      jump\t// in\n    tag_225:\n        /* \"#utility.yul\":10226:10300   */\n      swap2\n      pop\n        /* \"#utility.yul\":10309:10402   */\n      tag_226\n        /* \"#utility.yul\":10398:10401   */\n      dup3\n        /* \"#utility.yul\":10309:10402   */\n      tag_133\n      jump\t// in\n    tag_226:\n        /* \"#utility.yul\":10427:10429   */\n      0x20\n        /* \"#utility.yul\":10422:10425   */\n      dup3\n        /* \"#utility.yul\":10418:10430   */\n      add\n        /* \"#utility.yul\":10411:10430   */\n      swap1\n      pop\n        /* \"#utility.yul\":10070:10436   */\n      swap2\n      swap1\n      pop\n      jump\t// out\n        /* \"#utility.yul\":10442:10861   */\n    tag_85:\n        /* \"#utility.yul\":10608:10612   */\n      0x00\n        /* \"#utility.yul\":10646:10648   */\n      0x20\n        /* \"#utility.yul\":10635:10644   */\n      dup3\n        /* \"#utility.yul\":10631:10649   */\n      add\n        /* \"#utility.yul\":10623:10649   */\n      swap1\n      pop\n        /* \"#utility.yul\":10695:10704   */\n      dup2\n        /* \"#utility.yul\":10689:10693   */\n      dup2\n        /* \"#utility.yul\":10685:10705   */\n      sub\n        /* \"#utility.yul\":10681:10682   */\n      0x00\n        /* \"#utility.yul\":10670:10679   */\n      dup4\n        /* \"#utility.yul\":10666:10683   */\n      add\n        /* \"#utility.yul\":10659:10706   */\n      mstore\n        /* \"#utility.yul\":10723:10854   */\n      tag_228\n        /* \"#utility.yul\":10849:10853   */\n      dup2\n        /* \"#utility.yul\":10723:10854   */\n      tag_134\n      jump\t// in\n    tag_228:\n        /* \"#utility.yul\":10715:10854   */\n      swap1\n      pop\n        /* \"#utility.yul\":10442:10861   */\n      swap2\n      swap1\n      pop\n      jump\t// out\n        /* \"#utility.yul\":10867:10972   */\n    tag_135:\n        /* \"#utility.yul\":10903:10910   */\n      0x00\n        /* \"#utility.yul\":10943:10965   */\n      0xffffffffffffffffffff\n        /* \"#utility.yul\":10936:10941   */\n      dup3\n        /* \"#utility.yul\":10932:10966   */\n      and\n        /* \"#utility.yul\":10921:10966   */\n      swap1\n      pop\n        /* \"#utility.yul\":10867:10972   */\n      swap2\n      swap1\n      pop\n      jump\t// out\n        /* \"#utility.yul\":10978:11098   */\n    tag_136:\n        /* \"#utility.yul\":11050:11073   */\n      tag_231\n        /* \"#utility.yul\":11067:11072   */\n      dup2\n        /* \"#utility.yul\":11050:11073   */\n      tag_135\n      jump\t// in\n    tag_231:\n        /* \"#utility.yul\":11043:11048   */\n      dup2\n        /* \"#utility.yul\":11040:11074   */\n      eq\n        /* \"#utility.yul\":11030:11092   */\n      tag_232\n      jumpi\n        /* \"#utility.yul\":11088:11089   */\n      0x00\n        /* \"#utility.yul\":11085:11086   */\n      0x00\n        /* \"#utility.yul\":11078:11090   */\n      revert\n        /* \"#utility.yul\":11030:11092   */\n    tag_232:\n        /* \"#utility.yul\":10978:11098   */\n      pop\n      jump\t// out\n        /* \"#utility.yul\":11104:11245   */\n    tag_137:\n        /* \"#utility.yul\":11160:11165   */\n      0x00\n        /* \"#utility.yul\":11191:11197   */\n      dup2\n        /* \"#utility.yul\":11185:11198   */\n      mload\n        /* \"#utility.yul\":11176:11198   */\n      swap1\n      pop\n        /* \"#utility.yul\":11207:11239   */\n      tag_234\n        /* \"#utility.yul\":11233:11238   */\n      dup2\n        /* \"#utility.yul\":11207:11239   */\n      tag_136\n      jump\t// in\n    tag_234:\n        /* \"#utility.yul\":11104:11245   */\n      swap3\n      swap2\n      pop\n      pop\n      jump\t// out\n        /* \"#utility.yul\":11251:11371   */\n    tag_138:\n        /* \"#utility.yul\":11323:11346   */\n      tag_236\n        /* \"#utility.yul\":11340:11345   */\n      dup2\n        /* \"#utility.yul\":11323:11346   */\n      tag_114\n      jump\t// in\n    tag_236:\n        /* \"#utility.yul\":11316:11321   */\n      dup2\n        /* \"#utility.yul\":11313:11347   */\n      eq\n        /* \"#utility.yul\":11303:11365   */\n      tag_237\n      jumpi\n        /* \"#utility.yul\":11361:11362   */\n      0x00\n        /* \"#utility.yul\":11358:11359   */\n      0x00\n        /* \"#utility.yul\":11351:11363   */\n      revert\n        /* \"#utility.yul\":11303:11365   */\n    tag_237:\n        /* \"#utility.yul\":11251:11371   */\n      pop\n      jump\t// out\n        /* \"#utility.yul\":11377:11518   */\n    tag_139:\n        /* \"#utility.yul\":11433:11438   */\n      0x00\n        /* \"#utility.yul\":11464:11470   */\n      dup2\n        /* \"#utility.yul\":11458:11471   */\n      mload\n        /* \"#utility.yul\":11449:11471   */\n      swap1\n      pop\n        /* \"#utility.yul\":11480:11512   */\n      tag_239\n        /* \"#utility.yul\":11506:11511   */\n      dup2\n        /* \"#utility.yul\":11480:11512   */\n      tag_138\n      jump\t// in\n    tag_239:\n        /* \"#utility.yul\":11377:11518   */\n      swap3\n      swap2\n      pop\n      pop\n      jump\t// out\n        /* \"#utility.yul\":11524:11646   */\n    tag_140:\n        /* \"#utility.yul\":11597:11621   */\n      tag_241\n        /* \"#utility.yul\":11615:11620   */\n      dup2\n        /* \"#utility.yul\":11597:11621   */\n      tag_112\n      jump\t// in\n    tag_241:\n        /* \"#utility.yul\":11590:11595   */\n      dup2\n        /* \"#utility.yul\":11587:11622   */\n      eq\n        /* \"#utility.yul\":11577:11640   */\n      tag_242\n      jumpi\n        /* \"#utility.yul\":11636:11637   */\n      0x00\n        /* \"#utility.yul\":11633:11634   */\n      0x00\n        /* \"#utility.yul\":11626:11638   */\n      revert\n        /* \"#utility.yul\":11577:11640   */\n    tag_242:\n        /* \"#utility.yul\":11524:11646   */\n      pop\n      jump\t// out\n        /* \"#utility.yul\":11652:11795   */\n    tag_141:\n        /* \"#utility.yul\":11709:11714   */\n      0x00\n        /* \"#utility.yul\":11740:11746   */\n      dup2\n        /* \"#utility.yul\":11734:11747   */\n      mload\n        /* \"#utility.yul\":11725:11747   */\n      swap1\n      pop\n        /* \"#utility.yul\":11756:11789   */\n      tag_244\n        /* \"#utility.yul\":11783:11788   */\n      dup2\n        /* \"#utility.yul\":11756:11789   */\n      tag_140\n      jump\t// in\n    tag_244:\n        /* \"#utility.yul\":11652:11795   */\n      swap3\n      swap2\n      pop\n      pop\n      jump\t// out\n        /* \"#utility.yul\":11801:12772   */\n    tag_93:\n        /* \"#utility.yul\":11904:11910   */\n      0x00\n        /* \"#utility.yul\":11912:11918   */\n      0x00\n        /* \"#utility.yul\":11920:11926   */\n      0x00\n        /* \"#utility.yul\":11928:11934   */\n      0x00\n        /* \"#utility.yul\":11936:11942   */\n      0x00\n        /* \"#utility.yul\":11985:11988   */\n      0xa0\n        /* \"#utility.yul\":11973:11982   */\n      dup7\n        /* \"#utility.yul\":11964:11971   */\n      dup9\n        /* \"#utility.yul\":11960:11983   */\n      sub\n        /* \"#utility.yul\":11956:11989   */\n      slt\n        /* \"#utility.yul\":11953:12073   */\n      iszero\n      tag_246\n      jumpi\n        /* \"#utility.yul\":11992:12071   */\n      tag_247\n      tag_108\n      jump\t// in\n    tag_247:\n        /* \"#utility.yul\":11953:12073   */\n    tag_246:\n        /* \"#utility.yul\":12112:12113   */\n      0x00\n        /* \"#utility.yul\":12137:12200   */\n      tag_248\n        /* \"#utility.yul\":12192:12199   */\n      dup9\n        /* \"#utility.yul\":12183:12189   */\n      dup3\n        /* \"#utility.yul\":12172:12181   */\n      dup10\n        /* \"#utility.yul\":12168:12190   */\n      add\n        /* \"#utility.yul\":12137:12200   */\n      tag_137\n      jump\t// in\n    tag_248:\n        /* \"#utility.yul\":12127:12200   */\n      swap6\n      pop\n        /* \"#utility.yul\":12083:12210   */\n      pop\n        /* \"#utility.yul\":12249:12251   */\n      0x20\n        /* \"#utility.yul\":12275:12338   */\n      tag_249\n        /* \"#utility.yul\":12330:12337   */\n      dup9\n        /* \"#utility.yul\":12321:12327   */\n      dup3\n        /* \"#utility.yul\":12310:12319   */\n      dup10\n        /* \"#utility.yul\":12306:12328   */\n      add\n        /* \"#utility.yul\":12275:12338   */\n      tag_139\n      jump\t// in\n    tag_249:\n        /* \"#utility.yul\":12265:12338   */\n      swap5\n      pop\n        /* \"#utility.yul\":12220:12348   */\n      pop\n        /* \"#utility.yul\":12387:12389   */\n      0x40\n        /* \"#utility.yul\":12413:12477   */\n      tag_250\n        /* \"#utility.yul\":12469:12476   */\n      dup9\n        /* \"#utility.yul\":12460:12466   */\n      dup3\n        /* \"#utility.yul\":12449:12458   */\n      dup10\n        /* \"#utility.yul\":12445:12467   */\n      add\n        /* \"#utility.yul\":12413:12477   */\n      tag_141\n      jump\t// in\n    tag_250:\n        /* \"#utility.yul\":12403:12477   */\n      swap4\n      pop\n        /* \"#utility.yul\":12358:12487   */\n      pop\n        /* \"#utility.yul\":12526:12528   */\n      0x60\n        /* \"#utility.yul\":12552:12616   */\n      tag_251\n        /* \"#utility.yul\":12608:12615   */\n      dup9\n        /* \"#utility.yul\":12599:12605   */\n      dup3\n        /* \"#utility.yul\":12588:12597   */\n      dup10\n        /* \"#utility.yul\":12584:12606   */\n      add\n        /* \"#utility.yul\":12552:12616   */\n      tag_141\n      jump\t// in\n    tag_251:\n        /* \"#utility.yul\":12542:12616   */\n      swap3\n      pop\n        /* \"#utility.yul\":12497:12626   */\n      pop\n        /* \"#utility.yul\":12665:12668   */\n      0x80\n        /* \"#utility.yul\":12692:12755   */\n      tag_252\n        /* \"#utility.yul\":12747:12754   */\n      dup9\n        /* \"#utility.yul\":12738:12744   */\n      dup3\n        /* \"#utility.yul\":12727:12736   */\n      dup10\n        /* \"#utility.yul\":12723:12745   */\n      add\n        /* \"#utility.yul\":12692:12755   */\n      tag_137\n      jump\t// in\n    tag_252:\n        /* \"#utility.yul\":12682:12755   */\n      swap2\n      pop\n        /* \"#utility.yul\":12636:12765   */\n      pop\n        /* \"#utility.yul\":11801:12772   */\n      swap3\n      swap6\n      pop\n      swap3\n      swap6\n      swap1\n      swap4\n      pop\n      jump\t// out\n        /* \"#utility.yul\":12778:13188   */\n    tag_101:\n        /* \"#utility.yul\":12818:12825   */\n      0x00\n        /* \"#utility.yul\":12841:12861   */\n      tag_254\n        /* \"#utility.yul\":12859:12860   */\n      dup3\n        /* \"#utility.yul\":12841:12861   */\n      tag_112\n      jump\t// in\n    tag_254:\n        /* \"#utility.yul\":12836:12861   */\n      swap2\n      pop\n        /* \"#utility.yul\":12875:12895   */\n      tag_255\n        /* \"#utility.yul\":12893:12894   */\n      dup4\n        /* \"#utility.yul\":12875:12895   */\n      tag_112\n      jump\t// in\n    tag_255:\n        /* \"#utility.yul\":12870:12895   */\n      swap3\n      pop\n        /* \"#utility.yul\":12930:12931   */\n      dup3\n        /* \"#utility.yul\":12927:12928   */\n      dup3\n        /* \"#utility.yul\":12923:12932   */\n      mul\n        /* \"#utility.yul\":12952:12982   */\n      tag_256\n        /* \"#utility.yul\":12970:12981   */\n      dup2\n        /* \"#utility.yul\":12952:12982   */\n      tag_112\n      jump\t// in\n    tag_256:\n        /* \"#utility.yul\":12941:12982   */\n      swap2\n      pop\n        /* \"#utility.yul\":13131:13132   */\n      dup3\n        /* \"#utility.yul\":13122:13129   */\n      dup3\n        /* \"#utility.yul\":13118:13133   */\n      div\n        /* \"#utility.yul\":13115:13116   */\n      dup5\n        /* \"#utility.yul\":13112:13134   */\n      eq\n        /* \"#utility.yul\":13092:13093   */\n      dup4\n        /* \"#utility.yul\":13085:13094   */\n      iszero\n        /* \"#utility.yul\":13065:13148   */\n      or\n        /* \"#utility.yul\":13042:13181   */\n      tag_257\n      jumpi\n        /* \"#utility.yul\":13161:13179   */\n      tag_258\n      tag_116\n      jump\t// in\n    tag_258:\n        /* \"#utility.yul\":13042:13181   */\n    tag_257:\n        /* \"#utility.yul\":12826:13188   */\n      pop\n        /* \"#utility.yul\":12778:13188   */\n      swap3\n      swap2\n      pop\n      pop\n      jump\t// out\n        /* \"#utility.yul\":13194:13374   */\n    tag_142:\n        /* \"#utility.yul\":13242:13319   */\n      0x4e487b7100000000000000000000000000000000000000000000000000000000\n        /* \"#utility.yul\":13239:13240   */\n      0x00\n        /* \"#utility.yul\":13232:13320   */\n      mstore\n        /* \"#utility.yul\":13339:13343   */\n      0x12\n        /* \"#utility.yul\":13336:13337   */\n      0x04\n        /* \"#utility.yul\":13329:13344   */\n      mstore\n        /* \"#utility.yul\":13363:13367   */\n      0x24\n        /* \"#utility.yul\":13360:13361   */\n      0x00\n        /* \"#utility.yul\":13353:13368   */\n      revert\n        /* \"#utility.yul\":13380:13565   */\n    tag_103:\n        /* \"#utility.yul\":13420:13421   */\n      0x00\n        /* \"#utility.yul\":13437:13457   */\n      tag_261\n        /* \"#utility.yul\":13455:13456   */\n      dup3\n        /* \"#utility.yul\":13437:13457   */\n      tag_112\n      jump\t// in\n    tag_261:\n        /* \"#utility.yul\":13432:13457   */\n      swap2\n      pop\n        /* \"#utility.yul\":13471:13491   */\n      tag_262\n        /* \"#utility.yul\":13489:13490   */\n      dup4\n        /* \"#utility.yul\":13471:13491   */\n      tag_112\n      jump\t// in\n    tag_262:\n        /* \"#utility.yul\":13466:13491   */\n      swap3\n      pop\n        /* \"#utility.yul\":13510:13511   */\n      dup3\n        /* \"#utility.yul\":13500:13535   */\n      tag_263\n      jumpi\n        /* \"#utility.yul\":13515:13533   */\n      tag_264\n      tag_142\n      jump\t// in\n    tag_264:\n        /* \"#utility.yul\":13500:13535   */\n    tag_263:\n        /* \"#utility.yul\":13557:13558   */\n      dup3\n        /* \"#utility.yul\":13554:13555   */\n      dup3\n        /* \"#utility.yul\":13550:13559   */\n      div\n        /* \"#utility.yul\":13545:13559   */\n      swap1\n      pop\n        /* \"#utility.yul\":13380:13565   */\n      swap3\n      swap2\n      pop\n      pop\n      jump\t// out\n\n    auxdata: 0xa2646970667358221220b570186d5ac783263f7a39198ba566cc54b3d5b49498c0542348d5b5bf8d855b64736f6c634300081f0033\n}\n",
				"bytecode": {
					"linkReferences": {},
					"object": "608060405234801561000f575f5ffd5b5060405161107438038061107483398181016040528101906100319190610110565b73694aa1769357215de4fac081bf1f309adc32530660015f6101000a81548173ffffffffffffffffffffffffffffffffffffffff021916908373ffffffffffffffffffffffffffffffffffffffff1602179055503360025f6101000a81548173ffffffffffffffffffffffffffffffffffffffff021916908373ffffffffffffffffffffffffffffffffffffffff16021790555042600381905550806004819055505061013b565b5f5ffd5b5f819050919050565b6100ef816100dd565b81146100f9575f5ffd5b50565b5f8151905061010a816100e6565b92915050565b5f60208284031215610125576101246100d9565b5b5f610132848285016100fc565b91505092915050565b610f2c806101485f395ff3fe60806040526004361061006f575f3560e01c80639f883a051161004d5780639f883a05146100c9578063b60d428814610105578063bea4dfb51461010f578063f2fde38b146101395761006f565b8063590e1ae3146100735780638da5cb5b146100895780638edd6eb6146100b3575b5f5ffd5b34801561007e575f5ffd5b50610087610161565b005b348015610094575f5ffd5b5061009d6103ac565b6040516100aa91906108cb565b60405180910390f35b3480156100be575f5ffd5b506100c76103d1565b005b3480156100d4575f5ffd5b506100ef60048036038101906100ea9190610912565b6105f2565b6040516100fc9190610955565b60405180910390f35b61010d610606565b005b34801561011a575f5ffd5b506101236106ee565b6040516101309190610986565b60405180910390f35b348015610144575f5ffd5b5061015f600480360381019061015a9190610912565b61078b565b005b60045460035461017191906109cc565b4210156101b3576040517f08c379a00000000000000000000000000000000000000000000000000000000081526004016101aa90610a59565b60405180910390fd5b683635c9adc5dea000006101c64761085d565b10610206576040517f08c379a00000000000000000000000000000000000000000000000000000000081526004016101fd90610ac1565b60405180910390fd5b5f5f5f3373ffffffffffffffffffffffffffffffffffffffff1673ffffffffffffffffffffffffffffffffffffffff1681526020019081526020015f205403610284576040517f08c379a000000000000000000000000000000000000000000000000000000000815260040161027b90610b29565b60405180910390fd5b5f3373ffffffffffffffffffffffffffffffffffffffff165f5f3373ffffffffffffffffffffffffffffffffffffffff1673ffffffffffffffffffffffffffffffffffffffff1681526020019081526020015f20546040516102e590610b74565b5f6040518083038185875af1925050503d805f811461031f576040519150601f19603f3d011682016040523d82523d5f602084013e610324565b606091505b5050905080610368576040517f08c379a000000000000000000000000000000000000000000000000000000000815260040161035f90610bd2565b60405180910390fd5b5f5f5f3373ffffffffffffffffffffffffffffffffffffffff1673ffffffffffffffffffffffffffffffffffffffff1681526020019081526020015f208190555050565b60025f9054906101000a900473ffffffffffffffffffffffffffffffffffffffff1681565b6004546003546103e191906109cc565b421015610423576040517f08c379a000000000000000000000000000000000000000000000000000000000815260040161041a90610a59565b60405180910390fd5b60025f9054906101000a900473ffffffffffffffffffffffffffffffffffffffff1673ffffffffffffffffffffffffffffffffffffffff163373ffffffffffffffffffffffffffffffffffffffff16146104b2576040517f08c379a00000000000000000000000000000000000000000000000000000000081526004016104a990610c60565b60405180910390fd5b683635c9adc5dea000006104c54761085d565b1015610506576040517f08c379a00000000000000000000000000000000000000000000000000000000081526004016104fd90610cc8565b60405180910390fd5b5f3373ffffffffffffffffffffffffffffffffffffffff164760405161052b90610b74565b5f6040518083038185875af1925050503d805f8114610565576040519150601f19603f3d011682016040523d82523d5f602084013e61056a565b606091505b50509050806105ae576040517f08c379a00000000000000000000000000000000000000000000000000000000081526004016105a590610bd2565b60405180910390fd5b5f5f5f3373ffffffffffffffffffffffffffffffffffffffff1673ffffffffffffffffffffffffffffffffffffffff1681526020019081526020015f208190555050565b5f602052805f5260405f205f915090505481565b68056bc75e2d631000006106193461085d565b101561065a576040517f08c379a000000000000000000000000000000000000000000000000000000000815260040161065190610d30565b60405180910390fd5b60045460035461066a91906109cc565b42106106ab576040517f08c379a00000000000000000000000000000000000000000000000000000000081526004016106a290610a59565b60405180910390fd5b345f5f3373ffffffffffffffffffffffffffffffffffffffff1673ffffffffffffffffffffffffffffffffffffffff1681526020019081526020015f2081905550565b5f5f60015f9054906101000a900473ffffffffffffffffffffffffffffffffffffffff1673ffffffffffffffffffffffffffffffffffffffff1663feaf968c6040518163ffffffff1660e01b815260040160a060405180830381865afa15801561075a573d5f5f3e3d5ffd5b505050506040513d601f19601f8201168201806040525081019061077e9190610de1565b5050509150508091505090565b60025f9054906101000a900473ffffffffffffffffffffffffffffffffffffffff1673ffffffffffffffffffffffffffffffffffffffff163373ffffffffffffffffffffffffffffffffffffffff161461081a576040517f08c379a000000000000000000000000000000000000000000000000000000000815260040161081190610c60565b60405180910390fd5b8060025f6101000a81548173ffffffffffffffffffffffffffffffffffffffff021916908373ffffffffffffffffffffffffffffffffffffffff16021790555050565b5f5f6108676106ee565b90506305f5e100818461087a9190610e58565b6108849190610ec6565b915050919050565b5f73ffffffffffffffffffffffffffffffffffffffff82169050919050565b5f6108b58261088c565b9050919050565b6108c5816108ab565b82525050565b5f6020820190506108de5f8301846108bc565b92915050565b5f5ffd5b6108f1816108ab565b81146108fb575f5ffd5b50565b5f8135905061090c816108e8565b92915050565b5f60208284031215610927576109266108e4565b5b5f610934848285016108fe565b91505092915050565b5f819050919050565b61094f8161093d565b82525050565b5f6020820190506109685f830184610946565b92915050565b5f819050919050565b6109808161096e565b82525050565b5f6020820190506109995f830184610977565b92915050565b7f4e487b71000000000000000000000000000000000000000000000000000000005f52601160045260245ffd5b5f6109d68261093d565b91506109e18361093d565b92508282019050808211156109f9576109f861099f565b5b92915050565b5f82825260208201905092915050565b7f77696e646f7720697320636c6f736564000000000000000000000000000000005f82015250565b5f610a436010836109ff565b9150610a4e82610a0f565b602082019050919050565b5f6020820190508181035f830152610a7081610a37565b9050919050565b7f54617267657420697320726561636865640000000000000000000000000000005f82015250565b5f610aab6011836109ff565b9150610ab682610a77565b602082019050919050565b5f6020820190508181035f830152610ad881610a9f565b9050919050565b7f7468657265206973206e6f2066756e6420666f7220796f7500000000000000005f82015250565b5f610b136018836109ff565b9150610b1e82610adf565b602082019050919050565b5f6020820190508181035f830152610b4081610b07565b9050919050565b5f81905092915050565b50565b5f610b5f5f83610b47565b9150610b6a82610b51565b5f82019050919050565b5f610b7e82610b54565b9150819050919050565b7f5472616e73666572207478206661696c656400000000000000000000000000005f82015250565b5f610bbc6012836109ff565b9150610bc782610b88565b602082019050919050565b5f6020820190508181035f830152610be981610bb0565b9050919050565b7f746869732066756e6374696e2063616e206f6e6c792062652063616c6c6564205f8201527f6279206f776e6572000000000000000000000000000000000000000000000000602082015250565b5f610c4a6028836109ff565b9150610c5582610bf0565b604082019050919050565b5f6020820190508181035f830152610c7781610c3e565b9050919050565b7f546172676574206973206e6f74207265616368656400000000000000000000005f82015250565b5f610cb26015836109ff565b9150610cbd82610c7e565b602082019050919050565b5f6020820190508181035f830152610cdf81610ca6565b9050919050565b7f53656e64206d6f726520455448000000000000000000000000000000000000005f82015250565b5f610d1a600d836109ff565b9150610d2582610ce6565b602082019050919050565b5f6020820190508181035f830152610d4781610d0e565b9050919050565b5f69ffffffffffffffffffff82169050919050565b610d6c81610d4e565b8114610d76575f5ffd5b50565b5f81519050610d8781610d63565b92915050565b610d968161096e565b8114610da0575f5ffd5b50565b5f81519050610db181610d8d565b92915050565b610dc08161093d565b8114610dca575f5ffd5b50565b5f81519050610ddb81610db7565b92915050565b5f5f5f5f5f60a08688031215610dfa57610df96108e4565b5b5f610e0788828901610d79565b9550506020610e1888828901610da3565b9450506040610e2988828901610dcd565b9350506060610e3a88828901610dcd565b9250506080610e4b88828901610d79565b9150509295509295909350565b5f610e628261093d565b9150610e6d8361093d565b9250828202610e7b8161093d565b91508282048414831517610e9257610e9161099f565b5b5092915050565b7f4e487b71000000000000000000000000000000000000000000000000000000005f52601260045260245ffd5b5f610ed08261093d565b9150610edb8361093d565b925082610eeb57610eea610e99565b5b82820490509291505056fea2646970667358221220b570186d5ac783263f7a39198ba566cc54b3d5b49498c0542348d5b5bf8d855b64736f6c634300081f0033",
					"opcodes": "PUSH1 0x80 PUSH1 0x40 MSTORE CALLVALUE DUP1 ISZERO PUSH2 0xF JUMPI PUSH0 PUSH0 REVERT JUMPDEST POP PUSH1 0x40 MLOAD PUSH2 0x1074 CODESIZE SUB DUP1 PUSH2 0x1074 DUP4 CODECOPY DUP2 DUP2 ADD PUSH1 0x40 MSTORE DUP2 ADD SWAP1 PUSH2 0x31 SWAP2 SWAP1 PUSH2 0x110 JUMP JUMPDEST PUSH20 0x694AA1769357215DE4FAC081BF1F309ADC325306 PUSH1 0x1 PUSH0 PUSH2 0x100 EXP DUP2 SLOAD DUP2 PUSH20 0xFFFFFFFFFFFFFFFFFFFFFFFFFFFFFFFFFFFFFFFF MUL NOT AND SWAP1 DUP4 PUSH20 0xFFFFFFFFFFFFFFFFFFFFFFFFFFFFFFFFFFFFFFFF AND MUL OR SWAP1 SSTORE POP CALLER PUSH1 0x2 PUSH0 PUSH2 0x100 EXP DUP2 SLOAD DUP2 PUSH20 0xFFFFFFFFFFFFFFFFFFFFFFFFFFFFFFFFFFFFFFFF MUL NOT AND SWAP1 DUP4 PUSH20 0xFFFFFFFFFFFFFFFFFFFFFFFFFFFFFFFFFFFFFFFF AND MUL OR SWAP1 SSTORE POP TIMESTAMP PUSH1 0x3 DUP2 SWAP1 SSTORE POP DUP1 PUSH1 0x4 DUP2 SWAP1 SSTORE POP POP PUSH2 0x13B JUMP JUMPDEST PUSH0 PUSH0 REVERT JUMPDEST PUSH0 DUP2 SWAP1 POP SWAP2 SWAP1 POP JUMP JUMPDEST PUSH2 0xEF DUP2 PUSH2 0xDD JUMP JUMPDEST DUP2 EQ PUSH2 0xF9 JUMPI PUSH0 PUSH0 REVERT JUMPDEST POP JUMP JUMPDEST PUSH0 DUP2 MLOAD SWAP1 POP PUSH2 0x10A DUP2 PUSH2 0xE6 JUMP JUMPDEST SWAP3 SWAP2 POP POP JUMP JUMPDEST PUSH0 PUSH1 0x20 DUP3 DUP5 SUB SLT ISZERO PUSH2 0x125 JUMPI PUSH2 0x124 PUSH2 0xD9 JUMP JUMPDEST JUMPDEST PUSH0 PUSH2 0x132 DUP5 DUP3 DUP6 ADD PUSH2 0xFC JUMP JUMPDEST SWAP2 POP POP SWAP3 SWAP2 POP POP JUMP JUMPDEST PUSH2 0xF2C DUP1 PUSH2 0x148 PUSH0 CODECOPY PUSH0 RETURN INVALID PUSH1 0x80 PUSH1 0x40 MSTORE PUSH1 0x4 CALLDATASIZE LT PUSH2 0x6F JUMPI PUSH0 CALLDATALOAD PUSH1 0xE0 SHR DUP1 PUSH4 0x9F883A05 GT PUSH2 0x4D JUMPI DUP1 PUSH4 0x9F883A05 EQ PUSH2 0xC9 JUMPI DUP1 PUSH4 0xB60D4288 EQ PUSH2 0x105 JUMPI DUP1 PUSH4 0xBEA4DFB5 EQ PUSH2 0x10F JUMPI DUP1 PUSH4 0xF2FDE38B EQ PUSH2 0x139 JUMPI PUSH2 0x6F JUMP JUMPDEST DUP1 PUSH4 0x590E1AE3 EQ PUSH2 0x73 JUMPI DUP1 PUSH4 0x8DA5CB5B EQ PUSH2 0x89 JUMPI DUP1 PUSH4 0x8EDD6EB6 EQ PUSH2 0xB3 JUMPI JUMPDEST PUSH0 PUSH0 REVERT JUMPDEST CALLVALUE DUP1 ISZERO PUSH2 0x7E JUMPI PUSH0 PUSH0 REVERT JUMPDEST POP PUSH2 0x87 PUSH2 0x161 JUMP JUMPDEST STOP JUMPDEST CALLVALUE DUP1 ISZERO PUSH2 0x94 JUMPI PUSH0 PUSH0 REVERT JUMPDEST POP PUSH2 0x9D PUSH2 0x3AC JUMP JUMPDEST PUSH1 0x40 MLOAD PUSH2 0xAA SWAP2 SWAP1 PUSH2 0x8CB JUMP JUMPDEST PUSH1 0x40 MLOAD DUP1 SWAP2 SUB SWAP1 RETURN JUMPDEST CALLVALUE DUP1 ISZERO PUSH2 0xBE JUMPI PUSH0 PUSH0 REVERT JUMPDEST POP PUSH2 0xC7 PUSH2 0x3D1 JUMP JUMPDEST STOP JUMPDEST CALLVALUE DUP1 ISZERO PUSH2 0xD4 JUMPI PUSH0 PUSH0 REVERT JUMPDEST POP PUSH2 0xEF PUSH1 0x4 DUP1 CALLDATASIZE SUB DUP2 ADD SWAP1 PUSH2 0xEA SWAP2 SWAP1 PUSH2 0x912 JUMP JUMPDEST PUSH2 0x5F2 JUMP JUMPDEST PUSH1 0x40 MLOAD PUSH2 0xFC SWAP2 SWAP1 PUSH2 0x955 JUMP JUMPDEST PUSH1 0x40 MLOAD DUP1 SWAP2 SUB SWAP1 RETURN JUMPDEST PUSH2 0x10D PUSH2 0x606 JUMP JUMPDEST STOP JUMPDEST CALLVALUE DUP1 ISZERO PUSH2 0x11A JUMPI PUSH0 PUSH0 REVERT JUMPDEST POP PUSH2 0x123 PUSH2 0x6EE JUMP JUMPDEST PUSH1 0x40 MLOAD PUSH2 0x130 SWAP2 SWAP1 PUSH2 0x986 JUMP JUMPDEST PUSH1 0x40 MLOAD DUP1 SWAP2 SUB SWAP1 RETURN JUMPDEST CALLVALUE DUP1 ISZERO PUSH2 0x144 JUMPI PUSH0 PUSH0 REVERT JUMPDEST POP PUSH2 0x15F PUSH1 0x4 DUP1 CALLDATASIZE SUB DUP2 ADD SWAP1 PUSH2 0x15A SWAP2 SWAP1 PUSH2 0x912 JUMP JUMPDEST PUSH2 0x78B JUMP JUMPDEST STOP JUMPDEST PUSH1 0x4 SLOAD PUSH1 0x3 SLOAD PUSH2 0x171 SWAP2 SWAP1 PUSH2 0x9CC JUMP JUMPDEST TIMESTAMP LT ISZERO PUSH2 0x1B3 JUMPI PUSH1 0x40 MLOAD PUSH32 0x8C379A000000000000000000000000000000000000000000000000000000000 DUP2 MSTORE PUSH1 0x4 ADD PUSH2 0x1AA SWAP1 PUSH2 0xA59 JUMP JUMPDEST PUSH1 0x40 MLOAD DUP1 SWAP2 SUB SWAP1 REVERT JUMPDEST PUSH9 0x3635C9ADC5DEA00000 PUSH2 0x1C6 SELFBALANCE PUSH2 0x85D JUMP JUMPDEST LT PUSH2 0x206 JUMPI PUSH1 0x40 MLOAD PUSH32 0x8C379A000000000000000000000000000000000000000000000000000000000 DUP2 MSTORE PUSH1 0x4 ADD PUSH2 0x1FD SWAP1 PUSH2 0xAC1 JUMP JUMPDEST PUSH1 0x40 MLOAD DUP1 SWAP2 SUB SWAP1 REVERT JUMPDEST PUSH0 PUSH0 PUSH0 CALLER PUSH20 0xFFFFFFFFFFFFFFFFFFFFFFFFFFFFFFFFFFFFFFFF AND PUSH20 0xFFFFFFFFFFFFFFFFFFFFFFFFFFFFFFFFFFFFFFFF AND DUP2 MSTORE PUSH1 0x20 ADD SWAP1 DUP2 MSTORE PUSH1 0x20 ADD PUSH0 KECCAK256 SLOAD SUB PUSH2 0x284 JUMPI PUSH1 0x40 MLOAD PUSH32 0x8C379A000000000000000000000000000000000000000000000000000000000 DUP2 MSTORE PUSH1 0x4 ADD PUSH2 0x27B SWAP1 PUSH2 0xB29 JUMP JUMPDEST PUSH1 0x40 MLOAD DUP1 SWAP2 SUB SWAP1 REVERT JUMPDEST PUSH0 CALLER PUSH20 0xFFFFFFFFFFFFFFFFFFFFFFFFFFFFFFFFFFFFFFFF AND PUSH0 PUSH0 CALLER PUSH20 0xFFFFFFFFFFFFFFFFFFFFFFFFFFFFFFFFFFFFFFFF AND PUSH20 0xFFFFFFFFFFFFFFFFFFFFFFFFFFFFFFFFFFFFFFFF AND DUP2 MSTORE PUSH1 0x20 ADD SWAP1 DUP2 MSTORE PUSH1 0x20 ADD PUSH0 KECCAK256 SLOAD PUSH1 0x40 MLOAD PUSH2 0x2E5 SWAP1 PUSH2 0xB74 JUMP JUMPDEST PUSH0 PUSH1 0x40 MLOAD DUP1 DUP4 SUB DUP2 DUP6 DUP8 GAS CALL SWAP3 POP POP POP RETURNDATASIZE DUP1 PUSH0 DUP2 EQ PUSH2 0x31F JUMPI PUSH1 0x40 MLOAD SWAP2 POP PUSH1 0x1F NOT PUSH1 0x3F RETURNDATASIZE ADD AND DUP3 ADD PUSH1 0x40 MSTORE RETURNDATASIZE DUP3 MSTORE RETURNDATASIZE PUSH0 PUSH1 0x20 DUP5 ADD RETURNDATACOPY PUSH2 0x324 JUMP JUMPDEST PUSH1 0x60 SWAP2 POP JUMPDEST POP POP SWAP1 POP DUP1 PUSH2 0x368 JUMPI PUSH1 0x40 MLOAD PUSH32 0x8C379A000000000000000000000000000000000000000000000000000000000 DUP2 MSTORE PUSH1 0x4 ADD PUSH2 0x35F SWAP1 PUSH2 0xBD2 JUMP JUMPDEST PUSH1 0x40 MLOAD DUP1 SWAP2 SUB SWAP1 REVERT JUMPDEST PUSH0 PUSH0 PUSH0 CALLER PUSH20 0xFFFFFFFFFFFFFFFFFFFFFFFFFFFFFFFFFFFFFFFF AND PUSH20 0xFFFFFFFFFFFFFFFFFFFFFFFFFFFFFFFFFFFFFFFF AND DUP2 MSTORE PUSH1 0x20 ADD SWAP1 DUP2 MSTORE PUSH1 0x20 ADD PUSH0 KECCAK256 DUP2 SWAP1 SSTORE POP POP JUMP JUMPDEST PUSH1 0x2 PUSH0 SWAP1 SLOAD SWAP1 PUSH2 0x100 EXP SWAP1 DIV PUSH20 0xFFFFFFFFFFFFFFFFFFFFFFFFFFFFFFFFFFFFFFFF AND DUP2 JUMP JUMPDEST PUSH1 0x4 SLOAD PUSH1 0x3 SLOAD PUSH2 0x3E1 SWAP2 SWAP1 PUSH2 0x9CC JUMP JUMPDEST TIMESTAMP LT ISZERO PUSH2 0x423 JUMPI PUSH1 0x40 MLOAD PUSH32 0x8C379A000000000000000000000000000000000000000000000000000000000 DUP2 MSTORE PUSH1 0x4 ADD PUSH2 0x41A SWAP1 PUSH2 0xA59 JUMP JUMPDEST PUSH1 0x40 MLOAD DUP1 SWAP2 SUB SWAP1 REVERT JUMPDEST PUSH1 0x2 PUSH0 SWAP1 SLOAD SWAP1 PUSH2 0x100 EXP SWAP1 DIV PUSH20 0xFFFFFFFFFFFFFFFFFFFFFFFFFFFFFFFFFFFFFFFF AND PUSH20 0xFFFFFFFFFFFFFFFFFFFFFFFFFFFFFFFFFFFFFFFF AND CALLER PUSH20 0xFFFFFFFFFFFFFFFFFFFFFFFFFFFFFFFFFFFFFFFF AND EQ PUSH2 0x4B2 JUMPI PUSH1 0x40 MLOAD PUSH32 0x8C379A000000000000000000000000000000000000000000000000000000000 DUP2 MSTORE PUSH1 0x4 ADD PUSH2 0x4A9 SWAP1 PUSH2 0xC60 JUMP JUMPDEST PUSH1 0x40 MLOAD DUP1 SWAP2 SUB SWAP1 REVERT JUMPDEST PUSH9 0x3635C9ADC5DEA00000 PUSH2 0x4C5 SELFBALANCE PUSH2 0x85D JUMP JUMPDEST LT ISZERO PUSH2 0x506 JUMPI PUSH1 0x40 MLOAD PUSH32 0x8C379A000000000000000000000000000000000000000000000000000000000 DUP2 MSTORE PUSH1 0x4 ADD PUSH2 0x4FD SWAP1 PUSH2 0xCC8 JUMP JUMPDEST PUSH1 0x40 MLOAD DUP1 SWAP2 SUB SWAP1 REVERT JUMPDEST PUSH0 CALLER PUSH20 0xFFFFFFFFFFFFFFFFFFFFFFFFFFFFFFFFFFFFFFFF AND SELFBALANCE PUSH1 0x40 MLOAD PUSH2 0x52B SWAP1 PUSH2 0xB74 JUMP JUMPDEST PUSH0 PUSH1 0x40 MLOAD DUP1 DUP4 SUB DUP2 DUP6 DUP8 GAS CALL SWAP3 POP POP POP RETURNDATASIZE DUP1 PUSH0 DUP2 EQ PUSH2 0x565 JUMPI PUSH1 0x40 MLOAD SWAP2 POP PUSH1 0x1F NOT PUSH1 0x3F RETURNDATASIZE ADD AND DUP3 ADD PUSH1 0x40 MSTORE RETURNDATASIZE DUP3 MSTORE RETURNDATASIZE PUSH0 PUSH1 0x20 DUP5 ADD RETURNDATACOPY PUSH2 0x56A JUMP JUMPDEST PUSH1 0x60 SWAP2 POP JUMPDEST POP POP SWAP1 POP DUP1 PUSH2 0x5AE JUMPI PUSH1 0x40 MLOAD PUSH32 0x8C379A000000000000000000000000000000000000000000000000000000000 DUP2 MSTORE PUSH1 0x4 ADD PUSH2 0x5A5 SWAP1 PUSH2 0xBD2 JUMP JUMPDEST PUSH1 0x40 MLOAD DUP1 SWAP2 SUB SWAP1 REVERT JUMPDEST PUSH0 PUSH0 PUSH0 CALLER PUSH20 0xFFFFFFFFFFFFFFFFFFFFFFFFFFFFFFFFFFFFFFFF AND PUSH20 0xFFFFFFFFFFFFFFFFFFFFFFFFFFFFFFFFFFFFFFFF AND DUP2 MSTORE PUSH1 0x20 ADD SWAP1 DUP2 MSTORE PUSH1 0x20 ADD PUSH0 KECCAK256 DUP2 SWAP1 SSTORE POP POP JUMP JUMPDEST PUSH0 PUSH1 0x20 MSTORE DUP1 PUSH0 MSTORE PUSH1 0x40 PUSH0 KECCAK256 PUSH0 SWAP2 POP SWAP1 POP SLOAD DUP2 JUMP JUMPDEST PUSH9 0x56BC75E2D63100000 PUSH2 0x619 CALLVALUE PUSH2 0x85D JUMP JUMPDEST LT ISZERO PUSH2 0x65A JUMPI PUSH1 0x40 MLOAD PUSH32 0x8C379A000000000000000000000000000000000000000000000000000000000 DUP2 MSTORE PUSH1 0x4 ADD PUSH2 0x651 SWAP1 PUSH2 0xD30 JUMP JUMPDEST PUSH1 0x40 MLOAD DUP1 SWAP2 SUB SWAP1 REVERT JUMPDEST PUSH1 0x4 SLOAD PUSH1 0x3 SLOAD PUSH2 0x66A SWAP2 SWAP1 PUSH2 0x9CC JUMP JUMPDEST TIMESTAMP LT PUSH2 0x6AB JUMPI PUSH1 0x40 MLOAD PUSH32 0x8C379A000000000000000000000000000000000000000000000000000000000 DUP2 MSTORE PUSH1 0x4 ADD PUSH2 0x6A2 SWAP1 PUSH2 0xA59 JUMP JUMPDEST PUSH1 0x40 MLOAD DUP1 SWAP2 SUB SWAP1 REVERT JUMPDEST CALLVALUE PUSH0 PUSH0 CALLER PUSH20 0xFFFFFFFFFFFFFFFFFFFFFFFFFFFFFFFFFFFFFFFF AND PUSH20 0xFFFFFFFFFFFFFFFFFFFFFFFFFFFFFFFFFFFFFFFF AND DUP2 MSTORE PUSH1 0x20 ADD SWAP1 DUP2 MSTORE PUSH1 0x20 ADD PUSH0 KECCAK256 DUP2 SWAP1 SSTORE POP JUMP JUMPDEST PUSH0 PUSH0 PUSH1 0x1 PUSH0 SWAP1 SLOAD SWAP1 PUSH2 0x100 EXP SWAP1 DIV PUSH20 0xFFFFFFFFFFFFFFFFFFFFFFFFFFFFFFFFFFFFFFFF AND PUSH20 0xFFFFFFFFFFFFFFFFFFFFFFFFFFFFFFFFFFFFFFFF AND PUSH4 0xFEAF968C PUSH1 0x40 MLOAD DUP2 PUSH4 0xFFFFFFFF AND PUSH1 0xE0 SHL DUP2 MSTORE PUSH1 0x4 ADD PUSH1 0xA0 PUSH1 0x40 MLOAD DUP1 DUP4 SUB DUP2 DUP7 GAS STATICCALL ISZERO DUP1 ISZERO PUSH2 0x75A JUMPI RETURNDATASIZE PUSH0 PUSH0 RETURNDATACOPY RETURNDATASIZE PUSH0 REVERT JUMPDEST POP POP POP POP PUSH1 0x40 MLOAD RETURNDATASIZE PUSH1 0x1F NOT PUSH1 0x1F DUP3 ADD AND DUP3 ADD DUP1 PUSH1 0x40 MSTORE POP DUP2 ADD SWAP1 PUSH2 0x77E SWAP2 SWAP1 PUSH2 0xDE1 JUMP JUMPDEST POP POP POP SWAP2 POP POP DUP1 SWAP2 POP POP SWAP1 JUMP JUMPDEST PUSH1 0x2 PUSH0 SWAP1 SLOAD SWAP1 PUSH2 0x100 EXP SWAP1 DIV PUSH20 0xFFFFFFFFFFFFFFFFFFFFFFFFFFFFFFFFFFFFFFFF AND PUSH20 0xFFFFFFFFFFFFFFFFFFFFFFFFFFFFFFFFFFFFFFFF AND CALLER PUSH20 0xFFFFFFFFFFFFFFFFFFFFFFFFFFFFFFFFFFFFFFFF AND EQ PUSH2 0x81A JUMPI PUSH1 0x40 MLOAD PUSH32 0x8C379A000000000000000000000000000000000000000000000000000000000 DUP2 MSTORE PUSH1 0x4 ADD PUSH2 0x811 SWAP1 PUSH2 0xC60 JUMP JUMPDEST PUSH1 0x40 MLOAD DUP1 SWAP2 SUB SWAP1 REVERT JUMPDEST DUP1 PUSH1 0x2 PUSH0 PUSH2 0x100 EXP DUP2 SLOAD DUP2 PUSH20 0xFFFFFFFFFFFFFFFFFFFFFFFFFFFFFFFFFFFFFFFF MUL NOT AND SWAP1 DUP4 PUSH20 0xFFFFFFFFFFFFFFFFFFFFFFFFFFFFFFFFFFFFFFFF AND MUL OR SWAP1 SSTORE POP POP JUMP JUMPDEST PUSH0 PUSH0 PUSH2 0x867 PUSH2 0x6EE JUMP JUMPDEST SWAP1 POP PUSH4 0x5F5E100 DUP2 DUP5 PUSH2 0x87A SWAP2 SWAP1 PUSH2 0xE58 JUMP JUMPDEST PUSH2 0x884 SWAP2 SWAP1 PUSH2 0xEC6 JUMP JUMPDEST SWAP2 POP POP SWAP2 SWAP1 POP JUMP JUMPDEST PUSH0 PUSH20 0xFFFFFFFFFFFFFFFFFFFFFFFFFFFFFFFFFFFFFFFF DUP3 AND SWAP1 POP SWAP2 SWAP1 POP JUMP JUMPDEST PUSH0 PUSH2 0x8B5 DUP3 PUSH2 0x88C JUMP JUMPDEST SWAP1 POP SWAP2 SWAP1 POP JUMP JUMPDEST PUSH2 0x8C5 DUP2 PUSH2 0x8AB JUMP JUMPDEST DUP3 MSTORE POP POP JUMP JUMPDEST PUSH0 PUSH1 0x20 DUP3 ADD SWAP1 POP PUSH2 0x8DE PUSH0 DUP4 ADD DUP5 PUSH2 0x8BC JUMP JUMPDEST SWAP3 SWAP2 POP POP JUMP JUMPDEST PUSH0 PUSH0 REVERT JUMPDEST PUSH2 0x8F1 DUP2 PUSH2 0x8AB JUMP JUMPDEST DUP2 EQ PUSH2 0x8FB JUMPI PUSH0 PUSH0 REVERT JUMPDEST POP JUMP JUMPDEST PUSH0 DUP2 CALLDATALOAD SWAP1 POP PUSH2 0x90C DUP2 PUSH2 0x8E8 JUMP JUMPDEST SWAP3 SWAP2 POP POP JUMP JUMPDEST PUSH0 PUSH1 0x20 DUP3 DUP5 SUB SLT ISZERO PUSH2 0x927 JUMPI PUSH2 0x926 PUSH2 0x8E4 JUMP JUMPDEST JUMPDEST PUSH0 PUSH2 0x934 DUP5 DUP3 DUP6 ADD PUSH2 0x8FE JUMP JUMPDEST SWAP2 POP POP SWAP3 SWAP2 POP POP JUMP JUMPDEST PUSH0 DUP2 SWAP1 POP SWAP2 SWAP1 POP JUMP JUMPDEST PUSH2 0x94F DUP2 PUSH2 0x93D JUMP JUMPDEST DUP3 MSTORE POP POP JUMP JUMPDEST PUSH0 PUSH1 0x20 DUP3 ADD SWAP1 POP PUSH2 0x968 PUSH0 DUP4 ADD DUP5 PUSH2 0x946 JUMP JUMPDEST SWAP3 SWAP2 POP POP JUMP JUMPDEST PUSH0 DUP2 SWAP1 POP SWAP2 SWAP1 POP JUMP JUMPDEST PUSH2 0x980 DUP2 PUSH2 0x96E JUMP JUMPDEST DUP3 MSTORE POP POP JUMP JUMPDEST PUSH0 PUSH1 0x20 DUP3 ADD SWAP1 POP PUSH2 0x999 PUSH0 DUP4 ADD DUP5 PUSH2 0x977 JUMP JUMPDEST SWAP3 SWAP2 POP POP JUMP JUMPDEST PUSH32 0x4E487B7100000000000000000000000000000000000000000000000000000000 PUSH0 MSTORE PUSH1 0x11 PUSH1 0x4 MSTORE PUSH1 0x24 PUSH0 REVERT JUMPDEST PUSH0 PUSH2 0x9D6 DUP3 PUSH2 0x93D JUMP JUMPDEST SWAP2 POP PUSH2 0x9E1 DUP4 PUSH2 0x93D JUMP JUMPDEST SWAP3 POP DUP3 DUP3 ADD SWAP1 POP DUP1 DUP3 GT ISZERO PUSH2 0x9F9 JUMPI PUSH2 0x9F8 PUSH2 0x99F JUMP JUMPDEST JUMPDEST SWAP3 SWAP2 POP POP JUMP JUMPDEST PUSH0 DUP3 DUP3 MSTORE PUSH1 0x20 DUP3 ADD SWAP1 POP SWAP3 SWAP2 POP POP JUMP JUMPDEST PUSH32 0x77696E646F7720697320636C6F73656400000000000000000000000000000000 PUSH0 DUP3 ADD MSTORE POP JUMP JUMPDEST PUSH0 PUSH2 0xA43 PUSH1 0x10 DUP4 PUSH2 0x9FF JUMP JUMPDEST SWAP2 POP PUSH2 0xA4E DUP3 PUSH2 0xA0F JUMP JUMPDEST PUSH1 0x20 DUP3 ADD SWAP1 POP SWAP2 SWAP1 POP JUMP JUMPDEST PUSH0 PUSH1 0x20 DUP3 ADD SWAP1 POP DUP2 DUP2 SUB PUSH0 DUP4 ADD MSTORE PUSH2 0xA70 DUP2 PUSH2 0xA37 JUMP JUMPDEST SWAP1 POP SWAP2 SWAP1 POP JUMP JUMPDEST PUSH32 0x5461726765742069732072656163686564000000000000000000000000000000 PUSH0 DUP3 ADD MSTORE POP JUMP JUMPDEST PUSH0 PUSH2 0xAAB PUSH1 0x11 DUP4 PUSH2 0x9FF JUMP JUMPDEST SWAP2 POP PUSH2 0xAB6 DUP3 PUSH2 0xA77 JUMP JUMPDEST PUSH1 0x20 DUP3 ADD SWAP1 POP SWAP2 SWAP1 POP JUMP JUMPDEST PUSH0 PUSH1 0x20 DUP3 ADD SWAP1 POP DUP2 DUP2 SUB PUSH0 DUP4 ADD MSTORE PUSH2 0xAD8 DUP2 PUSH2 0xA9F JUMP JUMPDEST SWAP1 POP SWAP2 SWAP1 POP JUMP JUMPDEST PUSH32 0x7468657265206973206E6F2066756E6420666F7220796F750000000000000000 PUSH0 DUP3 ADD MSTORE POP JUMP JUMPDEST PUSH0 PUSH2 0xB13 PUSH1 0x18 DUP4 PUSH2 0x9FF JUMP JUMPDEST SWAP2 POP PUSH2 0xB1E DUP3 PUSH2 0xADF JUMP JUMPDEST PUSH1 0x20 DUP3 ADD SWAP1 POP SWAP2 SWAP1 POP JUMP JUMPDEST PUSH0 PUSH1 0x20 DUP3 ADD SWAP1 POP DUP2 DUP2 SUB PUSH0 DUP4 ADD MSTORE PUSH2 0xB40 DUP2 PUSH2 0xB07 JUMP JUMPDEST SWAP1 POP SWAP2 SWAP1 POP JUMP JUMPDEST PUSH0 DUP2 SWAP1 POP SWAP3 SWAP2 POP POP JUMP JUMPDEST POP JUMP JUMPDEST PUSH0 PUSH2 0xB5F PUSH0 DUP4 PUSH2 0xB47 JUMP JUMPDEST SWAP2 POP PUSH2 0xB6A DUP3 PUSH2 0xB51 JUMP JUMPDEST PUSH0 DUP3 ADD SWAP1 POP SWAP2 SWAP1 POP JUMP JUMPDEST PUSH0 PUSH2 0xB7E DUP3 PUSH2 0xB54 JUMP JUMPDEST SWAP2 POP DUP2 SWAP1 POP SWAP2 SWAP1 POP JUMP JUMPDEST PUSH32 0x5472616E73666572207478206661696C65640000000000000000000000000000 PUSH0 DUP3 ADD MSTORE POP JUMP JUMPDEST PUSH0 PUSH2 0xBBC PUSH1 0x12 DUP4 PUSH2 0x9FF JUMP JUMPDEST SWAP2 POP PUSH2 0xBC7 DUP3 PUSH2 0xB88 JUMP JUMPDEST PUSH1 0x20 DUP3 ADD SWAP1 POP SWAP2 SWAP1 POP JUMP JUMPDEST PUSH0 PUSH1 0x20 DUP3 ADD SWAP1 POP DUP2 DUP2 SUB PUSH0 DUP4 ADD MSTORE PUSH2 0xBE9 DUP2 PUSH2 0xBB0 JUMP JUMPDEST SWAP1 POP SWAP2 SWAP1 POP JUMP JUMPDEST PUSH32 0x746869732066756E6374696E2063616E206F6E6C792062652063616C6C656420 PUSH0 DUP3 ADD MSTORE PUSH32 0x6279206F776E6572000000000000000000000000000000000000000000000000 PUSH1 0x20 DUP3 ADD MSTORE POP JUMP JUMPDEST PUSH0 PUSH2 0xC4A PUSH1 0x28 DUP4 PUSH2 0x9FF JUMP JUMPDEST SWAP2 POP PUSH2 0xC55 DUP3 PUSH2 0xBF0 JUMP JUMPDEST PUSH1 0x40 DUP3 ADD SWAP1 POP SWAP2 SWAP1 POP JUMP JUMPDEST PUSH0 PUSH1 0x20 DUP3 ADD SWAP1 POP DUP2 DUP2 SUB PUSH0 DUP4 ADD MSTORE PUSH2 0xC77 DUP2 PUSH2 0xC3E JUMP JUMPDEST SWAP1 POP SWAP2 SWAP1 POP JUMP JUMPDEST PUSH32 0x546172676574206973206E6F7420726561636865640000000000000000000000 PUSH0 DUP3 ADD MSTORE POP JUMP JUMPDEST PUSH0 PUSH2 0xCB2 PUSH1 0x15 DUP4 PUSH2 0x9FF JUMP JUMPDEST SWAP2 POP PUSH2 0xCBD DUP3 PUSH2 0xC7E JUMP JUMPDEST PUSH1 0x20 DUP3 ADD SWAP1 POP SWAP2 SWAP1 POP JUMP JUMPDEST PUSH0 PUSH1 0x20 DUP3 ADD SWAP1 POP DUP2 DUP2 SUB PUSH0 DUP4 ADD MSTORE PUSH2 0xCDF DUP2 PUSH2 0xCA6 JUMP JUMPDEST SWAP1 POP SWAP2 SWAP1 POP JUMP JUMPDEST PUSH32 0x53656E64206D6F72652045544800000000000000000000000000000000000000 PUSH0 DUP3 ADD MSTORE POP JUMP JUMPDEST PUSH0 PUSH2 0xD1A PUSH1 0xD DUP4 PUSH2 0x9FF JUMP JUMPDEST SWAP2 POP PUSH2 0xD25 DUP3 PUSH2 0xCE6 JUMP JUMPDEST PUSH1 0x20 DUP3 ADD SWAP1 POP SWAP2 SWAP1 POP JUMP JUMPDEST PUSH0 PUSH1 0x20 DUP3 ADD SWAP1 POP DUP2 DUP2 SUB PUSH0 DUP4 ADD MSTORE PUSH2 0xD47 DUP2 PUSH2 0xD0E JUMP JUMPDEST SWAP1 POP SWAP2 SWAP1 POP JUMP JUMPDEST PUSH0 PUSH10 0xFFFFFFFFFFFFFFFFFFFF DUP3 AND SWAP1 POP SWAP2 SWAP1 POP JUMP JUMPDEST PUSH2 0xD6C DUP2 PUSH2 0xD4E JUMP JUMPDEST DUP2 EQ PUSH2 0xD76 JUMPI PUSH0 PUSH0 REVERT JUMPDEST POP JUMP JUMPDEST PUSH0 DUP2 MLOAD SWAP1 POP PUSH2 0xD87 DUP2 PUSH2 0xD63 JUMP JUMPDEST SWAP3 SWAP2 POP POP JUMP JUMPDEST PUSH2 0xD96 DUP2 PUSH2 0x96E JUMP JUMPDEST DUP2 EQ PUSH2 0xDA0 JUMPI PUSH0 PUSH0 REVERT JUMPDEST POP JUMP JUMPDEST PUSH0 DUP2 MLOAD SWAP1 POP PUSH2 0xDB1 DUP2 PUSH2 0xD8D JUMP JUMPDEST SWAP3 SWAP2 POP POP JUMP JUMPDEST PUSH2 0xDC0 DUP2 PUSH2 0x93D JUMP JUMPDEST DUP2 EQ PUSH2 0xDCA JUMPI PUSH0 PUSH0 REVERT JUMPDEST POP JUMP JUMPDEST PUSH0 DUP2 MLOAD SWAP1 POP PUSH2 0xDDB DUP2 PUSH2 0xDB7 JUMP JUMPDEST SWAP3 SWAP2 POP POP JUMP JUMPDEST PUSH0 PUSH0 PUSH0 PUSH0 PUSH0 PUSH1 0xA0 DUP7 DUP9 SUB SLT ISZERO PUSH2 0xDFA JUMPI PUSH2 0xDF9 PUSH2 0x8E4 JUMP JUMPDEST JUMPDEST PUSH0 PUSH2 0xE07 DUP9 DUP3 DUP10 ADD PUSH2 0xD79 JUMP JUMPDEST SWAP6 POP POP PUSH1 0x20 PUSH2 0xE18 DUP9 DUP3 DUP10 ADD PUSH2 0xDA3 JUMP JUMPDEST SWAP5 POP POP PUSH1 0x40 PUSH2 0xE29 DUP9 DUP3 DUP10 ADD PUSH2 0xDCD JUMP JUMPDEST SWAP4 POP POP PUSH1 0x60 PUSH2 0xE3A DUP9 DUP3 DUP10 ADD PUSH2 0xDCD JUMP JUMPDEST SWAP3 POP POP PUSH1 0x80 PUSH2 0xE4B DUP9 DUP3 DUP10 ADD PUSH2 0xD79 JUMP JUMPDEST SWAP2 POP POP SWAP3 SWAP6 POP SWAP3 SWAP6 SWAP1 SWAP4 POP JUMP JUMPDEST PUSH0 PUSH2 0xE62 DUP3 PUSH2 0x93D JUMP JUMPDEST SWAP2 POP PUSH2 0xE6D DUP4 PUSH2 0x93D JUMP JUMPDEST SWAP3 POP DUP3 DUP3 MUL PUSH2 0xE7B DUP2 PUSH2 0x93D JUMP JUMPDEST SWAP2 POP DUP3 DUP3 DIV DUP5 EQ DUP4 ISZERO OR PUSH2 0xE92 JUMPI PUSH2 0xE91 PUSH2 0x99F JUMP JUMPDEST JUMPDEST POP SWAP3 SWAP2 POP POP JUMP JUMPDEST PUSH32 0x4E487B7100000000000000000000000000000000000000000000000000000000 PUSH0 MSTORE PUSH1 0x12 PUSH1 0x4 MSTORE PUSH1 0x24 PUSH0 REVERT JUMPDEST PUSH0 PUSH2 0xED0 DUP3 PUSH2 0x93D JUMP JUMPDEST SWAP2 POP PUSH2 0xEDB DUP4 PUSH2 0x93D JUMP JUMPDEST SWAP3 POP DUP3 PUSH2 0xEEB JUMPI PUSH2 0xEEA PUSH2 0xE99 JUMP JUMPDEST JUMPDEST DUP3 DUP3 DIV SWAP1 POP SWAP3 SWAP2 POP POP JUMP INVALID LOG2 PUSH5 0x6970667358 0x22 SLT KECCAK256 0xB5 PUSH17 0x186D5AC783263F7A39198BA566CC54B3D5 0xB4 SWAP5 SWAP9 0xC0 SLOAD 0x23 BASEFEE 0xD5 0xB5 0xBF DUP14 DUP6 JUMPDEST PUSH5 0x736F6C6343 STOP ADDMOD 0x1F STOP CALLER "
				},
				"gasEstimates": {
					"creation": {
						"codeDepositCost": "776800",
						"executionCost": "infinite",
						"totalCost": "infinite"
					},
					"external": {
						"fund()": "infinite",
						"fundersToAmount(address)": "2801",
						"getChainlinkDataFeedLatestAnswer()": "infinite",
						"getFund()": "infinite",
						"owner()": "2531",
						"refund()": "infinite",
						"transferOwnership(address)": "26950"
					},
					"internal": {
						"convertEthToUsd(uint256)": "infinite"
					}
				},
				"methodIdentifiers": {
					"fund()": "b60d4288",
					"fundersToAmount(address)": "9f883a05",
					"getChainlinkDataFeedLatestAnswer()": "bea4dfb5",
					"getFund()": "8edd6eb6",
					"owner()": "8da5cb5b",
					"refund()": "590e1ae3",
					"transferOwnership(address)": "f2fde38b"
				}
			},
			"storageLayout": {
				"storage": [
					{
						"astId": 53,
						"contract": "FundMe.sol:FundMe",
						"label": "fundersToAmount",
						"offset": 0,
						"slot": "0",
						"type": "t_mapping(t_address,t_uint256)"
					},
					{
						"astId": 63,
						"contract": "FundMe.sol:FundMe",
						"label": "dataFeed",
						"offset": 0,
						"slot": "1",
						"type": "t_contract(AggregatorV3Interface)45"
					},
					{
						"astId": 72,
						"contract": "FundMe.sol:FundMe",
						"label": "owner",
						"offset": 0,
						"slot": "2",
						"type": "t_address"
					},
					{
						"astId": 74,
						"contract": "FundMe.sol:FundMe",
						"label": "deploymentTimestamp",
						"offset": 0,
						"slot": "3",
						"type": "t_uint256"
					},
					{
						"astId": 76,
						"contract": "FundMe.sol:FundMe",
						"label": "lockTime",
						"offset": 0,
						"slot": "4",
						"type": "t_uint256"
					}
				],
				"types": {
					"t_address": {
						"encoding": "inplace",
						"label": "address",
						"numberOfBytes": "20"
					},
					"t_contract(AggregatorV3Interface)45": {
						"encoding": "inplace",
						"label": "contract AggregatorV3Interface",
						"numberOfBytes": "20"
					},
					"t_mapping(t_address,t_uint256)": {
						"encoding": "mapping",
						"key": "t_address",
						"label": "mapping(address => uint256)",
						"numberOfBytes": "32",
						"value": "t_uint256"
					},
					"t_uint256": {
						"encoding": "inplace",
						"label": "uint256",
						"numberOfBytes": "32"
					}
				}
			},
			"userdoc": {
				"kind": "user",
				"methods": {},
				"version": 1
			}
		}
	}
}